:100000000C9401010C9429010C9429010C94C70A49
:100010000C94EB0A0C940F0B0C9429010C942901FD
:100020000C9429010C9429010C9429010C942901A8
:100030000C9429010C9429010C9429010C94290198
:100040000C94C4040C9429010C9409080C944C08D9
:100050000C9429010C9429010C9429010C94290178
:100060000C9429010C942901280F3B0F4B0F5E0FB4
:10007000660F920F9A0FA20FAA0FB10FB10FB10F17
:10008000B10FB10FB10FB10FB10FB10FB10FB10F70
:10009000B10FB10FB10FB10FB10FB10FB10FB10F60
:1000A000B10FB10FB10FB10F280F340F3B0F4B0F32
:1000B0005E0F660F790F810F890F084AD73B3BCE41
:1000C000016E84BCBFFDC12F3D6C74319ABD568357
:1000D0003DDA3D00C77F11BED9E4BB4C3E916BAA0F
:1000E000AABE000000803F05A84CCDB2D44EB9385E
:1000F00036A9020C50B9918688083CA6AAAA2ABE45
:10010000000000803F0000C2010001000500050062
:10011000030000E1000001000F000F000D00009639
:100120000000020019001A001700127A00000700F0
:10013000200021001D00807000000B002300230020
:100140002000004B00001400370037003400403816
:1001500000001E004B004B004800802500003200CC
:10016000720072007000C01200006E00E900E90029
:10017000E60060090000E500D801D801D501B0040F
:100180000000D301B403B403B10358020000B40368
:100190006707670762072C0100006707DD0EDD0EA9
:1001A000DA0E000000070002010000030406000050
:1001B000000000000000010204081020408001023D
:1001C000040810200102040810200404040404049C
:1001D00004040202020202020303030303030000F9
:1001E0000000230026002900000000002500280050
:1001F0002B0000000000240027002A0065010209EE
:10020000700111241FBECFEFD8E0DEBFCDBF13E0D9
:10021000A0E0B1E0E0EBF7E302C005900D92A23858
:10022000B107D9F725E0A2E8B3E001C01D92A830DC
:10023000B207E1F711E0C0E0D2E004C02297FE016E
:100240000E945A1BCC3FD107C9F70E946A070C9441
:100250000C150C94000040E052EC61E070E08AE183
:1002600094E00E94870860E071E08AE194E00E94D7
:1002700093054AE050E06DE070E08AE194E00E946E
:1002800065066CE171E08AE194E00E94B0058AE1C4
:1002900094E00E949C056AE271E08AE194E00E9489
:1002A000B00560EB71E08AE194E00E94B00562E382
:1002B00072E08AE194E00E94B00540EC52E160E017
:1002C00070E082E893E00C94B10B8EE993E00E9419
:1002D000890C20E042E063E082E893E00C94810B1B
:1002E00082E893E00C94820C8F929F92AF92BF921F
:1002F000CF92DF92EF92FF926B017C010E940E057C
:100300004B015C0182E893E00E949309892B51F034
:1003100082E893E00E945809682F8EE993E00E94DA
:10032000BA0FF0CF0E940E05681979098A099B0956
:100330006C157D058E059F0528F3FF90EF90DF90EB
:10034000CF90BF90AF909F908F9008958F929F9283
:10035000AF92BF92EF92FF920F931F93CF93DF93D1
:100360004B015C010E940716811111C0023011057A
:1003700044F06AE28AE194E00E9495050150110977
:10038000F5CF60E28AE194E00E94950544C09701B0
:10039000B501A4018AE194E00E946807C501B40197
:1003A0000E947616EB0177FF04C0CC27DD27C61B21
:1003B000D70B20E030E0A901C501B4010E94071667
:1003C000992787FD90958827990F881F992701966F
:1003D0008E0D9F1DC83E23E0D20744F4C436D105DC
:1003E00044F42A974CF022E030E008C024E030E0EA
:1003F00005C023E030E002C021E030E0EC01C20F94
:10040000D31FC017D1073CF460E28AE194E00E9458
:1004100095052196F6CF60E070E0CB01DF91CF919A
:100420001F910F91FF90EF90BF90AF909F908F9092
:100430000C947401EF92FF920F931F93CF93DF936D
:10044000CDB7DEB7A0970FB6F894DEBF0FBECDBF15
:10045000FE0131967F01621773078407950731F417
:1004600068EB72E0CF010E940F1511C09F938F932C
:100470007F936F9380EC92E09F938F93FF92EF9323
:100480000E941E150FB6F894DEBF0FBECDBFF70158
:10049000E00FF11F1082F70101900020E9F731977A
:1004A000EE19FF0980E2E017F10734F4D701AE0F2F
:1004B000BF1F8C933196F7CF101611062CF4FE0156
:1004C000E00FF11F80E28083B7018AE194E00E948F
:1004D000930560E070E0CB010E947401A0960FB616
:1004E000F894DEBF0FBECDBFDF91CF911F910F916A
:1004F000FF90EF900895EF92FF920F931F93CF9389
:10050000DF937C01FC0101900020E9F78F0101508D
:100510001109081B190BC0E0D0E0C017D1072CF45B
:10052000F701EC0FFD1F608101C060E28AE194E0F9
:100530000E9495052196C630D10579F760E070E0FC
:10054000CB01DF91CF911F910F91FF90EF900C9411
:1005500074014F925F926F927F928F929F92AF92AF
:10056000BF92CF92DF92EF92FF920F931F93CF93A0
:10057000DF93CDB7DEB7C454D1090FB6F894DEBF10
:100580000FBECDBF1DA21EA21FA218A61AAE19AE85
:1005900018AE1FAA6091DE037091DF0380E090E047
:1005A00005E010E02FEF30E040E050E00E941A023A
:1005B0006091D6037091D7038091D8039091D903AD
:1005C0002FEF3FEFA9010E941A029E01275D3F4FC6
:1005D000AE01435D5F4FBE016F5C7F4F8EE993E0DC
:1005E0000E94A61240907E0350907F03609080038B
:1005F0007090810369A97AA98BA99CA9F6E0EF2ED6
:10060000F12C0AE010E09201A3010E94A6016DA561
:100610007EA58FA598A90BE010E09201A3010E948E
:10062000A60169A57AA58BA59CA505E010E02FEF92
:100630003FEFA9010E941A02CE0181964C01DE0112
:10064000DB965D014B966C0112967D018E01025C7A
:100650001F4F9E01215C3F4FAE01405C5F4FBE01CA
:100660006B5C7F4F8EE993E00E94131389A19AA1DE
:10067000ABA1BCA18F3F9F4FAF4FBF4F39F464EC8C
:1006800072E08AE194E00E9493052AC08CAD1F922B
:100690008F938DAD1F928F938EAD1F928F938EA9E6
:1006A0008F938DA98F938FAD1F928F9321968FADCE
:1006B00021971F928F9389ED92E09F938F938E01E4
:1006C0000F5F1F4F1F930F930E941E15B8018AE101
:1006D00094E00E9493050FB6F894DEBF0FBECDBF25
:1006E00069A17AA18BA19CA105E010E02FEF3FEF5B
:1006F000A9010E941A0260E070E0CB010E9474011F
:1007000080907A0390907B03A0907C03B0907D034F
:100710008EE993E00E94E313E2E0EE2EF12C07E075
:1007200010E0A50194010E94A6018EE993E00E94C9
:10073000FE139201A3010E94A6018090760390907F
:100740007703A0907803B09079038EE993E00E943C
:10075000341406E010E0A50194010E94A6018EE980
:1007600093E00E94FE139201A3010E9407168823C2
:1007700039F08EE993E00E94FE130E94EF1102C04F
:1007800084ED92E00E947B0289A99AA9ABA9BCA939
:1007900025968CAF9DAFAEAFBFAF25979201A30159
:1007A000BC01CD010E940716882329F12DA53EA585
:1007B0004FA558A995EFA92E92E1B92E93E0C92E25
:1007C0009EEBD92E13E5E12E18E0F12E0EE412E493
:1007D00025966CAD7DAD8EAD9FAD25970E944210E4
:1007E0000E947B1628EE33E040E050E00E94361B6A
:1007F000CA01B90103C06FEF7FEFCB0109E010E040
:100800002FEF3FEFA9010E941A0289A99AA9ABA96B
:10081000BCA925968CAF9DAFAEAFBFAF2597920117
:10082000A301BC01CD010E9407168823E9F02DA584
:100830003EA54FA558A905EFA02E02E1B02E03E07A
:10084000C02E0EEBD02E13E5E12E18E0F12E0EE4B3
:1008500012E425966CAD7DAD8EAD9FAD25970E94BF
:100860002911FB01DC0102C0F201D30112E0E12EEB
:10087000F12C07E010E09201A301BF01CD010E941D
:10088000A60189A99AA9ABA9BCA925968CAF9DAF51
:10089000AEAFBFAF25979201A301BC01CD010E946D
:1008A00007168823E9F02DA53EA54FA558A965EFA9
:1008B000A62E62E1B62E63E0C62E6EEBD62E13E5B1
:1008C000E12E18E0F12E0EE412E425966CAD7DAD1C
:1008D0008EAD9FAD25970E9429110E94EF1102C095
:1008E00084ED92E00E947B029E01295C3F4FAE01A5
:1008F000475C5F4FBE016B5D7F4F8EE993E00E94C6
:10090000E70C6DA17EA18FA198A506E010E02FEF66
:100910003FEFA9010E941A0269AD7AAD80E090E034
:100920000AE010E02FEF3FEFA9010E941A026FA921
:1009300078AD80E090E009E010E02FEF3FEFA901F3
:100940000E941A028AE194E00E949C0568EE73E01E
:1009500080E090E00E947401CC5BDF4F0FB6F8940A
:10096000DEBF0FBECDBFDF91CF911F910F91FF90E2
:10097000EF90DF90CF90BF90AF909F908F907F903F
:100980006F905F904F9008951F920F920FB60F9245
:1009900011242F933F938F939F93AF93BF93809195
:1009A000120490911304A0911404B0911504309195
:1009B000110426E0230F2D3720F40296A11DB11D4E
:1009C00005C029E8230F0396A11DB11D2093110432
:1009D0008093120490931304A0931404B09315040D
:1009E0008091160490911704A0911804B0911904F5
:1009F0000196A11DB11D8093160490931704A09336
:100A00001804B0931904BF91AF919F918F913F91BA
:100A10002F910F900FBE0F901F9018952FB7F8943D
:100A20006091120470911304809114049091150444
:100A30002FBF0895789484B5826084BD84B58160A9
:100A400084BD85B5826085BD85B5816085BDEEE6D6
:100A5000F0E0808181608083E1E8F0E010828081B5
:100A600082608083808181608083E0E8F0E0808123
:100A700081608083E1EBF0E0808184608083E0EB43
:100A8000F0E0808181608083EAE7F0E0808184602B
:100A90008083808182608083808181608083808187
:100AA000806880831092C1000895CF92DF92EF9208
:100AB000FF920F931F93CF93DF936C017A01EB01A9
:100AC000E60EF71E00E010E0CE15DF0561F069913B
:100AD000D601ED91FC910190F081E02DC6010995C0
:100AE000080F191FF1CFC801DF91CF911F910F910E
:100AF000FF90EF90DF90CF9008956115710581F020
:100B0000DB010D900020E9F7AD0141505109461B72
:100B1000570BDC01ED91FC910280F381E02D0994EB
:100B200080E090E008950C947D05DC01ED91FC914E
:100B30000190F081E02D09940F931F93CF93DF93E1
:100B4000EC016DE00E9495058C016AE0CE010E94E7
:100B50009505800F911FDF91CF911F910F910895FF
:100B60000F931F93CF93DF93EC010E947D058C01BF
:100B7000CE010E949C05800F911FDF91CF911F91A4
:100B80000F9108958F929F92AF92BF92CF92DF9272
:100B9000EF92FF920F931F93CF93DF93CDB7DEB702
:100BA000A1970FB6F894DEBF0FBECDBF7C01C42E57
:100BB000E52FCB01D22E19A221E02D1510F02AE04D
:100BC000D22E8E010F5D1F4F8D2C912CA12CB12C9C
:100BD0006C2D7E2FA50194010E94361B8C2DD29E78
:100BE00080191124015011098A3014F4805D01C06C
:100BF000895CF8018083211531054105510521F0FB
:100C0000C22EE32FCA01E4CFB801C7010E947D05BF
:100C1000A1960FB6F894DEBF0FBECDBFDF91CF9186
:100C20001F910F91FF90EF90DF90CF90BF90AF900A
:100C30009F908F900895CF92DF92EF92FF920F9343
:100C40001F93CF93DF93EC016A017B0121153105DE
:100C500079F4E881F9810190F081E02D642FDF9132
:100C6000CF911F910F91FF90EF90DF90CF9009945B
:100C70002A303105E9F477FF1AC06DE20E9495052C
:100C80008C0144275527BA014C195D096E097F096B
:100C90002AE0CE010E94C205800F911FDF91CF9103
:100CA0001F910F91FF90EF90DF90CF9008952AE071
:100CB000B701A601CE01DF91CF911F910F91FF9057
:100CC000EF90DF90CF900C94C2050F931F93CF93BA
:100CD000DF93EC019A01AB01662757FD6095762FF3
:100CE0000E941B068C01CE010E949C05800F911F63
:100CF000DF91CF911F910F9108954F925F926F9264
:100D00007F928F929F92AF92BF92CF92DF92EF929B
:100D1000FF920F931F93CF93DF93EC016A017B0146
:100D2000B22E9A01AB01C701B6010E947018882348
:100D300019F068EF72E027C026013701E89477F8D0
:100D40002FEF3FEF4FE75FE7C301B2010E9470183A
:100D500081110DC02FEF3FEF4FE75FE7C301B201F5
:100D60000E94071618161CF46CEF72E00CC02FEFEF
:100D70003FEF4FE75FE4C701B6010E94B7171816AF
:100D8000ACF460E073E0CE01DF91CF911F910F9141
:100D9000FF90EF90DF90CF90BF90AF909F908F909B
:100DA0007F906F905F904F900C947D052FEF3FEFF9
:100DB0004FE75FECC701B6010E94071687FDE1CF40
:100DC00020E030E0A901C701B6010E94071687FFA5
:100DD0000AC06DE2CE010E9495058C01F7FAF094ED
:100DE000F7F8F09402C000E010E0A12C60E070E0A1
:100DF00080E09FE3AB1441F020E030E040E251E4BA
:100E00000E940E16A394F6CF9B01AC01C701B60158
:100E10000E9441156B017C010E947B162B013C0155
:100E20000E94A7169B01AC01C701B6010E944015A4
:100E30006B017C012AE0B301A201CE010E94C20530
:100E4000080F191FBB2039F064E073E0CE010E9447
:100E50007D05080F191F7B2C772041F120E030E041
:100E600040E251E4C701B6010E94C2176B017C0148
:100E70000E9476164B01AA2497FCA094BA2C2AE073
:100E800030E0B501A401CE010E941B06080F191F16
:100E9000C501B4010E94A9169B01AC01C701B601AE
:100EA0000E9440156B017C017A94D6CFC801DF9176
:100EB000CF911F910F91FF90EF90DF90CF90BF9057
:100EC000AF909F908F907F906F905F904F9008951C
:100ED0000C947D060E941A050E942B01C3E4D8E001
:100EE0000E94A9022097E1F30E944308F9CFFC0178
:100EF00024853585F901E05CFF4F80819181329630
:100F000020813181821B930B8F7399270895FC01F7
:100F100084859585FC01E05CFF4F408151813296CC
:100F2000208131814217530741F00190F081E02D7B
:100F3000E80FF91F808190E008958FEF9FEF0895EB
:100F4000FC0184859585FC01E05CFF4F4081518167
:100F50003296208131814217530779F0A081B18107
:100F6000A80FB91F8C91208131812F5F3F4F2F73C4
:100F700033273183208390E008958FEF9FEF08950A
:100F8000FC0181A1882329F0A489B5898C9186FF71
:100F9000FBCF11A20895CF93DF93FC0126853785FF
:100FA000D901A05CBF4F8D919C91119701968F73D1
:100FB0009927E901CE5BDF4F488159818417950756
:100FC000D9F30D90BC91A02DA20FB31F6C93A685F1
:100FD000B785A05CBF4F11969C938E93A689B78965
:100FE0002C9181E090E0078C02C0880F991F0A9431
:100FF000E2F7282B2C9381E081A30488F589E02D6A
:1010000080818064808381E090E0DF91CF910895BA
:1010100008951F920F920FB60F9211242F933F93B2
:101020004F938F939F93EF93FF938091C00082FD26
:101030001CC04091C6008091C0049091C1040196EB
:101040008F7399272091C2043091C30482179307AC
:1010500071F0E091C004F091C104E058FB4F40836F
:101060009093C1048093C00402C08091C600FF9198
:10107000EF919F918F914F913F912F910F900FBEC4
:101080000F901F9018958AE194E00E947707892BB2
:1010900011F00C94080808951F920F920FB60F924A
:1010A00011242F933F938F939F93EF93FF9320915E
:1010B0007C0430917D0480917E0490917F042817F8
:1010C000390731F48091C1008F7D8093C10014C035
:1010D000E0917E04F0917F04E45CFB4F20818091DD
:1010E0007E0490917F0401968F73992790937F04DB
:1010F00080937E042093C600FF91EF919F918F9182
:101100003F912F910F900FBE0F901F901895CF9287
:10111000DF92EF92FF92CF93DF93EC016A017B01A4
:10112000EC89FD8981E090E008A002C0880F991F3A
:101130000A94E2F7808360E874E88EE190E0A7010A
:1011400096010E94361B21503109410951095695DB
:10115000479537952795211580E1380798F0EC8958
:10116000FD89108260E472E48FE090E0A7019601AF
:101170000E94361B21503109410951095695479566
:1011800037952795E889F9893083EA89FB89208397
:1011900019A2EE89FF89408181E090E09C010C8CCE
:1011A00002C0220F331F0A94E2F7422B4083EE89DC
:1011B000FF8940819C010D8C02C0220F331F0A94CD
:1011C000E2F7422B4083EE89FF8940819C010E8C1F
:1011D00002C0220F331F0A94E2F7422B4083EE89AC
:1011E000FF8920810F8C02C0880F991F0A94E2F7B3
:1011F000809582238083DF91CF91FF90EF90DF90E5
:10120000CF90089510921D0410921C0488EE93E074
:10121000A0E0B0E080931E0490931F04A0932004EC
:10122000B09321048AE093E090931B0480931A0406
:1012300080E894E090932704809326048CE394E064
:10124000909329048093280485EC90E090932B04DC
:1012500080932A0484EC90E090932D0480932C04D6
:1012600080EC90E090932F0480932E0481EC90E02A
:10127000909331048093300482EC90E09093330497
:101280008093320486EC90E090933504809334048C
:1012900084E08093360483E08093370487E0809372
:1012A000380485E08093390481E080933A040895FE
:1012B000209106053091070528173907B9F4909158
:1012C000C4048091C504981789F0E091C404F0E04B
:1012D000EA53FB4F80812091C40430E02F5F3F4FE1
:1012E0002F7333272093C40490E008958FEF9FEF6E
:1012F000089520910605309107052817390781F4D4
:101300009091C4048091C504981751F0E091C404F1
:10131000F0E0EA53FB4F8081992787FD909508956F
:101320008FEF9FEF0895209106053091070528174C
:10133000390771F48091C5042091C40490E0805C69
:101340009F4F821B910960E470E00E94221B089568
:1013500080E090E008952091060530910705281758
:10136000390739F48FB7F8941092C5041092C40469
:101370008FBF0895DC015196ED91FC915297208129
:1013800050968C91809582238083089520E0019768
:101390002FEF8F3F9207D9F70895209106053091DE
:1013A00007052817390789F0FC01238D2E7F238F2D
:1013B0002FB7F8941092C5041092C40490930705B7
:1013C000809306052FBF81E0089580E00895EF9295
:1013D000FF920F931F93CF93DF93EC018B8DEE85DC
:1013E000FF859D8581FF04C08081892329F447C042
:1013F0008081892309F043C08B899C890E94C6099A
:1014000008E010E0EE24E394F12C8D899E890E947F
:10141000C609EE85FF8580819D85892311F0FE2810
:1014200003C08E2D8095F822EE0C01501109011594
:10143000110559F78F89988D0E94C6098B8D81FD02
:10144000F0948091C5042091C40490E001968F73BC
:10145000992730E08217930779F0E091C504F0E016
:10146000EA53FB4FF0828091C50490E001968F73A0
:1014700099278093C50403C08B8D81608B8FDF918A
:10148000CF911F910F91FF90EF900895611102C0CD
:101490000C94BA09DC015196ED91FC915297208190
:1014A00050968C91282B20830895DF92EF92FF9223
:1014B0000F931F93CF93DF93EC01E62E898D9A8DC6
:1014C000892B39F481E090E09B838A8380E090E06F
:1014D0004DC0DFB6F8946B8D66956170CE010E94A9
:1014E000460A898D9A8D04960E94C6098B8D08E064
:1014F00010E0FF24F39481FF19C08F2D8E2121F07D
:10150000CE010E94BA0904C061E0CE010E94460AE1
:10151000898D9A8D0E94C609FF0C01501109011591
:10152000110559F7CE010E94BA0919C08F2D8E21DD
:1015300029F061E0CE010E94460A03C0CE010E945C
:10154000BA09898D9A8D0E94C609FF0C01501109B4
:101550000115110559F761E0CE010E94460ADFBE70
:10156000898D9A8D0E94C60981E090E0DF91CF912C
:101570001F910F91FF90EF90DF90089580910605E5
:1015800090910705009711F00C94E70908951F92B8
:101590000F920FB60F9211242F933F934F935F93A7
:1015A0006F937F938F939F93AF93BF93EF93FF932B
:1015B0000E94BE0AFF91EF91BF91AF919F918F91D1
:1015C0007F916F915F914F913F912F910F900FBE3F
:1015D0000F901F9018951F920F920FB60F92112423
:1015E0002F933F934F935F936F937F938F939F932B
:1015F000AF93BF93EF93FF930E94BE0AFF91EF91C9
:10160000BF91AF919F918F917F916F915F914F911A
:101610003F912F910F900FBE0F901F9018951F9222
:101620000F920FB60F9211242F933F934F935F9316
:101630006F937F938F939F93AF93BF93EF93FF939A
:101640000E94BE0AFF91EF91BF91AF919F918F9140
:101650007F916F915F914F913F912F910F900FBEAE
:101660000F901F9018951F93CF93DF93EC01162FC7
:1016700061E0812F0E947F1461E0812F0E94B814E5
:10168000812F90E0FC01EA54FE4FE491E88BFC01CD
:10169000E653FE4FE491F0E0EE0FFF1FE851FE4FDE
:1016A000859194919A8B898BDF91CF911F910895A9
:1016B0001F93CF93DF93EC01162F60E0812F0E94E0
:1016C0007F148B8D81FD04C061E0812F0E94B814CE
:1016D0001C87812F90E0FC01EA54FE4FE491ED87D6
:1016E000FC01E653FE4FE491F0E0EE0FFF1FE252E3
:1016F000FE4F859194919F878E87DF91CF911F91A7
:101700000895FF920F931F93CF93DF93EC01F62E72
:10171000522F1B821A8208EE13E020E030E00C8387
:101720001D832E833F838AE193E0998388831C8AFB
:101730001B8A1E8A1D8A188E1F8A1A8E198E8B8DFF
:101740008E7F50FB81F98B8F642FCE010E94330B6B
:101750006F2DCE01DF91CF911F910F91FF900C94CF
:10176000580B0F931F93CF93DF93EC011A8E198EB2
:10177000188E1F8A1E8A1D8AA6E0B1E080E090E0E4
:10178000FD01059115912591349104171507260740
:10179000370709F031C02CE0289FF001299FF00D98
:1017A0001124E65FFE4F259134913C8B2B8B2CE06E
:1017B000289FF001299FF00D1124E45FFE4F259131
:1017C00034913E8B2D8B2CE0289FF001299FF00D4A
:1017D0001124E25FFE4F25913491388F2F8B2CE03E
:1017E000289FF001299FF00D1124E05FFE4F8591A5
:1017F00094919A8F898F08C001961C968D3091051F
:1018000009F0BECF1C8A1B8A8F89988D892B09F419
:1018100043C08C858631E0F520916800883050F017
:1018200091E08E3008F490E081E001C0880F9A9535
:10183000EAF701C084E0822B809368002C85283071
:1018400038F02E3040F0263148F0E0E0F0E008C0FB
:10185000EDE6F0E005C0EBE6F0E002C0ECE6F0E01B
:101860003081283030F481E001C0880F2A95EAF7F2
:101870000DC0822F90E02E3010F4089701C00E9713
:1018800091E001C0990F8A95EAF7892F832B808315
:10189000898D9A8D0E94C609CE01DF91CF911F914B
:1018A0000F910C94CD09FC014485463150F5483028
:1018B00028F04E3030F4EBE6F0E005C0EDE6F0E065
:1018C00002C0ECE6F0E05081483040F481E090E066
:1018D000042E01C0880F0A94EAF710C0242F30E0CC
:1018E0004E3018F42850310902C02E50310981E0E1
:1018F00090E0022E01C0880F0A94EAF780958523B4
:10190000808308952AE133E0FC01318320830C9425
:10191000530C0F931F93FC010FEF1FEF98010083EF
:1019200011832283338310861186128613864FEF2C
:1019300059EC6AE97BE3408B518B628B738B408F50
:10194000518F628F738F40A351A362A373A340A7EB
:1019500051A762A773A740AB51AB62AB73AB00AFAB
:1019600011AF22AF33AFDC01A05CBF4F8FEF90E02F
:1019700011969C938E9314960D931D932D933C93E7
:10198000139718960D931D932D933C9313971896C8
:101990001C9211961C92509682E08C9311961C9288
:1019A00011961C9211961C9211961D921D921D92D9
:1019B0001C921397149611961C921E9212961D92C9
:1019C0001C92EA5AFF4F10821F910F9108950F93B6
:1019D0001F93F9016115710569F0DC01A759BF4F2B
:1019E0000D911D912D913C91DB010D931D932D9334
:1019F0003C9313974115510541F0DC01A359BF4FAA
:101A00002D913C91DA012D933C93309739F0DC0114
:101A1000A159BF4F8D919C91918380831F910F910C
:101A200008952FEB260F862F992787FD9095263056
:101A300010F4C79708956156663018F487559109D8
:101A40000895C09708950F931F93FB0160E070E025
:101A5000CB01019120ED200F2A30A0F4AAE0B0E0E4
:101A60009B01AC010E945E1B112707FD1095212FE1
:101A7000312F600F711F821F931F605371098109FD
:101A80009109E7CF1F910F9108950F931F93CF9363
:101A9000FC01EA5AFF4FC1E020812D3219F0C0E06D
:101AA0008F0103C08C01095A1F4FB8010E94230DFA
:101AB0009B01AC01A4E6B0E00E945E1BF801DF01CF
:101AC000219130ED320F3A30D0F32E3269F5119674
:101AD0002C91119730ED320F3A3030F5332727FD36
:101AE0003095205331094AE0429F8001439F100DF9
:101AF0001124222717FD2095322F600F711F821F9E
:101B0000931F12960C9120ED200F2A3068F41127B4
:101B100007FD109500531109222717FD2095322F3C
:101B2000600F711F821F931FCC2339F09095809511
:101B3000709561957F4F8F4F9F4FCF911F910F9160
:101B400008954F925F926F927F928F929F92AF9281
:101B5000BF92CF92DF92EF92FF92CF93DF93EC018F
:101B6000CA5ADF4FBE010E94230D2B013C0124E61F
:101B700030E040E050E00E94361B9B01AC0160EA7F
:101B800076E881E090E00E94121B6B017C01FE016F
:101B9000819190ED980F9A30D8F38E3219F5EF01BC
:101BA00080E1882E87E2982EA12CB12CA99180ED9E
:101BB0008A0F8A30B8F4BB27A7FDB095D097A5014E
:101BC00094010E94691BC60ED71EE81EF91EC501AE
:101BD000B4012AE030E040E050E00E94361B4901A9
:101BE0005A01E4CFC701B6016D5F7F4F8F4F9F4F02
:101BF00026E030E040E050E00E94361B69017A01A7
:101C0000C301B20124E630E040E050E00E94361B00
:101C100060E472E48FE090E00E94121BC60ED71EB3
:101C2000E81EF91EC701B601DF91CF91FF90EF903A
:101C3000DF90CF90BF90AF909F908F907F906F90EC
:101C40005F904F900895DB01FA018D91882319F080
:101C500091918917D1F3992787FD90950895CF9297
:101C6000DF92EF92FF921F93CF93DF93EC01FC0181
:101C7000EB5AFF4F1081112309F4A9C031966081FE
:101C80000E94110D182FFE01E95AFF4F6081CE010D
:101C90000E94110D40E1149F800D1124FE01EC5AA9
:101CA000FF4F908189138AC074961081112309F423
:101CB00058C1359680819181019691838083B59733
:101CC00080819181A281B381349780839183A283A3
:101CD000B3833C9680819181A281B38134978083C4
:101CE0009183A283B383799680818823A1F1813087
:101CF00009F037C18C819D81AE81BF818883998332
:101D0000AA83BB838C859D85AE85BF85888799878F
:101D1000AA87BB878C899D89AE89BF89888B998B5F
:101D2000AA8BBB8B8C8D9D8DAE8DBF8D888F998F2F
:101D3000AA8FBB8F8CA59DA5AEA5BFA588A799A787
:101D4000AAA7BBA78CA99DA9AEA9BFA988AB99AB2F
:101D5000AAABBBAB06C18CA19DA1AEA1BFA188A3BC
:101D600099A3AAA3BBA38C819D81AE81BF818883E7
:101D70009983AA83BB838C899D89AE89BF89888B0F
:101D8000998BAA8BBB8B8C8D9D8DAE8DBF8D888FD3
:101D9000998FAA8FBB8FFE01E05CFF4FDE01AE5B27
:101DA000BF4F8D919C91918380838CAD9DADAEADE5
:101DB000BFAD88AF99AFAAAFBBAFD3C0C159DF4F9A
:101DC0008881998101969983888310E0CAC0FC01BB
:101DD000EA59FF4F30818B599F4F7C0131111DC053
:101DE0006E0196E5C90ED11C46E253E0B601CE0164
:101DF0000E94230E892B11F481E00CC04CE253E0C9
:101E0000B601CE010E94230E892B19F4F70110822E
:101E1000A8C082E0D7018C93A4C0DC01EC91E23031
:101E200009F49FC0CE018A5A9F4FDC012C912223D6
:101E300009F497C0B0E2EB9FF0011124E32B319736
:101E4000E932F10508F08DC0EC5CFF4F0C94581B93
:101E5000CE010E94450D6C837D838E839F830E94FB
:101E60000E05C85BDF4F12C0C859DF4F81E0213437
:101E700009F05DC05DC0CE010E94A10D6C8B7D8B11
:101E80008E8B9F8B0E940E05C05BDF4F688379832A
:101E90008A839B8366C0233509F063C08C899D8942
:101EA000AE89BF89B095A095909581959F4FAF4F12
:101EB000BF4F8C8B9D8BAE8BBF8B53C0CE010E94CE
:101EC000A10D6C8F7D8F8E8F9F8F4BC0273509F0B2
:101ED00048C08C8D9D8DAE8DBF8DB095A095909591
:101EE00081959F4FAF4FBF4F8C8F9D8FAE8FBF8F10
:101EF00038C0CE010E94450D6CA77DA78EA79FA775
:101F000030C0CE010E94450D6CAB7DAB8EAB9FAB5C
:101F100028C0BC01CE010E94230D6C877D878E876F
:101F20009F871FC0C859DF4F81E021330CF480E048
:101F3000888317C00E94EE14CE5BDF4F99279983E8
:101F400088830FC0CE010E94450D6CAF7DAF8EAF70
:101F50009FAF07C0CE010E94450D6CA37DA38EA349
:101F60009FA3812FDF91CF911F91FF90EF90DF9082
:101F7000CF900895CF92DF92EF92FF920F931F932D
:101F8000CF93DF931F92CDB7DEB76C01262FFC01F4
:101F9000E759FF4F40815181628173814F5F5F4FED
:101FA0006F4F7F4F40835183628373838C01095944
:101FB0001F4F8B5A9F4F7C01243281F12CF42A3021
:101FC00069F02D30E9F50AC02A3241F02C32C1F512
:101FD000F601EC5AFF4F808182278083F8018081CF
:101FE0008F3060F4F601E80FF11DEA5AFF4F1082BE
:101FF000C60129830E942F0E298101C080E0F601CD
:10200000EA59FF4F90819F5F9083F801108291E021
:102010002A3209F090E0F70190832AC0F80110827B
:10202000F601EA59FF4F108272971082719682E092
:102030008083F7011082F601E859FF4F108217C024
:10204000F80180818E3048F491E0980F9083F6017A
:10205000E80FF11DEA5AFF4F2083F70180818111BB
:1020600006C0F601EC5AFF4F80818227808380E012
:102070000F90DF91CF911F910F91FF90EF90DF9024
:10208000CF9008954F925F926F927F928F929F921E
:10209000AF92BF92CF92DF92EF92FF920F931F9376
:1020A000CF93DF93CDB7DEB760970FB6F894DEBF5E
:1020B0000FBECDBF69837A838B839C83CA01B9012C
:1020C00027013801A60195010E94401525E33AEF4A
:1020D0004EE85CE30E94C2176B017C010E94251848
:1020E0006D877E878F87988BC701B6010E940B167C
:1020F0006D837E838F83988725E33AEF4EE85CE318
:1021000069817A818B819C810E94C2176B017C015D
:1021100025E33AEF4EE85CE3C301B2010E94C21727
:102120002B013C01C701B6010E9425184B015C013F
:10213000C701B6010E940B1669837A838B839C8347
:10214000C301B2010E94251869877A878B879C8713
:10215000C301B2010E940B166B017C0129853A85EF
:102160004B855C8569817A818B819C810E94C21735
:102170002B013C01A7019601C501B4010E94C217C1
:102180002D813E814F8158850E94C2179B01AC0171
:10219000C301B2010E9440159B01AC010E94C2170D
:1021A0002B013C012D853E854F855889C701B6011D
:1021B0000E94C2179B01AC010E94C2179B01AC0197
:1021C000C301B2010E9441150E942F182B013C014E
:1021D00029853A854B855C85C501B4010E94C217EB
:1021E0004B015C01A701960169817A818B819C81F9
:1021F0000E94C2172D813E814F8158850E94C217CF
:102200009B01AC01C501B4010E9441159B01AC01C9
:10221000C301B2010E94B41526E73BE742EC5AE441
:102220000E94C21760960FB6F894DEBF0FBECDBFF6
:10223000DF91CF911F910F91FF90EF90DF90CF90A2
:10224000BF90AF909F908F907F906F905F904F90D6
:1022500008954F925F926F927F928F929F92AF926A
:10226000BF92CF92DF92EF92FF920F931F93CF9383
:10227000DF93CDB7DEB72C970FB6F894DEBF0FBE55
:10228000CDBF69837A838B839C83ED82FE820F832B
:102290001887C601B5010E94401525E33AEF4EE8C4
:1022A0005CE30E94C2172B013C0125E33AEF4EE8A4
:1022B0005CE369817A818B819C810E94C2174B010A
:1022C0005C0125E33AEF4EE85CE3C801B7010E94E8
:1022D000C2176B017C01C301B2010E9425186D83F6
:1022E0007E838F839887C701B6010E940B1669838E
:1022F0007A838B839C83C501B4010E94251869876A
:102300007A878B879C87C301B2010E940B162B0131
:102310003C0129813A814B815C8169857A858B8575
:102320009C850E94C217A30192010E94C2172B0133
:102330003C01C501B4010E940B164B015C01C701B1
:10234000B6010E9425189B01AC01C501B4010E9491
:10235000C217A30192010E9440156B017C012981E3
:102360003A814B815C816D817E818F8198850E944D
:10237000C217A70196010E94B4156B017C0120E0F1
:1023800030E0A9010E94071687FF0AC02BED3FE04D
:1023900049EC50E4C701B6010E9441156B017C0174
:1023A00021EE3EE245E652E4C701B6010E94C217A3
:1023B0002C960FB6F894DEBF0FBECDBFDF91CF9144
:1023C0001F910F91FF90EF90DF90CF90BF90AF9053
:1023D0009F908F907F906F905F904F90089520E036
:1023E00030E044E351E40E94411520E030E044EB4A
:1023F00051E40E940E160E947616CB0160E170E057
:102400000E94221B880F991F8A5A9C4FFC018081D1
:1024100091810895CF92DF92EF92FF920F931F93D5
:10242000CF93DF93E9016115710551F0FC01C0887C
:10243000D188E288F388FB01C082D182E282F382F4
:102440004115510551F0FC01C08CD18CE28CF38C0C
:10245000FA01C082D182E282F382209701F18C01DD
:10246000045B1F4FF80180819181A281B3818F3F6E
:102470009F4FAF4FBF4F61F00E940E05F8010081E2
:10248000118122813381601B710B820B930B03C07E
:102490006FEF7FEFCB01688379838A839B83DF9122
:1024A000CF911F910F91FF90EF90DF90CF90089503
:1024B000CF92DF92EF92FF920F931F93CF93DF9310
:1024C000E9016115710551F0FC01C084D184E284F9
:1024D000F384FB01C082D182E282F382411551056F
:1024E00051F0FC01C080D180E280F380FA01C0820B
:1024F000D182E282F382209701F18C010C5B1F4FA5
:10250000F80180819181A281B3818F3F9F4FAF4FAE
:10251000BF4F61F00E940E05F801008111812281F8
:102520003381601B710B820B930B03C06FEF7FEF46
:10253000CB01688379838A839B83DF91CF911F913D
:102540000F91FF90EF90DF90CF900895AF92BF92E0
:10255000CF92DF92EF92FF920F931F93CF93DF936F
:10256000CDB7DEB728970FB6F894DEBF0FBECDBF4C
:102570005B018A01AE014F5F5F4FBE016B5F7F4F12
:102580000E940A12CD80DE80EF80F8848FEFC8169B
:1025900089ECD8068AE9E8068BE3F80659F0C7010A
:1025A000B6010E94A91620E034E244E759E40E94F3
:1025B0000E1604C060E070E08AE794E4F5016083E1
:1025C000718382839383FFEFCF16F9ECDF06FAE97C
:1025D000EF06FBE3FF0669F069817A818B819C81BC
:1025E0000E94A91620E034E244E759E40E940E1646
:1025F00004C060E070E08AE794E4F80160837183CE
:102600008283938328960FB6F894DEBF0FBECDBFAA
:10261000DF91CF911F910F91FF90EF90DF90CF90BE
:10262000BF90AF9008952F923F924F925F926F921A
:102630007F928F929F92AF92BF92CF92DF92EF9252
:10264000FF920F931F93CF93DF93CDB7DEB72A97F7
:102650000FB6F894DEBF0FBECDBF2B015A87498756
:1026600019019401AE014F5F5F4FBE016B5F7F4F59
:102670000E94581241145104B9F06D817E818F81FE
:10268000988524E630E040E050E00E94361B61353A
:1026900071051CF02CE637E002C020ED37E0620F38
:1026A000731FF2017183608389859A85892BB1F04C
:1026B0006D817E818F81988544E6442E512C612C5A
:1026C000712CA30192010E94361BCA01B901A3011A
:1026D00092010E94361BE985FA856083211431043A
:1026E00061F06D817E818F81988520E137E240E045
:1026F00050E00E94361BF10120830115110561F0A5
:1027000069817A818B819C8120E432E44FE050E042
:102710000E94361BF8012083E114F104A1F06981C5
:102720007A818B819C8120E137E240E050E00E9479
:10273000361BCA01B90124E630E040E050E00E94B7
:10274000361BF7016083C114D104A9F069817A8135
:102750008B819C8134E6432E512C612C712CA3017A
:1027600092010E94361BCA01B901A30192010E9485
:10277000361BF6016083A114B10461F069817A818E
:102780008B819C8124E630E040E050E00E94361BC3
:10279000F50160832A960FB6F894DEBF0FBECDBF59
:1027A000DF91CF911F910F91FF90EF90DF90CF902D
:1027B000BF90AF909F908F907F906F905F904F9061
:1027C0003F902F900895FC0160A171A182A193A177
:1027D0006F3FF9EC7F07FAE98F07FBE39F0749F0AA
:1027E0000E94A91620E030E048EC52E40E940E1648
:1027F000089560E074E284E799E40895FC0160A91B
:1028000071A982A993A96F3FF9EC7F07FAE98F07B5
:10281000FBE39F0749F00E94A71620E030E048EC58
:1028200052E40E940E16089560E070E08AE794E496
:102830000895FC0160A571A582A593A56F3FF9ECF1
:102840007F07FAE98F07FBE39F0749F00E94A7166D
:1028500020E030E048EC52E40E940E16089560E05B
:1028600070E080E89FEB0895CF92DF92EF92FF92A5
:102870000E9419146B017C0120E030E040E85FEB1E
:102880000E940716882349F026E53EE04DEE5FE3FF
:10289000C701B6010E94C21704C060E070E080E882
:1028A0009FEBFF90EF90DF90CF900895833081F001
:1028B00028F4813099F08230A1F008958630A9F093
:1028C0008730B9F08430D1F4809180008F7D03C0CF
:1028D000809180008F7780938000089584B58F77F2
:1028E00002C084B58F7D84BD08958091B0008F773C
:1028F00003C08091B0008F7D8093B0000895CF9386
:10290000DF9390E0FC01EA54FE4F2491FC01E65372
:10291000FE4F8491882349F190E0880F991FFC01B4
:10292000EE50FE4FA591B49188519E4FFC01C59188
:10293000D4919FB7611108C0F8948C91209582239F
:102940008C93888182230AC0623051F4F8948C9170
:10295000322F309583238C938881822B888304C007
:10296000F8948C91822B8C939FBFDF91CF91089527
:102970000F931F93CF93DF931F92CDB7DEB7282F0E
:1029800030E0F901EE55FE4F8491F901EA54FE4F13
:102990001491F901E653FE4F04910023C9F08823F6
:1029A00021F069830E9456146981E02FF0E0EE0F58
:1029B000FF1FE851FE4FA591B4919FB7F8948C91F9
:1029C000611103C01095812301C0812B8C939FBF9F
:1029D0000F90DF91CF911F910F910895FC018827EF
:1029E0009927E89421912032E9F3293010F02E3014
:1029F000C8F32B3241F02D3239F4689404C00E94A0
:102A00001615820F911D219120532A30C0F31EF418
:102A1000909581959F4F0895F8940C94CB1BFB01E2
:102A2000DC0101900D920020E1F708957AE0979F74
:102A3000902D879F802D910D11240895AEE0B0E078
:102A4000E4E2F5E10C947F1B0D891E8986E08C83FE
:102A50001A8309838FEF9FE79E838D83AE01475EC4
:102A60005F4F6F89788DCE0101960E947418EF81B7
:102A7000F885E00FF11F10822E96E4E00C949B1B6A
:102A80005058BB27AA270ED027C2F0D130F0F5D17D
:102A900020F031F49F3F11F41EF4C0C10EF4E09514
:102AA000E7FBB6C1E92F3AD280F3BA176207730782
:102AB0008407950718F071F49EF552C20EF4E09564
:102AC0000B2EBA2FA02D0B01B90190010C01CA01E8
:102AD000A0011124FF27591B99F0593F50F4503E93
:102AE00068F11A16F040A22F232F342F4427585F85
:102AF000F3CF469537952795A795F0405395C9F79D
:102B00007EF41F16BA0B620B730B840BBAF0915054
:102B1000A1F0FF0FBB1F661F771F881FC2F70EC0F3
:102B2000BA0F621F731F841F48F4879577956795C6
:102B3000B795F7959E3F08F0B3CF9395880F08F0AF
:102B40009927EE0F97958795089590D158F080E8D2
:102B500091E009F49EEF91D128F040E851E059F45A
:102B60005EEF09C05BC1FCC1E92FE078D7D168F303
:102B7000092E052AC1F3261737074807590738F0E9
:102B80000E2E07F8E02569F0E025E0640AC0EF6347
:102B900007F8009407FADB01B9019D01DC01CA01C5
:102BA000AD01EF934AD098D10AD05F91552331F00F
:102BB0002BED3FE049E450FD49EC63CF0895DF93EE
:102BC000DD27B92FBF7740E85FE3161617064807E1
:102BD0005B0710F4D92FCFD19F938F937F936F937F
:102BE0007CD2EAEBF0E01DD177D12F913F914F914C
:102BF0005F91D4D1DD2349F09058A2EA2AED3FE05D
:102C000049EC5FE3D0785D274DDFDF9165C1DCD013
:102C100008F481E0089539D1E3956FC10CD05CC10F
:102C20002CD140F023D130F021F45F3F19F0F0C0F7
:102C3000511197C1F3C072D198F39923C9F3552369
:102C4000B1F3951B550BBB27AA276217730784079F
:102C500038F09F5F5F4F220F331F441FAA1FA9F355
:102C600033D00E2E3AF0E0E830D091505040E69547
:102C7000001CCAF729D0FE2F27D0660F771F881FA8
:102C8000BB1F261737074807AB07B0E809F0BB0B97
:102C9000802DBF01FF2793585F4F2AF09E3F5105BB
:102CA00068F0B6C05EC15F3FECF3983EDCF38695FA
:102CB00077956795B795F7959F5FC9F7880F911D31
:102CC0009695879597F90895E1E0660F771F881F1D
:102CD000BB1F621773078407BA0720F0621B730BD0
:102CE000840BBA0BEE1F88F7E095089504D0689422
:102CF000B11137C108951AD188F09F5790F0B92FBC
:102D00009927B751A0F0D1F0660F771F881F991F40
:102D10001AF0BA95C9F712C0B13081F021D1B1E0F3
:102D200008951EC1672F782F8827B85F39F0B93F03
:102D3000CCF3869577956795B395D9F73EF4909542
:102D40008095709561957F4F8F4F9F4F0895E894C0
:102D500009C097FB3EF490958095709561957F4FE3
:102D60008F4F9F4F9923A9F0F92F96E9BB27939591
:102D7000F695879577956795B795F111F8CFFAF4A1
:102D8000BB0F11F460FF1BC06F5F7F4F8F4F9F4FD2
:102D900016C0882311F096E911C0772321F09EE830
:102DA000872F762F05C0662371F096E8862F70E096
:102DB00060E02AF09A95660F771F881FDAF7880F70
:102DC0009695879597F90895990F0008550FAA0BC6
:102DD000E0E8FEEF16161706E807F907C0F012162E
:102DE0001306E407F50798F0621B730B840B950B31
:102DF00039F40A2661F0232B242B252B21F4089586
:102E00000A2609F4A140A6958FEF811D811D089522
:102E100097F99F6780E870E060E008959FEF80EC8D
:102E20000895DF93CF931F930F93FF92EF92DF925A
:102E30007B018C01689405C0DA2EEF01AFD0FE0152
:102E4000E894A5912591359145915591AEF3EF0107
:102E500029DEFE019701A801DA9479F7DF90EF905F
:102E6000FF900F911F91CF91DF91089500240A9454
:102E70001616170618060906089500240A94121655
:102E80001306140605060895C9CF50D0E8F3E89458
:102E9000E0E0BB279F57F0F02AED3FE049EC06C089
:102EA000EE0FBB0F661F771F881F28F0B23A62072C
:102EB0007307840728F0B25A620B730B840BE395F7
:102EC0009A9572F7803830F49A95BB0F661F771F7A
:102ED000881FD2F7904882C3092E0394000C11F486
:102EE000882352F0BB0F40F4BF2B11F460FF04C0E5
:102EF0006F5F7F4F8F4F9F4F0895EF93E0FF06C0A6
:102F0000A2EA2AED3FE049EC5FEBCCDDE5DF0F9074
:102F1000039401FC9058E7EEF0E073C357FD90581E
:102F2000440F551F59F05F3F71F04795880F97FB8D
:102F3000991F61F09F3F79F0879508951216130647
:102F40001406551FF2CF4695F1DF08C01616170676
:102F50001806991FF1CF86957105610508940895AB
:102F6000E894BB2766277727CB0197F908952CDFD4
:102F700008F48FEF08959B01AC0160E070E080E8F9
:102F80009FE34CCE0BD0A8CF71DF28F076DF18F08E
:102F9000952309F03DCF42CF1124E3CFBFDFA0F34B
:102FA000959FD1F3950F50E0551F629FF001729FDE
:102FB000BB27F00DB11D639FAA27F00DB11DAA1FFD
:102FC000649F6627B00DA11D661F829F2227B00D4A
:102FD000A11D621F739FB00DA11D621F839FA00DD5
:102FE000611D221F749F3327A00D611D231F849F25
:102FF000600D211D822F762F6A2F11249F5750407C
:103000008AF0E1F088234AF0EE0FFF1FBB1F661F16
:10301000771F881F91505040A9F79E3F510570F0CF
:10302000F7CE9FCF5F3FECF3983EDCF38695779524
:103030006795B795F795E7959F5FC1F7FE2B880FCA
:10304000911D9695879597F908959F931EDF0F9090
:1030500007FCEE5F52CF11F40EF4E0CEBDC266DF86
:10306000D0F39923D9F3CEF39F57550B87FFC2D2E4
:103070000024A0E640EA900180585695979528F4E0
:10308000805C660F771F881F20F0261737074807D8
:1030900030F4621B730B840B202931294A2BA6952F
:1030A00017940794202531254A2758F7660F771F74
:1030B000881F20F026173707480730F4620B730B80
:1030C000840B200D311D411DA09581F7B901842F7E
:1030D0009158880F9695879508959B01AC0152CF22
:1030E00073DE880B990B0895ACE0B0E0EAE7F8E1F5
:1030F0000C94711B7C016B018A01FC011782168202
:10310000838181FFBDC1CE0101964C01F7019381FE
:10311000F60193FD859193FF81916F01882309F456
:10312000ABC1853239F493FD859193FF81916F0195
:10313000853229F4B70190E00E945C1AE7CF512C48
:10314000312C20E02032A0F48B3269F030F4803250
:1031500059F0833269F420612CC08D3239F080330C
:1031600039F4216026C02260246023C0286021C079
:1031700027FD27C030ED380F3A3078F426FF06C01F
:10318000FAE05F9E300D1124532E13C08AE0389E62
:10319000300D1124332E20620CC08E3221F426FD16
:1031A0006BC1206406C08C3611F4206802C08836DA
:1031B00041F4F60193FD859193FF81916F01811197
:1031C000C1CF982F9F7D9554933028F40C5F1F4FEB
:1031D000FFE3F9830DC0833631F0833771F0833517
:1031E00009F05BC022C0F801808189830E5F1F4F08
:1031F00044244394512C540115C03801F2E06F0E61
:10320000711CF801A080B18026FF03C0652D70E01D
:1032100002C06FEF7FEFC5012C870E94511A2C016D
:1032200083012C852F77222E17C03801F2E06F0E14
:10323000711CF801A080B18026FF03C0652D70E0ED
:1032400002C06FEF7FEFC5012C870E94461A2C0148
:103250002C852068222E830123FC1BC0832D90E047
:1032600048165906B0F4B70180E290E00E945C1A5B
:103270003A94F4CFF50127FC859127FE81915F01F7
:10328000B70190E00E945C1A31103A94F1E04F1AB5
:1032900051084114510471F7E5C0843611F08936A4
:1032A00039F5F80127FF07C0608171818281938120
:1032B0000C5F1F4F08C060817181882777FD809562
:1032C000982F0E5F1F4F2F76B22E97FF09C0909553
:1032D0008095709561957F4F8F4F9F4F2068B22EDC
:1032E0002AE030E0A4010E948E1AA82EA81844C03B
:1032F000853729F42F7EB22E2AE030E025C0F22F48
:10330000F97FBF2E8F36C1F018F4883579F0B4C03C
:10331000803719F0883721F0AFC02F2F2061B22EEF
:10332000B4FE0DC08B2D8460B82E09C024FF0AC0E6
:103330009F2F9660B92E06C028E030E005C020E13E
:1033400030E002C020E132E0F801B7FE07C0608142
:103350007181828193810C5F1F4F06C060817181F2
:1033600080E090E00E5F1F4FA4010E948E1AA82EED
:10337000A818FB2DFF77BF2EB6FE0BC02B2D2E7F7E
:10338000A51450F4B4FE0AC0B2FC08C02B2D2E7E4A
:1033900005C07A2C2B2D03C07A2C01C0752C24FF7C
:1033A0000DC0FE01EA0DF11D8081803311F4297EEC
:1033B00009C022FF06C07394739404C0822F8678DC
:1033C00009F0739423FD13C020FF06C05A2C731418
:1033D00018F4530C5718732C731468F4B70180E277
:1033E00090E02C870E945C1A73942C85F5CF73149F
:1033F00010F4371801C0312C24FF12C0B70180E34C
:1034000090E02C870E945C1A2C8522FF17C021FFB8
:1034100003C088E590E002C088E790E0B7010CC0E7
:10342000822F867859F021FD02C080E201C08BE234
:1034300027FD8DE2B70190E00E945C1AA51438F4D4
:10344000B70180E390E00E945C1A5A94F7CFAA94E7
:10345000F401EA0DF11D8081B70190E00E945C1A31
:10346000A110F5CF332009F451CEB70180E290E0EE
:103470000E945C1A3A94F6CFF7018681978102C0C8
:103480008FEF9FEF2C96E2E10C948D1BFC010590D1
:10349000615070400110D8F7809590958E0F9F1F56
:1034A0000895FC016150704001900110D8F780959B
:1034B00090958E0F9F1F08950F931F93CF93DF93C7
:1034C000182F092FEB018B8181FD03C08FEF9FEF38
:1034D00020C082FF10C04E815F812C813D81421748
:1034E00053077CF4E881F9819F012F5F3F4F3983B7
:1034F0002883108306C0E885F985812F0995892BDB
:1035000029F72E813F812F5F3F4F3F832E83812FED
:10351000902FDF91CF911F910F910895FA01AA2763
:10352000283051F1203181F1E8946F936E7F6E5F06
:103530007F4F8F4F9F4FAF4FB1E03ED0B4E03CD0B4
:10354000670F781F891F9A1FA11D680F791F8A1F97
:10355000911DA11D6A0F711D811D911DA11D20D0FE
:1035600009F468943F912AE0269F11243019305DB8
:103570003193DEF6CF010895462F4770405D4193A9
:10358000B3E00FD0C9F7F6CF462F4F70405D4A33F6
:1035900018F0495D31FD4052419302D0A9F7EACFBE
:1035A000B4E0A6959795879577956795BA95C9F7ED
:1035B00000976105710508959B01AC010A2E0694E0
:1035C0005795479537952795BA95C9F7620F731F99
:1035D000841F951FA01D08959F3F31F0915020F446
:1035E000879577956795B795880F911D96958795DF
:1035F00097F9089591505040660F771F881FD2F7B2
:1036000008959F938F937F936F93FF93EF939B0105
:10361000AC01B8DCEF91FF9104DC2F913F914F9109
:103620005F91B0CCDB018F939F930E945E1BBF9193
:10363000AF91A29F800D911DA39F900DB29F900D01
:103640001124089597FB072E16F4009407D077FDF8
:1036500009D00E94A81B07FC05D03EF490958195E7
:103660009F4F0895709561957F4F0895A1E21A2E9E
:10367000AA1BBB1BFD010DC0AA1FBB1FEE1FFF1F16
:10368000A217B307E407F50720F0A21BB30BE40B66
:10369000F50B661F771F881F991F1A9469F76095AD
:1036A0007095809590959B01AC01BD01CF01089567
:1036B000EE0FFF1F0590F491E02D09940E94BC1BB2
:1036C000A59F900DB49F900DA49F800D911D112476
:1036D0000895B7FF0C945E1B0E945E1B821B930B28
:1036E00008952F923F924F925F926F927F928F92A6
:1036F0009F92AF92BF92CF92DF92EF92FF920F9381
:103700001F93CF93DF93CDB7DEB7CA1BDB0B0FB68A
:10371000F894DEBF0FBECDBF09942A883988488847
:103720005F846E847D848C849B84AA84B984C884DD
:10373000DF80EE80FD800C811B81AA81B981CE0FD4
:10374000D11D0FB6F894DEBF0FBECDBFED010895B9
:10375000AA1BBB1B51E107C0AA1FBB1FA617B707B7
:1037600010F0A61BB70B881F991F5A95A9F78095D3
:103770009095BC01CD010895A29FB001B39FC001F7
:10378000A39F700D811D1124911DB29F700D811D8D
:103790001124911D089512E0C0E0D2E004C0FE01A2
:1037A0000E945A1B2296C230D107C9F7F894FFCF66
:1037B00054657374696E672054696E79475053205D
:1037C0006C69627261727920762E20006279204DD8
:1037D000696B616C20486172740053617473204896
:1037E000444F50204C6174697475646520204C6F9F
:1037F0006E6769747564652020466978202044618D
:1038000074652020202020202054696D6520202010
:1038100020204461746520416C7420202020436F77
:10382000757273652053706565642043617264200E
:103830002044697374616E636520436F75727365AC
:103840002043617264202043686172732053656E67
:1038500074656E63657320436865636B73756D0093
:103860002020202020202020202028646567292077
:103870002020202028646567292020202020204146
:1038800067652020202020202020202020202020AC
:1038900020202020202020204167652020286D291D
:1038A000202020202D2D2D2066726F6D2047505333
:1038B000202D2D2D2D20202D2D2D2D20746F204CD1
:1038C0006F6E646F6E20202D2D2D2D2020525820DC
:1038D00020202052582020202020202020466169CE
:1038E0006C002D2D2D2D2D2D2D2D2D2D2D2D2D2DF6
:1038F0002D2D2D2D2D2D2D2D2D2D2D2D2D2D2D2DF8
:103900002D2D2D2D2D2D2D2D2D2D2D2D2D2D2D2DE7
:103910002D2D2D2D2D2D2D2D2D2D2D2D2D2D2D2DD7
:103920002D2D2D2D2D2D2D2D2D2D2D2D2D2D2D2DC7
:103930002D2D2D2D2D2D2D2D2D2D2D2D2D2D2D2DB7
:103940002D2D2D2D2D2D2D2D2D2D2D2D2D2D2D2DA7
:103950002D2D2D2D2D2D2D2D2D2D2D2D2D2D2D2D97
:103960002D2D2D2D2D2D2D002A2A2A2A2A2A2A00F6
:10397000256C64002A2A2A2A2A2A2A2A2A2A202A64
:103980002A2A2A2A2A2A2A2000253032642F253082
:1039900032642F2530326420253032643A253032AB
:1039A000643A2530326420006E616E00696E6600F4
:1039B0006F7666002E0000000000CB0755057707E4
:1039C000A0078707C00700000000550A55059309A6
:1039D00058097909AB094750524D430047504747B2
:1039E00041004E004E4E4500454E450045534500B2
:1039F0005353450053005353570057535700574EE6
:103A000057004E4E570032033403390338033A034C
:103A10003C033D0340034403460347034A03540366
:103A20004E0353035203000080BF0024744900007A
:023A30007A44D6
:00000001FF
