:100000000C94DB000C9403010C9403010C94D606B1
:100010000C94FA060C941E070C9403010C94030133
:100020000C9403010C9403010C9403010C94030140
:100030000C9403010C9403010C9403010C94030130
:100040000C94E2010C9403010C9418040C945B04CE
:100050000C9403010C9403010C9403010C94030110
:100060000C9403010C9403010D0B200B300B430B7C
:100070004B0B770B7F0B870B8F0B960B960B960B0F
:10008000960B960B960B960B960B960B960B960B68
:10009000960B960B960B960B960B960B960B960B58
:1000A000960B960B960B960B0D0B190B200B300B2A
:1000B000430B4B0B5E0B660B6E0B00C20100010085
:1000C00005000500030000E1000001000F000F0023
:1000D0000D0000960000020019001A001700127AA5
:1000E00000000700200021001D00807000000B00B0
:1000F000230023002000004B0000140037003700CD
:100100003400403800001E004B004B0048008025A2
:1001100000003200720072007000C01200006E0019
:10012000E900E900E60060090000E500D801D80117
:10013000D501B0040000D301B403B403B1035802E5
:100140000000B4036707670762072C010000670718
:10015000DD0EDD0EDA0E00000007000201000003D4
:100160000406000000000000000001020408102046
:100170004080010204081020010204081020040439
:10018000040404040404020202020202030303033F
:1001900003030000000023002600290000000000E7
:1001A000250028002B0000000000240027002A0062
:1001B00015011105200111241FBECFEFD8E0DEBFCD
:1001C000CDBF11E0A0E0B1E0EAE2FDE102C00590A0
:1001D0000D92A636B107D9F722E0A6E6B1E001C03C
:1001E0001D92AC3EB207E1F711E0C4EBD1E004C0D0
:1001F0002297FE010E944E0EC03BD107C9F70E9414
:1002000079030C94FB0D0C94000040E052EC61E08B
:1002100070E08EEF91E00E94960440EC52E160E0C5
:1002200070E086E691E00C94C00782E891E00E94BD
:10023000980820E042E063E086E691E00C949007A5
:1002400086E691E00C9491088F929F92AF92BF92B4
:10025000CF92DF92EF92FF926B017C010E942C0201
:100260004B015C0186E691E00E94A205892B51F0CA
:1002700086E691E00E946705682F82E891E00E947F
:100280009F0BF0CF0E942C02681979098A099B09FB
:100290006C157D058E059F0528F3FF90EF90DF908C
:1002A000CF90BF90AF909F908F9008958F929F9224
:1002B000AF92BF92CF92DF92EF92FF920F931F9374
:1002C000CF93DF93CDB7DEB72C970FB6F894DEBF90
:1002D0000FBECDBFCE0101964C0106965C01019682
:1002E0006C0101967C018E01065F1F4F9E01255F08
:1002F0003F4FAE01445F5F4FBE016B5F7F4F82E8AF
:1003000091E00E94750C89819A81AB81BC818F3FFD
:100310009F4FAF4FBF4F39F460E071E08EEF91E037
:100320000E94B1022CC0EB84F12C0C8510E063E13B
:1003300071E08EEF91E00E94B1024AE050E0B70117
:100340008EEF91E00E94710363E171E08EEF91E026
:100350000E94B1024AE050E0B8018EEF91E00E94A5
:10036000710363E171E08EEF91E00E94B1026D8153
:100370007E814AE050E08EEF91E00E9471036AE0D6
:1003800070E080E090E00E9424018EEF91E00E94F6
:10039000BA0268EE73E080E090E00E9424012C969F
:1003A0000FB6F894DEBF0FBECDBFDF91CF911F9186
:1003B0000F91FF90EF90DF90CF90BF90AF909F9004
:1003C0008F9008951F920F920FB60F9211242F93C2
:1003D0003F938F939F93AF93BF938091F60190913A
:1003E000F701A091F801B091F9013091F50126E0F3
:1003F000230F2D3720F40296A11DB11D05C029E859
:10040000230F0396A11DB11D2093F5018093F601E2
:100410009093F701A093F801B093F9018091FA014C
:100420009091FB01A091FC01B091FD010196A11DED
:10043000B11D8093FA019093FB01A093FC01B0934E
:10044000FD01BF91AF919F918F913F912F910F909F
:100450000FBE0F901F9018952FB7F8946091F6017A
:100460007091F7018091F8019091F9012FBF0895E3
:10047000789484B5826084BD84B5816084BD85B57F
:10048000826085BD85B5816085BDEEE6F0E0808146
:1004900081608083E1E8F0E0108280818260808367
:1004A000808181608083E0E8F0E0808181608083EA
:1004B000E1EBF0E0808184608083E0EBF0E080811C
:1004C00081608083EAE7F0E08081846080838081BE
:1004D0008260808380818160808380818068808366
:1004E0001092C1000895CF92DF92EF92FF920F9386
:1004F0001F93CF93DF936C017A01EB01E60EF71E99
:1005000000E010E0CE15DF0561F06991D601ED91B4
:10051000FC910190F081E02DC6010995080F191F8B
:10052000F1CFC801DF91CF911F910F91FF90EF9014
:10053000DF90CF9008956115710581F0DB010D907A
:100540000020E9F7AD0141505109461B570BDC0172
:10055000ED91FC910280F381E02D099480E090E020
:1005600008950C949B02DC01ED91FC910190F081C7
:10057000E02D09940F931F93CF93DF93EC016DE06F
:100580000E94B3028C016AE0CE010E94B302800F88
:10059000911FDF91CF911F910F9108958F929F929C
:1005A000AF92BF92CF92DF92EF92FF920F931F9381
:1005B000CF93DF93CDB7DEB7A1970FB6F894DEBF28
:1005C0000FBECDBF7C01C42EE52FCB01D22E19A2C8
:1005D00021E02D1510F02AE0D22E8E010F5D1F4F65
:1005E0008D2C912CA12CB12C6C2D7E2FA50194016A
:1005F0000E942A0E8C2DD29E8019112401501109BF
:100600008A3014F4805D01C0895CF8018083211573
:1006100031054105510521F0C22EE32FCA01E4CF77
:10062000B801C7010E949B02A1960FB6F894DEBFE5
:100630000FBECDBFDF91CF911F910F91FF90EF9033
:10064000DF90CF90BF90AF909F908F900895CF9202
:10065000DF92EF92FF920F931F93CF93DF93EC0102
:100660006A017B012115310579F4E881F981019056
:10067000F081E02D642FDF91CF911F910F91FF90BA
:10068000EF90DF90CF9009942A303105E9F477FF9D
:100690001AC06DE20E94B3028C0144275527BA01AB
:1006A0004C195D096E097F092AE0CE010E94CE0235
:1006B000800F911FDF91CF911F910F91FF90EF90CD
:1006C000DF90CF9008952AE0B701A601CE01DF9117
:1006D000CF911F910F91FF90EF90DF90CF900C94EE
:1006E000CE029A01AB01662757FD6095762F0C94D8
:1006F00027030E9438020E940501C2E5D4E00E944F
:1007000056012097E1F30E945204F9CFFC012485A1
:100710003585F901E05CFF4F80819181329620811F
:100720003181821B930B8F7399270895FC01848577
:100730009585FC01E05CFF4F40815181329620811C
:1007400031814217530741F00190F081E02DE80F0D
:10075000F91F808190E008958FEF9FEF0895FC01CD
:1007600084859585FC01E05CFF4F40815181329684
:10077000208131814217530779F0A081B181A80F00
:10078000B91F8C91208131812F5F3F4F2F73332709
:100790003183208390E008958FEF9FEF0895FC014F
:1007A00081A1882329F0A489B5898C9186FFFBCF8C
:1007B00011A20895CF93DF93FC0126853785D901D7
:1007C000A05CBF4F8D919C91119701968F739927D3
:1007D000E901CE5BDF4F4881598184179507D9F332
:1007E0000D90BC91A02DA20FB31F6C93A685B78569
:1007F000A05CBF4F11969C938E93A689B7892C91CC
:1008000081E090E0078C02C0880F991F0A94E2F7FC
:10081000282B2C9381E081A30488F589E02D808129
:100820008064808381E090E0DF91CF910895089506
:100830001F920F920FB60F9211242F933F934F9355
:100840008F939F93EF93FF938091C00082FD1CC014
:100850004091C6008091A4029091A50201968F73E9
:1008600099272091A6023091A7028217930771F071
:10087000E091A402F091A502EC59FD4F40839093C2
:10088000A5028093A40202C08091C600FF91EF915F
:100890009F918F914F913F912F910F900FBE0F908D
:1008A0001F9018958EEF91E00E948603892B11F01E
:1008B0000C94170408951F920F920FB60F921124F3
:1008C0002F933F938F939F93EF93FF932091600219
:1008D000309161028091620290916302281739077A
:1008E00031F48091C1008F7D8093C10014C0E091EC
:1008F0006202F0916302E05EFD4F2081809162020E
:100900009091630201968F7399279093630280936D
:1009100062022093C600FF91EF919F918F913F91CA
:100920002F910F900FBE0F901F901895CF92DF92CE
:10093000EF92FF92CF93DF93EC016A017B01EC8988
:10094000FD8981E090E008A002C0880F991F0A94F9
:10095000E2F7808360E874E88EE190E0A7019601F9
:100960000E942A0E21503109410951095695479597
:1009700037952795211580E1380798F0EC89FD8996
:10098000108260E472E48FE090E0A70196010E947B
:100990002A0E21503109410951095695479537953D
:1009A0002795E889F9893083EA89FB89208319A290
:1009B000EE89FF89408181E090E09C010C8C02C0AF
:1009C000220F331F0A94E2F7422B4083EE89FF89FE
:1009D00040819C010D8C02C0220F331F0A94E2F764
:1009E000422B4083EE89FF8940819C010E8C02C01E
:1009F000220F331F0A94E2F7422B4083EE89FF89CE
:100A000020810F8C02C0880F991F0A94E2F780950D
:100A100082238083DF91CF91FF90EF90DF90CF9082
:100A20000895109201021092000288EE93E0A0E077
:100A3000B0E08093020290930302A0930402B0936B
:100A4000050289E191E09093FF018093FE0184E625
:100A500092E090930B0280930A0280E292E09093DE
:100A60000D0280930C0285EC90E090930F0280932E
:100A70000E0284EC90E0909311028093100280ECBF
:100A800090E0909313028093120281EC90E0909397
:100A900015028093140282EC90E0909317028093E9
:100AA000160286EC90E0909319028093180284E07D
:100AB00080931A0283E080931B0287E080931C02DC
:100AC00085E080931D0281E080931E0208952091AD
:100AD000EA023091EB0228173907B9F49091A80285
:100AE0008091A902981789F0E091A802F0E0E655FC
:100AF000FD4F80812091A80230E02F5F3F4F2F7380
:100B000033272093A80290E008958FEF9FEF089578
:100B10002091EA023091EB022817390781F4909175
:100B2000A8028091A902981751F0E091A802F0E084
:100B3000E655FD4F8081992787FD909508958FEFA9
:100B40009FEF08952091EA023091EB0228173907B0
:100B500071F48091A9022091A80290E0805C9F4FDF
:100B6000821B910960E470E00E94160E089580E0F7
:100B700090E008952091EA023091EB02281739079E
:100B800039F48FB7F8941092A9021092A8028FBF7F
:100B90000895DC015196ED91FC9152972081509679
:100BA0008C91809582238083089520E001972FEF18
:100BB0008F3F9207D9F708952091EA023091EB0216
:100BC0002817390789F0FC01238D2E7F238F2FB73B
:100BD000F8941092A9021092A8029093EB028093CD
:100BE000EA022FBF81E0089580E00895EF92FF921E
:100BF0000F931F93CF93DF93EC018B8DEE85FF85D1
:100C00009D8581FF04C08081892329F447C08081AC
:100C1000892309F043C08B899C890E94D50508E08F
:100C200010E0EE24E394F12C8D899E890E94D50575
:100C3000EE85FF8580819D85892311F0FE2803C004
:100C40008E2D8095F822EE0C015011090115110529
:100C500059F78F89988D0E94D5058B8D81FDF09471
:100C60008091A9022091A80290E001968F739927A4
:100C700030E08217930779F0E091A902F0E0E655A1
:100C8000FD4FF0828091A90290E001968F73992721
:100C90008093A90203C08B8D81608B8FDF91CF91F0
:100CA0001F910F91FF90EF900895611102C00C9475
:100CB000C905DC015196ED91FC9152972081509627
:100CC0008C91282B20830895DF92EF92FF920F934F
:100CD0001F93CF93DF93EC01E62E898D9A8D892B9C
:100CE00039F481E090E09B838A8380E090E04DC0FE
:100CF000DFB6F8946B8D66956170CE010E94550643
:100D0000898D9A8D04960E94D5058B8D08E010E0A0
:100D1000FF24F39481FF19C08F2D8E2121F0CE0185
:100D20000E94C90504C061E0CE010E945506898D6C
:100D30009A8D0E94D505FF0C01501109011511056E
:100D400059F7CE010E94C90519C08F2D8E2129F0B7
:100D500061E0CE010E94550603C0CE010E94C90584
:100D6000898D9A8D0E94D505FF0C0150110901153E
:100D7000110559F761E0CE010E945506DFBE898D4D
:100D80009A8D0E94D50581E090E0DF91CF911F916F
:100D90000F91FF90EF90DF9008958091EA0290917B
:100DA000EB02009711F00C94F60508951F920F9234
:100DB0000FB60F9211242F933F934F935F936F932E
:100DC0007F938F939F93AF93BF93EF93FF930E9473
:100DD000CD06FF91EF91BF91AF919F918F917F9140
:100DE0006F915F914F913F912F910F900FBE0F9098
:100DF0001F9018951F920F920FB60F9211242F93E8
:100E00003F934F935F936F937F938F939F93AF9392
:100E1000BF93EF93FF930E94CD06FF91EF91BF9197
:100E2000AF919F918F917F916F915F914F913F9182
:100E30002F910F900FBE0F901F9018951F920F9239
:100E40000FB60F9211242F933F934F935F936F939D
:100E50007F938F939F93AF93BF93EF93FF930E94E2
:100E6000CD06FF91EF91BF91AF919F918F917F91AF
:100E70006F915F914F913F912F910F900FBE0F9007
:100E80001F9018951F93CF93DF93EC01162F61E00D
:100E9000812F0E946E0D61E0812F0E94A70D812F8E
:100EA00090E0FC01E659FE4FE491E88BFC01E2582A
:100EB000FE4FE491F0E0EE0FFF1FE456FE4F8591E8
:100EC00094919A8B898BDF91CF911F9108951F93F5
:100ED000CF93DF93EC01162F60E0812F0E946E0DFF
:100EE0008B8D81FD04C061E0812F0E94A70D1C87BE
:100EF000812F90E0FC01E659FE4FE491ED87FC0163
:100F0000E258FE4FE491F0E0EE0FFF1FEE56FE4F69
:100F1000859194919F878E87DF91CF911F9108953E
:100F2000FF920F931F93CF93DF93EC01F62E522F76
:100F30001B821A8208EE13E020E030E00C831D8350
:100F40002E833F8389E291E0998388831C8A1B8AE0
:100F50001E8A1D8A188E1F8A1A8E198E8B8D8E7F7F
:100F600050FB81F98B8F642FCE010E9442076F2DB9
:100F7000CE01DF91CF911F910F91FF900C946707E5
:100F80000F931F93CF93DF93EC011A8E198E188E57
:100F90001F8A1E8A1D8AAAEBB0E080E090E0FD0166
:100FA00005911591259134910417150726073707E8
:100FB00009F031C02CE0289FF001299FF00D112489
:100FC000E254FF4F259134913C8B2B8B2CE0289FD2
:100FD000F001299FF00D1124E054FF4F2591349129
:100FE0003E8B2D8B2CE0289FF001299FF00D1124C2
:100FF000EE53FF4F25913491388F2F8B2CE0289F93
:10100000F001299FF00D1124EC53FF4F859194912D
:101010009A8F898F08C001961C968D30910509F032
:10102000BECF1C8A1B8A8F89988D892B09F443C0F7
:101030008C858631E0F520916800883050F091E091
:101040008E3008F490E081E001C0880F9A95EAF7AD
:1010500001C084E0822B809368002C85283038F012
:101060002E3040F0263148F0E0E0F0E008C0EDE638
:10107000F0E005C0EBE6F0E002C0ECE6F0E0308125
:10108000283030F481E001C0880F2A95EAF70DC0BE
:10109000822F90E02E3010F4089701C00E9791E057
:1010A00001C0990F8A95EAF7892F832B8083898D58
:1010B0009A8D0E94D505CE01DF91CF911F910F919E
:1010C0000C94DC05FC014485463150F5483028F08D
:1010D0004E3030F4EBE6F0E005C0EDE6F0E002C0A3
:1010E000ECE6F0E05081483040F481E090E0042EDE
:1010F00001C0880F0A94EAF710C0242F30E04E3068
:1011000018F42850310902C02E50310981E090E0D6
:10111000022E01C0880F0A94EAF780958523808308
:10112000089529E231E0FC01318320830C946208A8
:101130000F931F93FC010FEF1FEF980100831183A2
:101140002283338310861186128613864FEF59EC63
:101150006AE97BE3408B518B628B738B408F518F9D
:10116000628F738F40A351A362A373A340A751A7BB
:1011700062A773A740AB51AB62AB73AB00AF11AFCB
:1011800022AF33AFDC01A05CBF4F8FEF90E0119630
:101190009C938E9314960D931D932D933C931397CC
:1011A00018960D931D932D933C93139718961C92AC
:1011B00011961C92509682E08C9311961C92119677
:1011C0001C9211961C9211961D921D921D921C92BA
:1011D0001397149611961C921E9212961D921C92B1
:1011E000EA5AFF4F10821F910F9108952FEB260F9F
:1011F000862F992787FD9095263010F4C79708957C
:101200006156663018F4875591090895C09708957E
:101210000F931F93FB0160E070E0CB01019120ED83
:10122000200F2A30A0F4AAE0B0E09B01AC010E949C
:10123000520E112707FD1095212F312F600F711FBE
:10124000821F931F6053710981099109E7CF1F9194
:101250000F9108950F931F93CF93FC01EA5AFF4F0C
:10126000C1E020812D3219F0C0E08F0103C08C0154
:10127000095A1F4FB8010E9408099B01AC01A4E65E
:10128000B0E00E94520EF801DF01219130ED320FE3
:101290003A30D0F32E3269F511962C91119730ED3A
:1012A000320F3A3030F5332727FD3095205331097E
:1012B0004AE0429F8001439F100D1124222717FD11
:1012C0002095322F600F711F821F931F12960C9171
:1012D00020ED200F2A3068F4112707FD10950053E8
:1012E0001109222717FD2095322F600F711F821FD1
:1012F000931FCC2339F090958095709561957F4F21
:101300008F4F9F4FCF911F910F9108954F925F92F2
:101310006F927F928F929F92AF92BF92CF92DF9205
:10132000EF92FF92CF93DF93EC01CA5ADF4FBE01D9
:101330000E9408092B013C0124E630E040E050E027
:101340000E942A0E9B01AC0160EA76E881E090E001
:101350000E94060E6B017C01FE01819190ED980FB9
:101360009A30D8F38E3219F5EF0180E1882E87E2AA
:10137000982EA12CB12CA99180ED8A0F8A30B8F457
:10138000BB27A7FDB095D097A50194010E945D0EE3
:10139000C60ED71EE81EF91EC501B4012AE030E0D2
:1013A00040E050E00E942A0E49015A01E4CFC701F3
:1013B000B6016D5F7F4F8F4F9F4F26E030E040E0DA
:1013C00050E00E942A0E69017A01C301B20124E6AD
:1013D00030E040E050E00E942A0E60E472E48FE0CA
:1013E00090E00E94060EC60ED71EE81EF91EC70129
:1013F000B601DF91CF91FF90EF90DF90CF90BF903B
:10140000AF909F908F907F906F905F904F900895D6
:10141000DB01FA018D91882319F091918917D1F39D
:10142000992787FD90950895CF92DF92EF92FF92D2
:101430001F93CF93DF93EC01FC01EB5AFF4F108118
:10144000112309F4A9C0319660810E94F608182F73
:10145000FE01E95AFF4F6081CE010E94F60840E18B
:10146000149F800D1124FE01EC5AFF4F90818913C7
:101470008AC074961081112309F458C13596808171
:101480009181019691838083B59780819181A2811A
:10149000B381349780839183A283B3833C96808108
:1014A0009181A281B381349780839183A283B38396
:1014B000799680818823A1F1813009F037C18C8130
:1014C0009D81AE81BF8188839983AA83BB838C85EC
:1014D0009D85AE85BF8588879987AA87BB878C89BC
:1014E0009D89AE89BF89888B998BAA8BBB8B8C8D8C
:1014F0009D8DAE8DBF8D888F998FAA8FBB8F8CA548
:101500009DA5AEA5BFA588A799A7AAA7BBA78CA98B
:101510009DA9AEA9BFA988AB99ABAAABBBAB06C1CD
:101520008CA19DA1AEA1BFA188A399A3AAA3BBA38F
:101530008C819D81AE81BF8188839983AA83BB837F
:101540008C899D89AE89BF89888B998BAA8BBB8B2F
:101550008C8D9D8DAE8DBF8D888F998FAA8FBB8FFF
:10156000FE01E05CFF4FDE01AE5BBF4F8D919C91B1
:10157000918380838CAD9DADAEADBFAD88AF99AF8B
:10158000AAAFBBAFD3C0C159DF4F88819981019603
:101590009983888310E0CAC0FC01EA59FF4F30816B
:1015A0008B599F4F7C0131111DC06E0196E5C90E0C
:1015B000D11C45E351E0B601CE010E94080A892BF7
:1015C00011F481E00CC04BE351E0B601CE010E9462
:1015D000080A892B19F4F7011082A8C082E0D7010C
:1015E0008C93A4C0DC01EC91E23009F49FC0CE01E1
:1015F0008A5A9F4FDC012C91222309F497C0B0E254
:10160000EB9FF0011124E32B3197E932F10508F04B
:101610008DC0EC5CFF4F0C944C0ECE010E942A0949
:101620006C837D838E839F830E942C02C85BDF4F77
:1016300012C0C859DF4F81E0213409F05DC05DC0A0
:10164000CE010E9486096C8B7D8B8E8B9F8B0E94B6
:101650002C02C05BDF4F688379838A839B8366C0DB
:10166000233509F063C08C899D89AE89BF89B09507
:10167000A095909581959F4FAF4FBF4F8C8B9D8BC1
:10168000AE8BBF8B53C0CE010E9486096C8F7D8FBD
:101690008E8F9F8F4BC0273509F048C08C8D9D8D54
:1016A000AE8DBF8DB095A095909581959F4FAF4F12
:1016B000BF4F8C8F9D8FAE8FBF8F38C0CE010E94E1
:1016C0002A096CA77DA78EA79FA730C0CE010E94D4
:1016D0002A096CAB7DAB8EAB9FAB28C0BC01CE01A1
:1016E0000E9408096C877D878E879F871FC0C85915
:1016F000DF4F81E021330CF480E0888317C00E9423
:10170000DD0DCE5BDF4F9927998388830FC0CE0113
:101710000E942A096CAF7DAF8EAF9FAF07C0CE018C
:101720000E942A096CA37DA38EA39FA3812FDF9122
:10173000CF911F91FF90EF90DF90CF900895CF92BF
:10174000DF92EF92FF920F931F93CF93DF931F923D
:10175000CDB7DEB76C01262FFC01E759FF4F408162
:101760005181628173814F5F5F4F6F4F7F4F408325
:101770005183628373838C0109591F4F8B5A9F4F8A
:101780007C01243281F12CF42A3069F02D30E9F506
:101790000AC02A3241F02C32C1F5F601EC5AFF4F53
:1017A000808182278083F80180818F3060F4F60188
:1017B000E80FF11DEA5AFF4F1082C60129830E94EB
:1017C000140A298101C080E0F601EA59FF4F908197
:1017D0009F5F9083F801108291E02A3209F090E037
:1017E000F70190832AC0F8011082F601EA59FF4FF1
:1017F000108272971082719682E08083F7011082C6
:10180000F601E859FF4F108217C0F80180818E3031
:1018100048F491E0980F9083F601E80FF11DEA5A21
:10182000FF4F2083F7018081811106C0F601EC5A39
:10183000FF4F80818227808380E00F90DF91CF91DE
:101840001F910F91FF90EF90DF90CF900895CF926E
:10185000DF92EF92FF920F931F93CF93DF93E901F3
:101860006115710551F0FC01C084D184E284F384D8
:10187000FB01C082D182E282F3824115510551F011
:10188000FC01C080D180E280F380FA01C082D18265
:10189000E282F382209701F18C010C5B1F4FF8016B
:1018A00080819181A281B3818F3F9F4FAF4FBF4F06
:1018B00061F00E942C02F8010081118122813381A4
:1018C000601B710B820B930B03C06FEF7FEFCB019B
:1018D000688379838A839B83DF91CF911F910F91D6
:1018E000FF90EF90DF90CF9008952F923F924F920C
:1018F0005F926F927F928F929F92AF92BF92CF92A0
:10190000DF92EF92FF920F931F93CF93DF93CDB7A8
:10191000DEB72A970FB6F894DEBF0FBECDBF2B01FE
:101920005A87498719019401AE014F5F5F4FBE018D
:101930006B5F7F4F0E94270C41145104B9F06D81F9
:101940007E818F81988524E630E040E050E00E945F
:101950002A0E613571051CF02CE637E002C020ED3F
:1019600037E0620F731FF2017183608389859A8566
:10197000892BB1F06D817E818F81988544E6442E5C
:10198000512C612C712CA30192010E942A0ECA01D4
:10199000B901A30192010E942A0EE985FA856083AC
:1019A0002114310461F06D817E818F81988520E161
:1019B00037E240E050E00E942A0EF1012083011539
:1019C000110561F069817A818B819C8120E432E488
:1019D0004FE050E00E942A0EF8012083E114F10448
:1019E000A1F069817A818B819C8120E137E240E01E
:1019F00050E00E942A0ECA01B90124E630E040E01E
:101A000050E00E942A0EF7016083C114D104A9F0AE
:101A100069817A818B819C8134E6432E512C612C23
:101A2000712CA30192010E942A0ECA01B901A301DF
:101A300092010E942A0EF6016083A114B10461F0A4
:101A400069817A818B819C8124E630E040E050E01E
:101A50000E942A0EF50160832A960FB6F894DEBF25
:101A60000FBECDBFDF91CF911F910F91FF90EF90EF
:101A7000DF90CF90BF90AF909F908F907F906F90AE
:101A80005F904F903F902F900895833081F028F41D
:101A9000813099F08230A1F008958630A9F0873026
:101AA000B9F08430D1F4809180008F7D03C08091A3
:101AB00080008F7780938000089584B58F7702C06F
:101AC00084B58F7D84BD08958091B0008F7703C069
:101AD0008091B0008F7D8093B0000895CF93DF9305
:101AE00090E0FC01E659FE4F2491FC01E258FE4FC4
:101AF0008491882349F190E0880F991FFC01EA55F1
:101B0000FE4FA591B49184569E4FFC01C591D4918E
:101B10009FB7611108C0F8948C91209582238C9313
:101B2000888182230AC0623051F4F8948C91322F5C
:101B3000309583238C938881822B888304C0F8940A
:101B40008C91822B8C939FBFDF91CF9108950F933F
:101B50001F93CF93DF931F92CDB7DEB7282F30E0CE
:101B6000F901EA5AFE4F8491F901E659FE4F1491AA
:101B7000F901E258FE4F04910023C9F0882321F0B7
:101B800069830E94450D6981E02FF0E0EE0FFF1F91
:101B9000E456FE4FA591B4919FB7F8948C916111D2
:101BA00003C01095812301C0812B8C939FBF0F90A0
:101BB000DF91CF911F910F910895FC0188279927FC
:101BC000E89421912032E9F3293010F02E30C8F347
:101BD0002B3241F02D3239F4689404C00E94FE0D7E
:101BE000820F911D219120532A30C0F31EF490954D
:101BF00081959F4F0895F8940C94880E7AE0979FF2
:101C0000902D879F802D910D11240895DB018F93D6
:101C10009F930E94520EBF91AF91A29F800D911D84
:101C2000A39F900DB29F900D1124089597FB072E4E
:101C300016F4009407D077FD09D00E94650E07FCCA
:101C400005D03EF4909581959F4F089570956195CC
:101C50007F4F0895A1E21A2EAA1BBB1BFD010DC0E8
:101C6000AA1FBB1FEE1FFF1FA217B307E407F5074C
:101C700020F0A21BB30BE40BF50B661F771F881F28
:101C8000991F1A9469F760957095809590959B01BE
:101C9000AC01BD01CF010895EE0FFF1F0590F49137
:101CA000E02D09940E94790EA59F900DB49F900D90
:101CB000A49F800D911D11240895B7FF0C94520E1E
:101CC0000E94520E821B930B0895AA1BBB1B51E16D
:101CD00007C0AA1FBB1FA617B70710F0A61BB70B9C
:101CE000881F991F5A95A9F780959095BC01CD0141
:101CF0000895A29FB001B39FC001A39F700D811DE5
:101D00001124911DB29F700D811D1124911D089504
:101D100011E0C4EBD1E004C0FE010E944E0E2296F9
:0A1D2000C63BD107C9F7F894FFCFC6
:101D2A002A2A2A2A2A2A2A2A2A2A202A2A2A2A2A13
:101D3A002A2A2A200000000000DA0373028603AF71
:101D4A00039603CF030000000064067302A205672E
:101D5A00058805BA054750524D4300475047474149
:101D6A00004E004E4E4500454E4500455345005332
:101D7A0053450053005353570057535700574E5774
:061D8A00004E4E57000060
:00000001FF
