:100000000C9463000C948B000C948B000C948B006C
:100010000C948B000C948B000C948B000C948B0034
:100020000C948B000C948B000C948B000C948B0024
:100030000C948B000C948B000C948B000C948B0014
:100040000C943D040C948B000C9402060C94450611
:100050000C948B000C948B000C948B000C948B00F4
:100060000C948B000C948B00000000070002010030
:100070000003040600000000000000000102040864
:100080001020408001020408102001020408102002
:10009000040404040404040402020202020203032E
:1000A00003030303000000002300260029000000D2
:1000B0000000250028002B0000000000240027007D
:1000C0002A009B01FB0611241FBECFEFD8E0DEBF44
:1000D000CDBF12E0A0E0B1E0E4E8F5E102C0059098
:1000E0000D92A832B107D9F723E0A8E2B2E001C02F
:1000F0001D92AE31B207E1F710E0C6ECD0E004C0CB
:100100002297FE010E94BC0AC23CD107C9F70E9497
:1001100063050C94950A0C9400000F931F93CF93E2
:10012000DF9300D000D01F92CDB7DEB78C012A83B9
:100130003B834C835D8369830E945107698170E032
:10014000C8010E945D072A813B81B901C8010F9057
:100150000F900F900F900F90DF91CF911F910F9103
:100160000C9472078AE492E00E94760782E492E09F
:100170000E9476078AE392E00E9476078AE492E082
:100180000E94C607882309F44BC00E94870460932D
:1001900052027093530280935402909355028091BF
:1001A0002B01811108C086E592E00E94B20881E02F
:1001B00080932B0135C081E080932A018AE392E08D
:1001C0000E94C2078823B1F082E492E00E94C20735
:1001D000882341F084E090E09093290180932801E6
:1001E00083E5089583E090E09093290180932801AE
:1001F00082E4089582E492E00E94C207882341F0DD
:1002000082E090E0909329018093280184E408958E
:1002100081E090E0909329018093280185E508957D
:10022000089520913902253531F480913102909161
:100230003202019645C0243431F48091310290910C
:10024000320201973DC080913302909134022335F0
:10025000B9F4209135023091360230933802209360
:10026000370290933602809335028091310290914B
:100270003202909334028093330281E090E020C0F8
:10028000223411F518161906CCF49093320280939B
:10029000310280913502909136029093340280931E
:1002A0003302809137029091380290933602809306
:1002B0003502109238021092370206C085E090E0B5
:1002C00090933202809331022091330230913402B4
:1002D00080913102909132021216130674F020912F
:1002E000290230912A022817390764F481E090E04E
:1002F0009093320280933102089520912B02309125
:100300002C02F1CF181619068CF420913502309189
:1003100036021216130674F420912D0230912E022B
:10032000281739071CF31816190624F030933202E7
:10033000209331020895CF92EF920F9389E0C82E57
:1003400098E0E92E07E026E045E064E086E592E0EB
:100350000E946E0925E030E040E050E061E18AE46F
:1003600092E00E948D0025E030E040E050E060E146
:1003700082E492E00E948D0025E030E040E050E011
:100380006FE08AE392E00F91EF90CF900C948D0094
:1003900086E592E00E94770840E060E086E592E022
:1003A0000E947E088091330290913402181619063B
:1003B0000CF463C080913102909132028330910538
:1003C00079F134F48130910551F00297B9F0089534
:1003D00084309105A1F1059709F440C0089564E3C4
:1003E00071E086E592E00E94610541E060E086E50B
:1003F00092E00E947E086CE371E00EC062E471E05E
:1004000086E592E00E94610541E060E086E592E0C9
:100410000E947E086BE471E086E592E00C94610531
:1004200063E571E086E592E00E94610541E060E0ED
:1004300086E592E00E947E086DE571E0EDCF67E60B
:1004400071E086E592E00E94610541E060E086E5AA
:1004500092E00E947E086CE671E0DECF61E771E019
:1004600086E592E00E94610541E060E086E592E069
:100470000E947E0869E771E0CFCF2091350230916C
:100480003602121613060CF448C080913102909186
:10049000320282309105C1F083309105B1F10197AC
:1004A00009F005C164E086E592E00E94CE0963E8A8
:1004B00071E086E592E00E94610541E061E086E539
:1004C00092E00E947E081EC040E061E086E592E076
:1004D0000E947E0863E871E086E592E00E94610573
:1004E00041E060E086E592E00E947E0864E086E5F7
:1004F00092E00E94CE0980912802882319F061E9D8
:1005000071E08ACF6AE871E087CF64E086E592E027
:100510000E94CE096AE971E07FCF40913702509185
:100520003802141615060CF469C082309105B1F03A
:100530008330910509F44CC0019709F0B8C061EA15
:1005400071E086E592E00E94610541E060E086E5A9
:1005500092E00E947E0867EA71E01FC08091280245
:100560006EEA71E0882369F086E592E00E946105F9
:1005700041E060E086E592E00E947E0868EB71E071
:100580000CC086E592E00E94610541E060E086E5EE
:1005900092E00E947E086DEB71E086E592E00E9499
:1005A00061056EEE72E080E090E00E94B6048091FA
:1005B000350290913602909332028093310210926C
:1005C000340210923302109236021092350253C058
:1005D00080913102909132028230910549F083304E
:1005E000910549F0019709F062C066EC71E014CF03
:1005F0006FEC71E011CF68ED71E00ECF2330310563
:10060000F1F58230910541F08330910541F0019779
:10061000F1F461EE71E005C06EEE71E002C064EFCE
:1006200071E086E592E00E94610541E060E086E5C8
:1006300092E00E947E0867EE71E086E592E00E94FB
:1006400061056EEE72E080E090E00E94B604809159
:1006500037029091380290933202809331021092C7
:100660003402109233021092360210923502109228
:1006700038021092370281E080932A0108956AEFD0
:1006800071E086E592E00E94610541E060E086E568
:1006900092E00E947E0860E072E086E592E00E94AF
:1006A00061056AEF70E080E090E00C94B604089574
:1006B000CF92DF92EF92FF920E9487046B017C0140
:1006C0000E94B200809339020E94110180912A0198
:1006D000882321F010922A010E94C80180915202C1
:1006E00090915302A0915402B0915502C81AD90AB0
:1006F000EA0AFB0A80E1C81687E2D806E104F104A1
:1007000050F080912B01882331F086E592E00E9421
:10071000AB0810922B016AE070E080E090E0FF905F
:10072000EF90DF90CF900C94B604109234021092A8
:100730003302109236021092350210923802109253
:10074000370281E090E0909332028093310285E09D
:1007500090E090932A028093290283E090E09093A6
:100760002C0280932B0290932E0280932D0220E086
:1007700042E068E086E592E00E94BA0840E855E26F
:1007800060E070E084E792E00E94800648E151E07A
:1007900060E086E592E00E94940940E151E061E06A
:1007A00086E592E00E94940948E051E062E086E527
:1007B00092E00E94940940E051E063E086E592E017
:1007C0000E94940940E251E064E086E592E00E94D4
:1007D000940940E062E086E592E00E947E0865E0D0
:1007E00072E086E592E00E94610541E063E086E503
:1007F00092E00E947E086BE072E086E592E00E9443
:1008000061056EEE72E080E090E00E94B60486E53D
:1008100092E00E94770841E060E086E592E00E9465
:100820007E0860E086E592E00E94CE0941E062E049
:1008300086E592E00E947E0861E086E592E00E94F3
:10084000CE0941E065E086E592E00E947E0862E024
:1008500086E592E00E94CE0941E067E086E592E0FD
:100860000E947E0863E086E592E00E94CE096EEE6B
:1008700072E080E090E00C94B6041F920F920FB6E5
:100880000F9211242F933F938F939F93AF93BF9316
:1008900080916C0290916D02A0916E02B0916F02F6
:1008A00030916B0226E0230F2D3720F40296A11D14
:1008B000B11D05C029E8230F0396A11DB11D20938A
:1008C0006B0280936C0290936D02A0936E02B093C2
:1008D0006F028091700290917102A0917202B091AA
:1008E00073020196A11DB11D809370029093710255
:1008F000A0937202B0937302BF91AF919F918F91B9
:100900003F912F910F900FBE0F901F9018952FB70A
:10091000F89460916C0270916D0280916E029091DA
:100920006F022FBF08953FB7F894809170029091A5
:100930007102A0917202B091730226B5A89B05C006
:100940002F3F19F00196A11DB11D3FBF6627782FDB
:10095000892F9A2F620F711D811D911D43E0660F33
:10096000771F881F991F4A95D1F70895CF92DF927C
:10097000EF92FF92CF93DF936B017C010E9493046F
:10098000EB01C114D104E104F10479F00E94930455
:100990006C1B7D0B683E7340A0F381E0C81AD10840
:1009A000E108F108C851DC4FECCFDF91CF91FF9007
:1009B000EF90DF90CF9008958130910541F002973C
:1009C000009729F0880F991F01970197F1F7089573
:1009D000789484B5826084BD84B5816084BD85B51A
:1009E000826085BD85B5816085BDEEE6F0E08081E1
:1009F00081608083E1E8F0E0108280818260808302
:100A0000808181608083E0E8F0E080818160808384
:100A1000E1EBF0E0808184608083E0EBF0E08081B6
:100A200081608083EAE7F0E0808184608083808158
:100A30008260808380818160808380818068808300
:100A40001092C1000895CF92DF92EF92FF920F9320
:100A50001F93CF93DF936C017A01EB01E60EF71E33
:100A600000E010E0CE15DF0561F06991D601ED914F
:100A7000FC910190F081E02DC6010995080F191F26
:100A8000F1CFC801DF91CF911F910F91FF90EF90AF
:100A9000DF90CF9008956115710581F0DB010D9015
:100AA0000020E9F7AD0141505109461B570BDC010D
:100AB000ED91FC910280F381E02D099480E090E0BB
:100AC00008950C944B050E94E8040E949503CCE322
:100AD000D6E00E9458032097E1F30E943C06F9CF2C
:100AE000FC0124853585F901E05CFF4F808191810F
:100AF000329620813181821B930B8F739927089541
:100B0000FC0184859585FC01E05CFF4F40815181AB
:100B10003296208131814217530741F00190F081D4
:100B2000E02DE80FF91F808190E008958FEF9FEF8F
:100B30000895FC0184859585FC01E05CFF4F4081B0
:100B400051813296208131814217530779F0A0817B
:100B5000B181A80FB91F8C91208131812F5F3F4F48
:100B60002F7333273183208390E008958FEF9FEF19
:100B70000895FC0181A1882329F0A489B5898C916D
:100B800086FFFBCF11A20895CF93DF93FC0126854A
:100B90003785D901A05CBF4F8D919C91119701962B
:100BA0008F739927E901CE5BDF4F48815981841704
:100BB0009507D9F30D90BC91A02DA20FB31F6C9394
:100BC000A685B785A05CBF4F11969C938E93A6898E
:100BD000B7892C9181E090E0078C02C0880F991FA3
:100BE0000A94E2F7282B2C9381E081A30488F589ED
:100BF000E02D80818064808381E090E0DF91CF915F
:100C0000089508951F920F920FB60F9211242F93FB
:100C10003F934F938F939F93EF93FF938091C000E7
:100C200082FD1CC04091C60080911A0390911B0365
:100C300001968F73992720911C0330911D03821711
:100C4000930771F0E0911A03F0911B03E652FD4FF8
:100C5000408390931B0380931A0302C08091C600C7
:100C6000FF91EF919F918F914F913F912F910F9015
:100C70000FBE0F901F90189584E792E00E947005B8
:100C8000892B11F00C94010608951F920F920FB654
:100C90000F9211242F933F938F939F93EF93FF9382
:100CA0002091D6023091D7028091D8029091D9023A
:100CB0002817390731F48091C1008F7D8093C100DE
:100CC00014C0E091D802F091D902EA56FD4F20817C
:100CD0008091D8029091D90201968F7399279093B1
:100CE000D9028093D8022093C600FF91EF919F9183
:100CF0008F913F912F910F900FBE0F901F901895DD
:100D0000CF92DF92EF92FF92CF93DF93EC016A01D3
:100D10007B01EC89FD8981E090E008A002C0880F8A
:100D2000991F0A94E2F7808360E874E88EE190E00E
:100D3000A70196010E94980A2150310941095109E1
:100D40005695479537952795211580E1380798F0F6
:100D5000EC89FD89108260E472E48FE090E0A701E5
:100D600096010E94980A215031094109510956956E
:100D7000479537952795E889F9893083EA89FB8972
:100D8000208319A2EE89FF89408181E090E09C01D7
:100D90000C8C02C0220F331F0A94E2F7422B4083CF
:100DA000EE89FF8940819C010D8C02C0220F331F08
:100DB0000A94E2F7422B4083EE89FF8940819C012F
:100DC0000E8C02C0220F331F0A94E2F7422B40839D
:100DD000EE89FF8920810F8C02C0880F991F0A9429
:100DE000E2F7809582238083DF91CF91FF90EF908F
:100DF000DF90CF900895109277021092760288EEDD
:100E000093E0A0E0B0E08093780290937902A09301
:100E10007A02B0937B0283E192E090937502809313
:100E200074028AED92E0909381028093800286E9B9
:100E300092E0909383028093820285EC90E09093FD
:100E400085028093840284EC90E0909387028093E3
:100E5000860280EC90E0909389028093880281EC76
:100E600090E090938B0280938A0282EC90E09093C2
:100E70008D0280938C0286EC90E090938F02809399
:100E80008E0284E08093900283E08093910287E059
:100E90008093920285E08093930281E08093940294
:100EA0000895FC0110821182128213828AE090E080
:100EB00095838483168217820895CF93DF93EC0184
:100EC000862F6F831E820E946C0A892B11F083E0AB
:100ED0008E830E948704688379838A839B83DF9152
:100EE000CF910895FC01758364830895FF920F9359
:100EF0001F93CF93DF93EC018F810E946C0AFF2434
:100F0000F394892B09F4F12C8E81982F977F9E837F
:100F100086958170F81651F00E9487046883798362
:100F20008A839B838E8192E0892721C00E94870457
:100F3000088119812A813B81601B710B820B930B05
:100F40000C811D8120E030E0601771078207930754
:100F500078F08E8181708F1559F00E948704688324
:100F600079838A839B838E8191E0892788608E8331
:100F70008E8183FB882780F9DF91CF911F910F919C
:100F8000FF900895FC01868181700895FC0196818F
:100F9000997081E0993009F080E00895CF93DF9354
:100FA000EC0160E08E810E94360A81E090E00E94B0
:100FB000DC0461E08E810E94360A81E090E00E94AC
:100FC000DC0460E08E810E94360A84E690E0DF91C6
:100FD000CF910C94DC04CF92DF92EF92FF920F93AB
:100FE0001F93CF93DF937C01C0E0D0E0C62ED12CBD
:100FF00087010C0F1D1F61E0F80187810E94FD0928
:10100000B6010C2E02C0759567950A94E2F76170DF
:10101000F80187810E94360A2196C430D10541F734
:10102000C701DF91CF911F910F91FF90EF90DF905B
:10103000CF900C94CE07CF92DF92EF92FF920F9356
:101040001F93CF93DF937C01C0E0D0E0C62ED12C5C
:1010500087010C0F1D1F61E0F80187810E94FD09C7
:10106000B6010C2E02C0759567950A94E2F761707F
:10107000F80187810E94360A2196C830D10541F7D0
:10108000C701DF91CF911F910F91FF90EF90DF90FB
:10109000CF900C94CE071F93CF93DF93EC01162FC4
:1010A000642F8C810E94360A8D818F3F19F060E099
:1010B0000E94360A8F85612F84FF06C0CE01DF9122
:1010C000CF911F910C941B0870E084E07595679593
:1010D0008A95E1F7CE010E94EB07612FCE01DF91E7
:1010E000CF911F910C94EB0740E00C944B0861E00A
:1010F0000E94740880ED97E00C94DC04CF93DF939A
:10110000CDB7DEB728970FB6F894DEBF0FBECDBFC0
:1011100028E0ECE2F1E0DE01119601900D922A95B3
:10112000E1F7FC012389421710F04FEF420FFE0157
:101130003196E40FF11DE40FF11D2081260F206888
:10114000622F28960FB6F894DEBF0FBECDBFDF9199
:10115000CF910C947408FC0160896B7F608B686090
:101160000C947408FC016089262F2460208B6C602D
:101170000C947408CF93DF93EC01423018F08F8504
:1011800088608F874B8B1C8A222329F0413019F409
:101190008F8584608F8780E593EC0E94DC0460E09B
:1011A0008C810E94360A60E08E810E94360A8D8111
:1011B0008F3F19F060E00E94360A6F8564FD1DC004
:1011C00063E0CE010E94EB0784E991E10E94DC0418
:1011D00063E0CE010E94EB0784E991E10E94DC0408
:1011E00063E0CE010E94EB0786E990E00E94DC04F8
:1011F00062E0CE010E94EB0716C06062CE010E9441
:10120000740884E991E10E94DC046F856062CE017C
:101210000E94740886E990E00E94DC046F85606299
:10122000CE010E9474086F856062CE010E9474082E
:1012300084E0888BCE010E94B208CE010E9477081C
:1012400082E0898B66E0CE01DF91CF910C94740827
:101250006F927F928F92AF92CF92EF920F931F93E4
:10126000CF93DF93CDB7DEB73C01162F842F5D857A
:101270004E853F859889F301848325830683E78221
:10128000C086A1868286538744873587968761E02A
:101290000E94FD09F30185818F3F19F061E00E94F2
:1012A000FD0961E0F30186810E94FD09112319F017
:1012B000F301178603C080E1F301878720E041E056
:1012C00060E1C301DF91CF911F910F91EF90CF901B
:1012D000AF908F907F906F900C94BA088F92AF92DE
:1012E000CF92EF920F93DC0113961C921E921297ED
:1012F000E3E2F2E0ED93FC931F921F921F921F9284
:101300008C2CAE2CC02EE22E042F2FEF462F61E046
:101310000E9428090F900F900F900F900F91EF905F
:10132000CF90AF908F900895CF92DF92EF92FF927F
:101330000F931F93CF93DF9300D0CDB7DEB78C010F
:10134000677088E0689FB00111246064C801498318
:101350005A830E9474084981C42E5A81D52EE12CEB
:10136000F12CD6016D916D01D801ED91FC910190A8
:10137000F081E02DC8010995BFEFEB1AFB0AE8E008
:10138000EE16F10471F70F900F90DF91CF911F913E
:101390000F91FF90EF90DF90CF90089541E00E9471
:1013A0004B0881E090E00895833081F028F481308B
:1013B00099F08230A1F008958630A9F08730B9F015
:1013C0008430D1F4809180008F7D03C080918000B3
:1013D0008F7780938000089584B58F7702C084B59D
:1013E0008F7D84BD08958091B0008F7703C0809178
:1013F000B0008F7D8093B0000895CF93DF9390E08D
:10140000FC01E458FF4F2491FC01E057FF4F849109
:10141000882349F190E0880F991FFC01E854FF4FA1
:10142000A591B49182559F4FFC01C591D4919FB76E
:10143000611108C0F8948C91209582238C93888147
:1014400082230AC0623051F4F8948C91322F309587
:1014500083238C938881822B888304C0F8948C9199
:10146000822B8C939FBFDF91CF9108950F931F9391
:10147000CF93DF931F92CDB7DEB7282F30E0F9016D
:10148000E859FF4F8491F901E458FF4F1491F90195
:10149000E057FF4F04910023C9F0882321F06983AE
:1014A0000E94D4096981E02FF0E0EE0FFF1FE255A2
:1014B000FF4FA591B4919FB7F8948C91611103C02F
:1014C0001095812301C0812B8C939FBF0F90DF91DA
:1014D000CF911F910F910895CF93DF93282F30E084
:1014E000F901E859FF4F8491F901E458FF4FD49175
:1014F000F901E057FF4FC491CC2391F081110E9474
:10150000D409EC2FF0E0EE0FFF1FEC55FF4FA59133
:10151000B4912C912D2381E090E021F480E002C071
:1015200080E090E0DF91CF910895F8940C94C00A88
:10153000A1E21A2EAA1BBB1BFD010DC0AA1FBB1FD7
:10154000EE1FFF1FA217B307E407F50720F0A21B49
:10155000B30BE40BF50B661F771F881F991F1A94B6
:1015600069F760957095809590959B01AC01BD01E0
:10157000CF010895EE0FFF1F0590F491E02D09941F
:04158000F894FFCF0D
:10158400000001050D1F0C0400000103161C0800D7
:101594000000001F1F0E0400000000040E1F1F00A7
:1015A4000000181C1E1C180004000101000040006B
:1015B400140054004E6220536174200048444F507C
:1015C4002000416C746974756465005669746573B0
:1015D4007365004C6174746974756465004C6F6E56
:1015E40067697475646500446174650054696D6568
:1015F40000566F6C74616765004175746F6E6F6D32
:1016040069650050722070747300507220697469A7
:101614000053746F7020697469004F7074696F6E41
:1016240000506F696E7400546F6F6B202100497411
:10163400696E65726172790053746F700050726FD5
:101644006772657373004F7074696F6E2031004F59
:101654007074696F6E2032004F7074696F6E20333E
:10166400004F707420310043686F6F7365004F70D2
:10167400742032004F70742033004572726F720010
:101684004D656E750048656C6C6F004750530000E3
:10169400000000C4052305700599058005B90500FF
:0816A400000000CE092305003F
:00000001FF
