:100000000C9468000C9490000C9490000C94900058
:100010000C9490000C9490000C9490000C94900020
:100020000C9490000C9490000C9490000C94900010
:100030000C9490000C9490000C9490000C94900000
:100040000C94A8020C9490000C94D4060C941707FE
:100050000C9490000C9490000C9490000C949000E0
:100060000C9490000C949000000000070002010026
:100070000003040600000000000000000102040864
:100080001020408001020408102001020408102002
:10009000040404040404040402020202020203032E
:1000A0000303030300000000250028002B000000CC
:1000B0000000240027002A007C3C3E5E2B3D3F2FA1
:1000C0005B5D3B2C2A225C00BB00D707910CDE0055
:1000D00011241FBECFEFD8E0DEBFCDBF11E0A0E0FE
:1000E000B1E0E2E3FFE302C005900D92AE3DB1073F
:1000F000D9F725E0AEEDB1E001C01D92A532B207FF
:10010000E1F710E0C7E6D0E004C02197FE010E94AD
:10011000771FC436D107C9F70E942D060C94071F1C
:100120000C940000CF93DF93EB012A813B81FC010B
:10013000338322834C815D816E817F81448355832B
:1001400066837783488559856A857B854087518793
:10015000628773872DE0FE013C96DC011C960190BE
:100160000D922A95E1F7298D3A8DFC01328F218F6E
:10017000DF91CF910895CF92EF920F9381E092E0BB
:100180000E94620D64E171E08AEF91E00E949204A6
:100190006BE371E083EF91E00E94920489E0C82E46
:1001A00098E0E92E07E026E045E064E08EED91E07E
:1001B0000E94BA090F91EF90CF90089583EF91E0DC
:1001C0000E9424048AEF91E00E94240481E092E0DE
:1001D0000C94750D0F931F93CF93DF93CDB7DEB7BC
:1001E0006B970FB6F894DEBF0FBECDBF62E081E122
:1001F0000E94B80362E080E10E94B80362E08FE0F1
:100200000E94B80360E08EE00E94B80361E0809134
:1002100000010E94B80320E042E068E08EED91E02A
:100220000E94060940E052EC61E070E085E292E055
:100230000E94520740E060E08EED91E00E94D008FD
:10024000609100018FEC92E00E94E60A81110DC0DE
:100250006DE171E08EED91E00E94A20565E271E032
:1002600085E292E00E94D105D0C06CE371E08EED92
:1002700091E00E94A20564E471E085E292E00E94B0
:10028000D10564E171E08FEC92E00E947B0C882341
:1002900031F064E171E08FEC92E00E94860C23E182
:1002A00044E151E06FEC72E0CE0101960E94F90B3F
:1002B000BE016F5F7F4F81E092E00E949200CE010D
:1002C00001960E94750D81E092E00E94D70D88236F
:1002D000A9F18EED91E00E94C90840E060E08EED4A
:1002E00091E00E94D00869E571E08EED91E00E94F6
:1002F000A20569E571E085E292E00E94A20564EF43
:1003000071E080E090E00E94230361E671E081E00B
:1003100092E00E94A20581E092E00E94C50D8EED60
:1003200091E00E94C90840E060E08EED91E00E94FB
:10033000D00863E571E08EED91E00AC069E671E0F6
:100340008EED91E00E94D1056FE671E085E292E0CA
:100350000E94A20521E044E151E06FEC72E0CE0181
:1003600001960E94F90BBE016F5F7F4F81E092E022
:100370000E949200CE0101960E94750D81E092E0EC
:100380000E94D70D8823A9F166E871E085E292E02A
:100390000E94D10562E971E085E292E00E94D105F8
:1003A00010E081E092E00E94960D892BB9F041E0C7
:1003B000612F8EED91E00E94D00881E092E00E94D2
:1003C000F90C082F682F8EED91E00E94A405602F94
:1003D00085E292E00E94A4051F5FE3CF68E873E125
:1003E00080E090E00E94230381E092E00E94C50D2E
:1003F0000CC069E671E08EED91E00E94D1056FE6D8
:1004000071E085E292E00E94A2056B960FB6F89427
:10041000DEBF0FBECDBFDF91CF911F910F91089529
:10042000CF93DF93CDB7DEB76B970FB6F894DEBFEF
:100430000FBECDBF85E292E00E943A06892B09F4F7
:100440007EC065E272E0CE0101960E941306BE01F5
:100450006F5F7F4F83EF91E00E94A804CE01019669
:100460000E94240462EA71E083EF91E00E9400059B
:10047000882309F440C021E044E151E06FEC72E0D0
:10048000CE0101960E94F90BBE016F5F7F4F81E0A4
:1004900092E00E949200CE0101960E94750D81E0CB
:1004A00092E00E94D70D8823C9F081E092E00E947B
:1004B000960D892B51F081E092E00E94F90C682F93
:1004C00085E292E00E94A405F0CF81E092E00E94D4
:1004D000C50D85E292E00E94AB0531C069E671E08E
:1004E0008EED91E00E94D1056FE671E085E292E029
:1004F0000E94A20524C023E144E151E06FEC72E0C8
:10050000CE0101960E94F90BBE016F5F7F4F81E023
:1005100092E00E949200CE0101960E94750D81E04A
:1005200092E00E94D70D8823C9F263EF71E081E069
:1005300092E00E94BF0581E092E00E94C50D6B969B
:100540000FB6F894DEBF0FBECDBFDF91CF910895F7
:100550001F920F920FB60F9211242F933F938F93F8
:100560009F93AF93BF9380911D0290911E02A09123
:100570001F02B091200230911C0226E0230F2D377C
:1005800020F40296A11DB11D05C029E8230F039692
:10059000A11DB11D20931C0280931D0290931E0289
:1005A000A0931F02B0932002809121029091220219
:1005B000A0912302B09124020196A11DB11D809348
:1005C000210290932202A0932302B0932402BF91B0
:1005D000AF919F918F913F912F910F900FBE0F90F0
:1005E0001F9018952FB7F89460911D0270911E020C
:1005F00080911F02909120022FBF08953FB7F89479
:100600008091210290912202A0912302B0912402B4
:1006100026B5A89B05C02F3F19F00196A11DB11D5D
:100620003FBFBA2FA92F982F8827820F911DA11D98
:10063000B11DBC01CD0143E0660F771F881F991FD4
:100640004A95D1F70895CF92DF92EF92FF92CF9320
:10065000DF936B017C010E94FE02EB01C114D10407
:10066000E104F10479F00E94FE026C1B7D0B683EF0
:100670007340A0F381E0C81AD108E108F108C8511D
:10068000DC4FECCFDF91CF91FF90EF90DF90CF90D8
:1006900008958130910539F0029729F0880F991F4C
:1006A00001970197F1F70895789484B5826084BD2D
:1006B00084B5816084BD85B5826085BD85B5816066
:1006C00085BDEEE6F0E0808181608083E1E8F0E0C6
:1006D0001082808182608083808181608083E0E8F5
:1006E000F0E0808181608083E1EBF0E080818460D4
:1006F0008083E0EBF0E0808181608083EAE7F0E0D6
:100700008081846080838081826080838081816039
:1007100080838081806880831092C1000895833037
:1007200081F028F4813099F08230A1F0089586306C
:10073000A9F08730B9F08430D1F4809180008F7DAA
:1007400003C0809180008F7780938000089584B5E6
:100750008F7702C084B58F7D84BD08958091B000ED
:100760008F7703C08091B0008F7D8093B000089593
:10077000CF93DF9390E0FC01E458FF4F2491FC01FC
:10078000E057FF4F8491882361F190E0880F991F13
:10079000FC01E255FF4FC591D491FC01EC55FF4F90
:1007A000A591B491611109C09FB7F89488812095F3
:1007B00082238883EC912E230BC0623061F49FB7B3
:1007C000F8943881822F809583238883EC912E2B97
:1007D0002C939FBF06C08FB7F894E8812E2B2883F7
:1007E0008FBFDF91CF9108951F93CF93DF93282F71
:1007F00030E0F901E859FF4F8491F901E458FF4FC7
:10080000D491F901E057FF4FC491CC23C9F0162FC2
:1008100081110E948F03EC2FF0E0EE0FFF1FEC55CB
:10082000FF4FA591B4918FB7F894111105C09C9119
:10083000ED2FE095E92302C0EC91ED2BEC938FBFF7
:10084000DF91CF911F910895FC01808191810C94DB
:100850006F1ECF93DF93EC0188819981009711F08F
:100860000E946F1E198218821D821C821B821A82AE
:10087000DF91CF9108950F931F93CF93DF93EC01F6
:100880008B016F5F7F4F888199810E94F11C0097D7
:1008900031F0998388831B830A8381E001C080E063
:1008A000DF91CF911F910F910895CF93DF93EC01CA
:1008B00088819981892B29F08A819B8186179707E6
:1008C00060F4CE010E943B04882341F08C819D811D
:1008D000892B19F4E881F981108281E0DF91CF91B1
:1008E0000895EF92FF920F931F93CF93DF93EC0144
:1008F0007B018A01BA010E945504811104C0CE0116
:100900000E94290407C01D830C83B7018881998147
:100910000E94341FCE01DF91CF911F910F91FF9064
:10092000EF900895FC0111821082138212821582C9
:10093000148216826115710551F0FB0101900020AF
:10094000E9F73197AF01461B570B0C9471040895DA
:10095000CF93DF93EC01FB018617970761F060816D
:1009600071816115710529F0448155810E947104DE
:1009700002C00E942904CE01DF91CF910895EF9229
:10098000FF920F931F93CF93DF93FC012481358156
:100990006115710511F480E019C041155105A9F0E8
:1009A0007B01EC018A01020F131FB8010E9455045C
:1009B000882389F3288139818C819D81B701820F39
:1009C000931F0E94341F1D830C8381E0DF91CF9120
:1009D0001F910F91FF90EF900895CF93DF9300D078
:1009E000CDB7DEB769831A8241E050E0BE016F5F88
:1009F0007F4F0E94BF040F900F90DF91CF91089519
:100A0000FC0124813581232B31F421E0611571052E
:100A1000A1F0FB0108C0FC01808191816115710585
:100A200031F421E0FC018081882339F005C00E9467
:100A30002B1F21E0892B09F020E0822F0895FC0173
:100A4000248135816217730748F480819181009772
:100A500029F0FC01E60FF71F8081089580E00895DA
:100A6000CF92DF92EF92FF920F931F93CF93DF937A
:100A70006C01EB017B01E40EF51E00E010E0CE15E9
:100A8000DF0561F06991D601ED91FC910190F08153
:100A9000E02DC6010995080F191FF1CFC801DF919C
:100AA000CF911F910F91FF90EF90DF90CF9008951D
:100AB0006115710579F0FB0101900020E9F731978C
:100AC000AF01461B570BDC01ED91FC910280F381D5
:100AD000E02D099480E090E00895AF92BF92CF920C
:100AE000DF92EF92FF920F931F93CF93DF936C01EE
:100AF0007B01C0E0D0E000E010E0D70114968D91BA
:100B00009C911597C817D90788F4D601ED91FC91EF
:100B1000A080B180BE01C7010E941F05682FC601D9
:100B2000F5010995080F191F2196E7CFC801DF913C
:100B3000CF911F910F91FF90EF90DF90CF90BF90DA
:100B4000AF9008950C945805DC01ED91FC91019053
:100B5000F081E02D09940F931F93CF93DF93EC0165
:100B60006DE00E94A4058C016AE0CE010E94A405FC
:100B7000800F911FDF91CF911F910F9108950F93D7
:100B80001F93CF93DF93EC010E946D058C01CE0182
:100B90000E94AB05800F911FDF91CF911F910F91A4
:100BA00008950F931F93CF93DF93EC010E94580594
:100BB0008C01CE010E94AB05800F911FDF91CF9178
:100BC0001F910F9108950F931F93CF93DF93EC0123
:100BD0000E94F202688779878A879B87E881F9817A
:100BE0000680F781E02DCE01099597FF17C00E947E
:100BF000F202088519852A853B85DC01CB01801B23
:100C0000910BA20BB30B0C811D812E813F818017AC
:100C10009107A207B30710F38FEF9FEFDF91CF91FA
:100C20001F910F9108950F931F93CF93DF93EC01C2
:100C30008B016BE371E00E949204C8010E94E305FE
:100C400097FD05C0682FCE010E94ED04F6CFCE01BE
:100C5000DF91CF911F910F9108950E9454030E943C
:100C6000EA00CEE0D7E00E9410022097E1F30E9454
:100C70000E07F9CFFC0124853585F901E05CFF4FB3
:100C800080819181329620813181821B930B8F73F9
:100C900099270895DC011C96ED91FC911D97DF01C9
:100CA000A05CBF4F2D913C91119712968D919C9114
:100CB00011972817390739F08D919C91E80FF91F8A
:100CC000808190E008958FEF9FEF0895FC01A48547
:100CD000B585FD01E05CFF4F208131813296808136
:100CE00091812817390779F080819181A80FB91F68
:100CF0008C91208131812F5F3F4F2F7333273183B8
:100D0000208390E008958FEF9FEF0895FC0181A16B
:100D1000882329F0A489B5898C9186FFFBCF11A285
:100D200008950F931F93CF93DF93FC01A685B7859A
:100D30008D01005C1F4FE8018881998101968F73B6
:100D40009927AD014E5B5F4FEA01288139818217F7
:100D50009307D1F3E80128813981A20FB31F6C9367
:100D6000A685B785A05CBF4F11969C938E93A689EC
:100D7000B7892C9181E090E0078C02C0880F991F01
:100D80000A94E2F7822B8C9381E081A30488F58991
:100D9000E02D80818064808381E090E0DF91CF91BD
:100DA0001F910F91089508951F920F920FB60F9201
:100DB00011242F934F935F938F939F93EF93FF9300
:100DC0008091C00082FD1CC02091C6008091CB02A2
:100DD0009091CC0201968F7399274091CD0250914A
:100DE000CE028417950771F0E091CB02F091CC020E
:100DF000E557FD4F20839093CC028093CB0202C035
:100E00008091C600FF91EF919F918F915F914F91DB
:100E10002F910F900FBE0F901F90189585E292E0D2
:100E20000E943A06892B11F00C94D30608951F9264
:100E30000F920FB60F9211242F933F938F939F938E
:100E4000EF93FF932091870230918802809189026D
:100E500090918A022817390731F48091C1008F7D63
:100E60008093C10014C0E0918902F0918A02E95B8D
:100E7000FD4F20818091890290918A0201968F73A3
:100E8000992790938A02809389022093C600FF914C
:100E9000EF919F918F913F912F910F900FBE0F90E7
:100EA0001F901895CF92DF92EF92FF920F931F93AE
:100EB000CF93DF93EC016A017B01EC89FD8981E02E
:100EC00090E008A002C0880F991F0A94E2F780837F
:100ED00060E874E88EE190E0A70196010E944A1F45
:100EE00089019A0101501109210931093695279587
:100EF0001795079598010115104108F042C0E8893F
:100F0000F9893083EA89FB89208319A2EE89FF8958
:100F1000408181E090E09C010C8C02C0220F331FC5
:100F20000A94E2F7242B2083EE89FF8940819C01FB
:100F30000D8C02C0220F331F0A94E2F7242B20836A
:100F4000EE89FF8940819C010E8C02C0220F331F65
:100F50000A94E2F7242B2083EE89FF8920810F8CED
:100F600002C0880F991F0A94E2F78095822380833C
:100F7000DF91CF911F910F91FF90EF90DF90CF9075
:100F80000895EC89FD89108260E472E48FE090E0BE
:100F9000A70196010E944A1FDA01C9010197A10920
:100FA000B109B695A795979587959C01A8CFE5E2DD
:100FB000F2E01382128288EE93E0A0E0B0E0848336
:100FC0009583A683B7838FEA91E0918380838BE832
:100FD00092E09587848787E492E09787868785ECFF
:100FE00090E0918B808B84EC90E0938B828B80ECF3
:100FF00090E0958B848B81EC90E0978B868B82ECD4
:1010000090E0918F808F86EC90E0938F828F84E0C8
:10101000848F83E0858F87E0868F85E0878F81E0EE
:1010200080A30895CF93DF93EC0160E08E810E944E
:10103000F40381E090E00E94490361E08E810E9408
:10104000F40381E090E00E94490360E08E810E94F9
:10105000F40384E690E0DF91CF910C944903AF92C2
:10106000BF92CF92DF92EF92FF920F931F93CF9395
:10107000DF935C017C0187E0E80EF11CC0E0D0E06A
:10108000062F10E0670161E0F70181917F010E9466
:10109000B803B8010C2E02C0759567950A94E2F763
:1010A0006170F60180810E94F4032196C430D1055D
:1010B00049F7C501DF91CF911F910F91FF90EF90FC
:1010C000DF90CF90BF90AF900C941208AF92BF9278
:1010D000CF92DF92EF92FF920F931F93CF93DF9304
:1010E0005C017C0187E0E80EF11CC0E0D0E0062F37
:1010F00010E0670161E0F70181917F010E94B80370
:10110000B8010C2E02C0759567950A94E2F76170DC
:10111000F60180810E94F4032196C830D10549F779
:10112000C501DF91CF911F910F91FF90EF90DF905C
:10113000CF90BF90AF900C9412081F93CF93DF9382
:10114000EC01162F642F8C810E94F4038D818F3F58
:1011500019F060E00E94F4038F85612F84FF06C0C0
:10116000CE01DF91CF911F910C94660870E084E06E
:10117000759567958A95E1F7CE010E942F08612F3A
:10118000CE01DF91CF911F910C942F0840E00C9479
:101190009D0861E00E94C60880ED97E00C94490329
:1011A000CF93DF93CDB7DEB728970FB6F894DEBFA5
:1011B0000FBECDBF9C0188E0ECE0F1E0DE011196AE
:1011C00001900D928A95E1F7F9018389481710F093
:1011D0004FEF480FFE013196E40FF11DE40FF11DB2
:1011E0009081690F6068C90128960FB6F894DEBF38
:1011F0000FBECDBFDF91CF910C94C608FC01608972
:10120000262F2460208B6C600C94C608CF93DF934C
:10121000EC01423018F08F8588608F874B8B1C8AD9
:10122000222329F0413019F48F8584608F8780E56F
:1012300093EC0E94490360E08C810E94F40360E01B
:101240008E810E94F4038D818F3F19F060E00E942F
:10125000F4036F8564FD1DC063E0CE010E942F087A
:1012600084E991E10E94490363E0CE010E942F08C6
:1012700084E991E10E94490363E0CE010E942F08B6
:1012800086E990E00E94490362E0CE010E942F08A7
:1012900016C06062CE010E94C60884E991E10E94F6
:1012A00049036F856062CE010E94C60886E990E01E
:1012B0000E9449036F856062CE010E94C6086F8557
:1012C0006062CE010E94C60884E0888BCE010E9435
:1012D000FE08CE010E94C90882E0898B66E0CE013B
:1012E000DF91CF910C94C6086F927F928F92AF924C
:1012F000CF92EF920F931F93CF93DF93CDB7DEB7CB
:101300003C01162F842F5D854E853F859889F3011A
:10131000848325830683E782C086A18682865387DD
:1013200044873587968761E00E94B803F301858181
:101330008F3F19F061E00E94B80361E0F3018681FC
:101340000E94B803112319F0F301178603C080E14E
:10135000F301878720E041E060E1C301DF91CF9195
:101360001F910F91EF90CF90AF908F907F906F90E3
:101370000C9406098F92AF92CF92EF920F93DC01FB
:1013800013961C921E921297EFEBF1E0ED93FC93F3
:101390001F921F921F921F928C2CAE2CC02EE22EF9
:1013A000042F2FEF462F61E00E9474090F900F90D9
:1013B0000F900F900F91EF90CF90AF908F90089576
:1013C00041E00E949D0881E090E008951F93CF9333
:1013D000DF93CDB7DEB76D970FB6F894DEBF0FBEC3
:1013E000CDBFAB011C821B8229ED31E03A832983FA
:1013F0001E8221E0BC01CE0101960E946D12182FC1
:10140000882321F0CE0101960E943911812F6D961B
:101410000FB6F894DEBF0FBECDBFDF91CF911F9105
:10142000089541110C94771381E008950F931F9351
:10143000CF93DF93DA01EB0128813981FC01E20FC0
:10144000F31F40814F3211F42F5F3F4F8D01E0E0D9
:10145000F0E0AC01420F531FEA0158815F3259F0AE
:10146000552349F031962F5F3F4FE80159938E0184
:10147000EC30F10571F7EA0FFB1F1082FC01E20F5F
:10148000F31F40814F3211F42F5F3F4FFB01318337
:101490002083FC01E20FF31F81E09081911101C0D4
:1014A00080E0DF91CF911F910F9108954F925F924D
:1014B0006F927F928F929F92AF92BF92CF92DF9264
:1014C000EF92FF920F931F93CF93DF93CDB7DEB7C9
:1014D000C954D1090FB6F894DEBF0FBECDBF5C0171
:1014E0006B013A01490119A218A289ED91E09F8F81
:1014F0008E8F1BA21C821B829A8389831E822A964E
:101500001FAE1EAE2A978B017E018EE1E80EF11C04
:1015100044244394AE01455C5F4FBE01685B7F4F3E
:10152000C5010E94160A582E482F44259401BE0179
:10153000655C7F4FC801F3010995811108C00C1546
:101540001D0519F0C8010E94391180E027C05520FF
:10155000B9F021E0AE01455C5F4FB801C7010E94C0
:101560006D12582E0C151D0599F0C8010E943911F5
:10157000552059F3902F812F8701E92EF82ECACFDD
:101580000C151D0519F0C8010E94391181E006C033
:101590008823D9F28E010F5F1F4FECCFC75BDF4F5F
:1015A0000FB6F894DEBF0FBECDBFDF91CF911F9174
:1015B0000F91FF90EF90DF90CF90BF90AF909F90F2
:1015C0008F907F906F905F904F9008950F931F932F
:1015D000CF93DF93EC01462F61E00E94241688230D
:1015E00091F08E01045F1F4F41E0BE01C8010E94CF
:1015F000DA1B882351F0B801CE018A960E94BD0EF5
:1016000091E081110AC090E008C040E0BE01C8012D
:101610000E94DA1B8823B9F3EECF892FDF91CF9197
:101620001F910F910895FC01DB0112968D919C9101
:1016300013979383828389ED91E09183808314963D
:101640008C911497848315968C91159785831696A3
:101650004D915D916D917C91199746835783608779
:1016600071871A964D915D916D917C911D9742877E
:101670005387648775871E964D915D916D917C911E
:10168000519746875787608B718B52968C915297F2
:10169000828B53964D915D916D917C915697438BC2
:1016A000548B658B768B57964D915D916D917C91A6
:1016B0005A97478B508F618F728F5B968D919C915B
:1016C0005C97948F838F08954F925F926F927F9271
:1016D0008F929F92AF92BF92CF92DF92EF92FF9242
:1016E0000F931F93CF93DF93CDB7DEB7C754D109C4
:1016F0000FB6F894DEBF0FBECDBF6C015A01490191
:10170000665D7F4F7E018EE1E80EF11CC7010E94ED
:10171000130B1C821B8289ED91E09A8389831E82C0
:101720008501FE0131963F0127016FE270E0C8019B
:101730000E94201F0097D9F1F80120812F3219F45F
:101740000F5F1F4FF2CF801B8D3008F08CE0E82E2A
:10175000F12CA701B801CE01CB960E943B1FEBE311
:10176000F0E0EC0FFD1FEE0DFF1D1082C3010E9483
:10177000391121E0AE01455C5F4FB201C3010E9407
:101780006D12811109C0F6011382128289ED91E078
:1017900091838083158214C00E0D1F1DC2010E940B
:1017A0003911942D852D2301692E782EBECF0A196B
:1017B0001B09F40111830083B201C6010E94130BBF
:1017C000C601C95BDF4F0FB6F894DEBF0FBECDBFB9
:1017D000DF91CF911F910F91FF90EF90DF90CF900D
:1017E000BF90AF909F908F907F906F905F904F9041
:1017F0000895CF92DF92FF920F931F93CF93DF93C1
:10180000CDB7DEB7C955D1090FB6F894DEBF0FBE0C
:10181000CDBF6C018A01F22E9E01285A3F4FCE01A6
:10182000CB960E94640B6A968EAD9FAD6A97080FA7
:10183000191FF801808181110AC0BE01655C7F4FCC
:10184000CE0101960E94130B43EC51E03EC019A259
:1018500018A289ED91E09F8F8E8F1BA221968FADEC
:101860002197811104C0C6010E94620D34C08250CC
:101870002F2DA801823048F469EF72E0CE014E9618
:101880000E946D1281110EC0EECFBE01655C7F4FCC
:10189000CE014E960E946D12882329F3CE01CB967D
:1018A0000E9439119F2D967041F049A95AA96BA940
:1018B0007CA9CE014E960E945C10BE01625E7F4FF5
:1018C000CE0101960E94130BA801BE016F5F7F4FEE
:1018D000C6010E942D0DC601C75ADF4F0FB6F894FE
:1018E000DEBF0FBECDBFDF91CF911F910F91FF9053
:1018F000DF90CF900895FB01BC01665D7F4F20E033
:1019000030E046EE59E0CF010C94560AFB01BC01D1
:10191000665D7F4F20E030E041E15AE0CF010C945A
:10192000560AEFECF2E0158216821186138682E0E9
:1019300090E0A0E0B0E084879587A687B78713A2E0
:1019400015A614A689ED91E093A782A717A608957E
:10195000CF93DF931F92CDB7DEB76983DC01ED91A2
:10196000FC910280F381E02D41E050E0BE016F5F09
:101970007F4F09950F90DF91CF910895CF93DF931B
:10198000EC01898D9A8D009739F481E090E09B837A
:101990008A8380E090E00BC0FC01138212820E94D7
:1019A0009E13E98DFA8D22813381232B71F7DF910C
:1019B000CF910895FC01818D928D009711F00C94C8
:1019C000F2100895CF93DF931F92CDB7DEB741E0B9
:1019D00050E0BE016F5F7F4F0E940E0F019719F418
:1019E000898190E002C08FEF9FEF0F90DF91CF9140
:1019F0000895FC01818D928D009711F00C94E20CFA
:101A00008FEF9FEF08950F931F93CF93DF93FC0108
:101A1000818D928D0097B9F0EF010E94E20C8C014C
:101A20000F3F8FEF180791F0898D9A8DFC01428549
:101A300053856485758541505109610971090E947A
:101A40005C10C80105C080E090E002C08FEF9FEFFE
:101A5000DF91CF911F910F910895EF92FF920F9315
:101A60001F93CF93DF93EC017B018A011B821A82C3
:101A700088EE93E0A0E0B0E08C839D83AE83BF83CB
:101A800089EC91E0998388838DE190E00E94DA1DD2
:101A90009A8F898F009779F02DE1F701DC01019091
:101AA0000D922A95E1F74CE050E0B801CE010C967A
:101AB0000E943B1F188EDF91CF911F910F91FF90D5
:101AC000EF900895FC011382128288EE93E0A0E06B
:101AD000B0E084839583A683B78389EC91E09183FA
:101AE0008083128E118E148608950895DC01599614
:101AF000ED91FC915A97309729F062857385848522
:101B0000958508956FEF7FEFCB010895DC0159961D
:101B1000ED91FC915A97309729F0638974898589F2
:101B20009689089560E070E0CB010895CF92DF922E
:101B3000EF92FF92CF93DF93FC01218D328D232B07
:101B4000D9F0EC010E94860D6B017C01CE010E9450
:101B5000760DA7019601261B370B480B590BDA01AE
:101B6000C901811530E89307A105B10538F08FEF61
:101B70009FE7A0E0B0E002C080E090E0DF91CF916D
:101B8000FF90EF90DF90CF900895CF93DF93EC011B
:101B9000898D9A8D009741F00E943911898D9A8D17
:101BA0000E946F1E1A8E198EDF91CF910895DC016D
:101BB0005996ED91FC915A97309721F081E09581EB
:101BC000911101C080E00895CF93DF93EC019C0157
:101BD0002A5F3F4F41E050E060E070E08B8D9C8DCC
:101BE0000E946F1A8823A1F08F89988DA98DBA8DD4
:101BF000892B8A2B8B2B59F48E819F81A885B985DF
:101C00008F8B988FA98FBA8F8C8180688C8381E0AD
:101C1000DF91CF910895CF92DF92EF92FF921F93C1
:101C2000CF93DF93EC010E94E40D811102C080E0AC
:101C30004AC0EB8DFC8DCE80DF80E884F98482E0A1
:101C4000C81AD108E108F108058404C0CC0CDD1CD9
:101C5000EE1CFF1C0A94D2F786859785A089B1896E
:101C6000C80ED91EEA1EFB1E148181E0C81AD108D5
:101C7000E108F108112361F0C701B601610F711D80
:101C8000811D911D0E94BE18882389F21150F2CF48
:101C9000EB8DFC8D80E092E0A0E0B0E0058404C014
:101CA000880F991FAA1FBB1F0A94D2F74B895C8922
:101CB0006D897E89840F951FA61FB71F8B8B9C8B08
:101CC000AD8BBE8B81E0DF91CF911F91FF90EF90A4
:101CD000DF90CF900895CF93DF93EC01462F6E8570
:101CE0007F85888999890E948318882341F08A8991
:101CF00020E2829FC00111248F5D9C4F02C080E0D2
:101D000090E0DF91CF910895FB019B01255F3F4F4C
:101D100040E24193E217F307E1F7DC0190E027E0AE
:101D20008D91882319F18E3219F0E8EBF0E008C0AC
:101D30002A3009F198E02AE0F3CF31963817D9F02C
:101D400034913111FACF2917B0F03FED380F3E35FD
:101D500090F431E0390FFB01E90FF11D9FE9980F75
:101D60009A3108F480528083932FDACF81E0FB010F
:101D70009081903209F480E008950F931F93CF93E0
:101D8000DF93FC012581222311F080E042C08B010A
:101D9000EC01FB0187898031B1F482E08D831F8AD9
:101DA000188E198E1A8E808D918DA0E0B0E025E0FE
:101DB000880F991FAA1FBB1F2A95D1F78B8B9C8B6D
:101DC000AD8BBE8B15C0803201F783E08D83FB01A4
:101DD000428D538D648D758D4F8B588F698F7A8F9F
:101DE0009E012D5E3F4FC8010E946619882369F24B
:101DF0001C8F0B8F81E08C831E821F8218861986B0
:101E00001A861B861C861D861E861F86188A198ABE
:101E10001A8ADF91CF911F910F9108952F923F92CF
:101E20004F925F926F927F928F929F92AF92BF92EA
:101E3000CF92DF92EF92FF920F931F93CF93DF9396
:101E4000EC015B014A018D81811103C08FEF9FEF8F
:101E5000D7C08C8180FFFACF4B885C886D887E88E4
:101E60004A855B856C857D85C401A0E0B0E0930167
:101E70008201041B150B260B370B081719072A07BD
:101E80003B0718F44201841A950A24011E0126E03A
:101E9000220E311C4114510409F47EC04A855B8531
:101EA0006C857D856A0181E0D822ED818A019B01E4
:101EB00089E036952795179507958A95D1F78B8DEB
:101EC0009C8DE23061F4FC01828D938DA48DB58DE3
:101ED000BC01CD01600F711F821F931F3FC0FC0129
:101EE00074807A947022C114D104C9F4711017C09F
:101EF000452B462B472B49F48F89988DA98DBA8D98
:101F00008E839F83A887B9870AC04E815F816885C9
:101F1000798591010E94E218882309F497CFEB8D0F
:101F2000FC8D8E819F81A885B9850297A109B10991
:101F3000058404C0880F991FAA1FBB1F0A94D2F7FB
:101F40004685578560897189840F951FA61FB71F25
:101F5000BC01CD01670D711D811D911D20E032E096
:101F60002C193D0932012415350508F439012C815D
:101F700026FD04C06114F2E07F0679F500910201AC
:101F80001091030120910401309105016017710740
:101F90008207930719F421C0C40132C0750183017F
:101FA0009601AB01BC0180911F03909120030E9418
:101FB000A617882309F44ACFA60CB71C8A859B85EF
:101FC000AC85BD85860D971DA11DB11D8A879B8798
:101FD000AC87BD87461857085DCF40E00E94831844
:101FE000882309F433CFF601EF5DFC4FD501CF0113
:101FF000860D971DE817F907F9F221912D93FACF75
:10200000DF91CF911F910F91FF90EF90DF90CF90D4
:10201000BF90AF909F908F907F906F905F904F9008
:102020003F902F900895FF920F931F93CF93DF93CC
:102030001F92CDB7DEB7FC012581223018F480E075
:1020400090E033C08C01FC01428553856485758521
:1020500085E076956795579547958A95D1F7F42F42
:10206000FF70FF2E41E050E0BE016F5F7F4FC8015F
:102070000E940E0F019719F4898190E002C08FEF42
:102080009FEF0196E1F2F80182859385A485B585DD
:102090004F96A11DB11D82879387A487B587F0E273
:1020A000FF9EC00111248F5D9C4F0F90DF91CF9157
:1020B0001F910F91FF9008958F929F92AF92BF92C0
:1020C000CF92DF92EF92FF920F931F93CF93DF9304
:1020D000EC018D81811102C080E077C00B891C89E1
:1020E0002D893E890417150726073707A8F36A01CB
:1020F0007B01823029F4CA86DB86EC86FD860DC022
:10210000C114D104E104F10451F41E821F82188627
:1021100019861A861B861C861D8681E056C08A8415
:102120009B84AC84BD84EB8DFC8D258530E0275FDE
:102130003F4FB501A4014150510961097109022EB7
:1021400004C076956795579547950A94D2F7D701BD
:10215000C6010197A109B10904C0B695A795979545
:1021600087952A95D2F784179507A607B70720F019
:1021700089288A288B2849F44F89588D698D7A8D52
:102180004E835F836887798704C0841B950BA60BF9
:10219000B70B4C015D018E010A5F1F4F8114910442
:1021A000A104B10409F4A7CF4E815F8168857985C8
:1021B00098018B8D9C8D0E94E21891E0891A9108FC
:1021C000A108B1088111EACF87CFDF91CF911F918C
:1021D0000F91FF90EF90DF90CF90BF90AF909F90C6
:1021E0008F9008950F931F93CF93DF93EC018D8110
:1021F0008823C9F18C8187FF30C061E0CE010E9445
:102200006B0E8C01892B79F18D81823048F48B899A
:102210009C89AD89BE89F801848F958FA68FB78F71
:102220008F89988DA98DBA8DF801938F828FB58B88
:10223000A48BE0911803F0911903309759F0B8017D
:102240006A5E7F4FC80148960995F801808D918D8F
:10225000938B828B8C818F778C83DF91CF911F91B1
:102260000F910C94481880E0DF91CF911F910F914E
:102270000895CF93DF93EC010E94F210882311F0B0
:102280001D8281E0DF91CF9108954F925F926F920E
:102290007F928F929F92AF92BF92EF92FF920F9395
:1022A0001F93CF93DF9300D000D0CDB7DEB7FC01F2
:1022B00085818130E9F4848181FF1AC08389948902
:1022C000A589B68984179507A607B70788F0892BD3
:1022D0008A2B8B2B09F479C04A015B017F01428470
:1022E000538464847584CF010E945C10811102C004
:1022F00080E06CC0F701838D948D81149104A1045A
:10230000B10471F44789508D618D728D0E94841BD8
:10231000882371F3F701178A108E118E128E3AC03E
:10232000F70146815781608571859E012F5F3F4F80
:102330000E94E2188823E1F249815A816B817C81F5
:10234000F701838D948DFC012789203129F008EF56
:102350001FEF2FEF3FE004C008EF1FEF20E030E059
:102360004017510762077307A8F40E94841B882353
:1023700009F4BECFF70146815781608571850FEF63
:102380001FEF2FEF3FE0838D948D0E94CF1988239C
:1023900009F4AECFF701838A948AA58AB68A84812C
:1023A00080688483C7010E94F210882309F4A0CFBB
:1023B000B501A401481459046A047B0410F4B30164
:1023C000A201C7010E945C1001C081E00F900F9034
:1023D0000F900F90DF91CF911F910F91FF90EF9091
:1023E000BF90AF909F908F907F906F905F904F9035
:1023F00008951F93CF93DF93EC0180E2689FF00173
:1024000011249F012F5D3C4FD9011B969C91917126
:1024100029F0842F827411F080E05BC0142F6A8B46
:102420008091020190910301A0910401B0910501F6
:102430008E879F87A88BB98BEF5DFC4F44895589A8
:1024400060E070E0BA01552744274F8B588F698FA1
:102450007A8F828D938DA0E0B0E0482B592B6A2BA8
:102460007B2B4F8B588F698F7A8FD9011B968C915C
:10247000887151F4848D958DA68DB78D8B8B9C8B37
:10248000AD8BBE8B81E00DC0803131F69E012D5E9B
:102490003F4F8B8D9C8D0E946619882309F4BCCF19
:1024A00084E08D83812F8F708C831E821F8218861B
:1024B00019861A861B861C861D8616FF09C040E0F9
:1024C00050E0BA01CE01DF91CF911F910C944511DC
:1024D00081E0DF91CF911F910895CF92DF92EF922B
:1024E000FF920F931F93CF93DF93CDB7DEB72C9757
:1024F0000FB6F894DEBF0FBECDBFFC0135813111A0
:10250000C2C0D22E8B017C01BE016F5F7F4FCA011A
:102510000E94840E882309F4B6C0F801838D948D3F
:10252000F701948F838FF801168217821086118627
:10253000128613861486158630E0F801828593850D
:10254000A485B5854389548965897689841795075B
:10255000A607B70708F041C025E0B695A79597955F
:1025600087952A95D1F7F82FFF70CF2EC8013C87A9
:102570000E9413103C85009709F485C0FC0120815E
:10258000222309F484C0253E99F04BE050E0BC01C1
:10259000CE0101963C870E940A1F3C85892B69F673
:1025A0008D2D8073803309F46EC04D2D6C2D67C066
:1025B00031116BC0F701C28A4091020150910301B1
:1025C000609104017091050146875787608B718B7C
:1025D000FC01808131E08111B0CF8D2D827182317B
:1025E00009F051C0332341F061E0C7010E946B0E36
:1025F0008C01892B79F447C0F8018581823009F478
:1026000042C0C8010E940B0E8823E9F1F701128A2B
:1026100001E213E080E2F80111928A95E9F78BE07C
:10262000FE013196D80101900D928A95E1F7E09173
:102630001803F0911903309739F0B801625F7F4FAA
:10264000C8014096099509C081E298E2F801918B92
:10265000808B80E098E097878687F8018089918950
:10266000938B828B918F808F86859785978B868BB6
:102670000E944818882339F04D2DF7016289C7015F
:102680000E94F91109C080E007C031E056CF332322
:1026900009F490CF31E0A1CF2C960FB6F894DEBFAD
:1026A0000FBECDBFDF91CF911F910F91FF90EF90A3
:1026B000DF90CF900895CF93DF93EC0140E050E09E
:1026C000BA010E944511882371F061E0CE010E9499
:1026D0006B0E009741F025EEFC0120831D82DF91F7
:1026E000CF910C94481880E0DF91CF910895CF935B
:1026F000DF93CDB7DEB76D970FB6F894DEBF0FBE90
:10270000CDBFAB011C821B8229ED31E03A832983C6
:102710001E8222E0BC01CE0101960E946D12882328
:1027200021F0CE0101960E945B136D960FB6F894CE
:10273000DEBF0FBECDBFDF91CF9108952F923F92A4
:102740004F925F926F927F928F929F92AF92BF92C1
:10275000CF92DF92EF92FF920F931F93CF93DF936D
:1027600000D000D0CDB7DEB78C016B013A01DC019F
:1027700015968C9115978130C9F414968C9181FF30
:1027800015C082FF1DC0F801438954896589768987
:1027900082859385A485B58584179507A607B70715
:1027A00079F0C8010E945C1081110AC081E090E0BC
:1027B000D80113969C938E93129780E090E048C1C5
:1027C000430184C0D8015B968D919C915C97FC017C
:1027D00054802FEF250D1A012B0139E056944794B0
:1027E000379427943A95D1F7522E52207A01F1E08E
:1027F000FF22552009F476C080E092E08E199F09EF
:1028000054018815990508F45C01D8015B962D9157
:102810003C915C9716968D919D910D90BC91A02D49
:102820000297A109B109F901058404C0880F991F15
:10283000AA1FBB1F0A94D2F7468557856089718904
:10284000840F951FA61FB71F9C01AD01250D311DDB
:10285000411D511D19012A01A11432E0B30609F0EE
:1028600088C08091020190910301A0910401B09170
:10287000050182159305A405B50559F48FEF9FEF67
:10288000DC018093020190930301A0930401B093B3
:1028900005019601B201A10180911F0390912003CF
:1028A0000E94FA17882309F481CF9EEFD91A8A185B
:1028B0009B08F80182859385A485B5858A0D9B1DAB
:1028C000A11DB11D82879387A487B587D8011A9669
:1028D0004D915D916D917C911D978114910409F04A
:1028E00071CF87C0E114F10409F086CF16964D919F
:1028F0005D916D917C9119974115510561057105A7
:1029000059F457968D919D910D90BC91A02D0097F3
:10291000A105B10541F521C09E012F5F3F4F0E94E7
:10292000E218882309F44ACF89819A81AB81BC815E
:10293000F801238D348DF9012789203129F048EFE2
:102940005FEF6FEF7FE004C048EF5FEF60E070E0A3
:1029500084179507A607B70730F0C8010E94E40D59
:1029600081114ACF23CFF80186839783A087B1874F
:1029700043CFE114F10429F5D8011A964D915D91E8
:102980006D917C911D9753968D919D910D90BC9169
:10299000A02D481759076A077B0798F00E9448182E
:1029A000882309F403CF2092020130920301409260
:1029B00004015092050180911E03816080931E03E3
:1029C00008C041E0C201B1010E948318882309F4C4
:1029D000EDCED601F701EF5DFC4FCF018A0D9B1DB7
:1029E000E817F90719F02D912193FACFCA0CDB1CD7
:1029F0005ECF5396CD90DD90ED90FC905697149657
:102A00008C91C416D506E606F70640F4F801438B10
:102A1000548B658B768B806884830DC0209118035E
:102A200030911903232B39F06114710421F080686F
:102A3000D80114968C93F801848183FD02C0C301F0
:102A400007C0C8010E94F210882309F4AFCEF7CF67
:102A50000F900F900F900F90DF91CF911F910F91DA
:102A6000FF90EF90DF90CF90BF90AF909F908F90AE
:102A70007F906F905F904F903F902F900895CF93ED
:102A8000DF931F92CDB7DEB7698341E050E0BE010E
:102A90006F5F7F4F0E949E130F90DF91CF9108953B
:102AA0008EBD0DB407FEFDCF08958FEF0E94501527
:102AB0008EB5089561E0FC0184810C94F40360E01C
:102AC000FC0184810C94F403CF93DF93FC01868195
:102AD0008823D1F08FEF8EBD4FEF878190859C01C9
:102AE0002F5F3F4F308727838130924028F40DB409
:102AF00007FEFDCF4EBDF1CF0DB407FEFDCFEF01B8
:102B0000CF010E945A151E82DF91CF910895673040
:102B100028F026E1FC01258380E008958DB560FD55
:102B200002C0663011F48E7F01C081608DBD8CB50E
:102B30008C7F8CBD9CB562FD02C080E001C082E04C
:102B400066956170692B862B8CBD81E008950F938B
:102B50001F93CF93DF93EB010E94F2028B010E943F
:102B600055158F3F49F00E94F202601B710B6C17E4
:102B70007D07A8F380E001C081E0DF91CF911F9134
:102B80000F910895CF92DF92FF920F931F93CF93EF
:102B9000DF9300D000D0CDB7DEB76C01F62E2983CD
:102BA0003A834B835C830E946415C6010E945F15C3
:102BB0006CE271E0C6010E94A7158F2D80640E940F
:102BC000501508E110E05C814B813A812981DA01DE
:102BD000C901002E04C0B695A795979587950A94CC
:102BE000D2F729833A834B835C830E9450150850A7
:102BF000110929813A814B815C81083F8FEF1807C9
:102C000031F7FF2029F0E8E0FE1204C087E803C096
:102C100085E901C08FEF0E94501510E00E94551504
:102C2000F601828787FF04C01F3F11F01F5FF6CFB8
:102C30000F900F900F900F90DF91CF911F910F91F8
:102C4000FF90DF90CF9008958F929F92AF92BF92A6
:102C5000EF92FF920F931F93CF93DF93EC01E62E39
:102C60001B8619861E821D824C830E94F2028B01F4
:102C700061E08C810E94B803CE010E945A1560E089
:102C80008CE00E94B80361E08BE00E94B80361E031
:102C90008DE00E94B80361E08AE00E94B80361E021
:102CA0008AE00E94F40383E58CBD8DB58E7F8DBDD7
:102CB0002AE0F22E8FEF0E945015FA94F110FACF0D
:102CC000CE010E945F1520E030E0A90160E0CE0156
:102CD0000E94C215F82E8A8781E0F81649F00E94FA
:102CE000F202601B710B613D774068F381E04CC0DC
:102CF0002AEA31E040E050E068E0CE010E94C215CF
:102D000082FF02C0FB860EC094E0F92E0E9455158A
:102D10008A87FA94F110FACF8A3A11F082E034C02F
:102D200082E08B878B85823021F0812C912C54019D
:102D300005C0812C912CA12C80E4B82E20E030E03D
:102D4000A90167E3CE010E94C215A501940169E2C1
:102D5000CE010E94C2158A87882349F00E94F202A0
:102D6000601B710B613D774048F388E00DC08B8597
:102D7000823039F520E030E0A9016AE3CE010E94FB
:102D8000C215882389F086E08D83CE010E945A15F2
:102D900080E0DF91CF911F910F91FF90EF90BF9056
:102DA000AF909F908F9008950E945515807C803C35
:102DB00011F483E08B870E9455150E9455150E94DF
:102DC0005515CE010E945A156E2DCE01DF91CF917F
:102DD0001F910F91FF90EF90BF90AF909F908F90B9
:102DE0000C9487150F931F93CF93DF93EC010E94F0
:102DF000F2028B010E9455158A878F3F49F40E9489
:102E0000F202601B710B6D327140A0F38FE003C0C2
:102E10008E3F39F08DE08D83CE010E945A1580E0FF
:102E200001C081E0DF91CF911F910F910895CF9262
:102E3000DF92EF92FF920F931F93CF93DF93EC01FA
:102E40006901C801820F931F8130924008F06FC062
:102E50008E81882371F088819981AA81BB8148176E
:102E600059076A077B0729F48F819885C816D90608
:102E700018F5488359836A837B838B85833039F0C7
:102E800089E0440F551F661F771F8A95D1F79A0175
:102E9000AB0161E1CE010E94C215882319F083E0E5
:102EA0008D8345C0CE010E94F216882309F43FC0ED
:102EB00018861F8281E08E838FEF8EBD2FEF8F816A
:102EC00098858C159D0550F40DB407FEFDCF2EBDE1
:102ED0008F819885019698878F83F1CFC8010197DC
:102EE000F7014FEF9F012E193F092817390738F4D2
:102EF0000DB407FEFDCF2EB521934EBDF3CF0DB41B
:102F000007FEFDCF2EB5F701E80FF91F20838F8153
:102F10009885080F191F18870F838985882319F052
:102F20000115124048F0CE010E94641505C0CE0183
:102F30000E945A1580E001C081E0DF91CF911F917E
:102F40000F91FF90EF90DF90CF900895EF92FF9256
:102F50000F931F930115110519F00E94171701C057
:102F600081E01F910F91FF90EF900895EF92FF92F3
:102F70000F931F93790100E012E020E030E00E94FF
:102F800017171F910F91FF90EF900895CF93DF9344
:102F9000EC016EBD20E030E00DB407FEFDCFFA017C
:102FA000E20FF31F80818EBD0DB407FEFDCF81813E
:102FB0008EBD2E5F3F4F211582E0380769F70DB4B3
:102FC00007FEFDCF8FEF0E9450158FEF0E94501526
:102FD0000E9455158A87982F9F71953039F081E1AD
:102FE0008D83CE010E945A1580E001C081E0DF91FF
:102FF000CF9108950F931F93CF93DF93EC01890135
:10300000411551056105710511F482E132C08B85CE
:10301000833039F089E0440F551F661F771F8A956A
:10302000D1F79A01AB0168E1CE010E94C215882355
:1030300011F084E01EC0A8016EEFCE010E94C617F9
:103040008823C1F068E572E0CE010E94A7158111C6
:1030500002C085E10EC020E030E0A9016DE0CE01A4
:103060000E94C215811104C00E945515882339F0B1
:1030700084E18D83CE010E945A1580E004C0CE0108
:103080000E945A1581E0DF91CF911F910F91089511
:1030900080911E038823A9F1409102015091030100
:1030A000609104017091050121E233E080911F03DA
:1030B000909120030E94FA17811102C080E00895C8
:1030C00040911A0350911B0360911C0370911D03E2
:1030D000411551056105710591F021E233E08091C0
:1030E0001F03909120030E94FA17882339F310924E
:1030F0001A0310921B0310921C0310921D031092CE
:103100001E0381E00895CF92DF92EF92FF92CF935A
:103110006B017C01C42F8091020190910301A09169
:103120000401B09105018C159D05AE05BF05D1F0D8
:103130000E944818811102C080E01AC021E233E0E9
:10314000B701A60180911F03909120030E94B6173A
:10315000882391F3C0920201D0920301E09204010E
:10316000F092050180911E03C82BC0931E0381E0DD
:10317000CF91FF90EF90DF90CF900895CF92DF92A4
:10318000EF92FF926B017C010E9448188823A9F0FE
:10319000E1E2F3E0119285E0E132F807D9F7C0925D
:1031A0000201D0920301E0920401F09205018091A6
:1031B0001E03816080931E0381E0FF90EF90DF90FB
:1031C000CF9008958F929F92AF92BF92CF92DF924D
:1031D000EF92FF920F931F93CF93DF93FC018185B2
:1031E0009285A385B4850196A11DB11D841795070D
:1031F000A607B70710F480E05CC083899489A5898D
:10320000B689C789C03129F4852E962EA72EBB24F6
:1032100009C04A015B01C7E0B694A79497948794CC
:10322000CA95D1F7E9016A017B018F01BC01CD018B
:10323000680D791D8A1D9B1D8090020190900301ED
:10324000A0900401B0900501681579058A059B05D9
:1032500099F4F80187898031A9F4B701A6015527AF
:1032600066277727440F551FFA01EF5DFC4F8081D9
:103270009181A0E0B0E018C040E00E948318811165
:10328000E8CFB9CFB701A6014F7755276627772733
:10329000440F551F440F551FFA01EF5DFC4F80810D
:1032A0009181A281B381BF7088839983AA83BB83F4
:1032B00081E0DF91CF911F910F91FF90EF90DF9010
:1032C000CF90BF90AF909F908F9008954F925F9254
:1032D0006F927F92AF92BF92CF92DF92EF92FF9266
:1032E0000F931F93CF93DF9300D000D0CDB7DEB7FD
:1032F0008C0149835A836B837C835901C12CD12C67
:103300007601412C82E0582E612C712C49815A8122
:103310006B817C819E012F5F3F4FC8010E94E218A4
:10332000882351F1D301C201F801058404C0880F3C
:10333000991FAA1FBB1F0A94D2F7C80ED91EEA1EF6
:10334000FB1E49815A816B817C818789803129F0FC
:1033500088EF9FEFAFEFBFE004C088EF9FEFA0E0E2
:10336000B0E0481759076A077B0780F2F501C08271
:10337000D182E282F38281E00F900F900F900F9044
:10338000DF91CF911F910F91FF90EF90DF90CF9041
:10339000BF90AF907F906F905F904F9008954F9245
:1033A0005F926F927F928F929F92AF92BF92CF92D5
:1033B000DF92EF92FF920F931F93CF93DF93EC0175
:1033C0006A017B012801390142305105610571050F
:1033D00010F480E073C089859A85AB85BC85019621
:1033E000A11DB11D84179507A607B70790F38B8819
:1033F0009C88AD88BE888F89803129F4BB27AF2D8A
:103400009E2D8D2D09C0DB01CA0147E0B695A79519
:10341000979587954A95D1F7880E991EAA1EBB1ECF
:103420008091020190910301A0910401B0910501E6
:1034300088169906AA06BB0679F48F898031A1F413
:10344000DD24EE24FF24C601880F991FFC01EF5DE7
:10345000FC4F5182408219C040E0C501B4010E9476
:1034600083188111EACFB5CFE894C7F8DD24EE24A4
:10347000FF24C601880F991F880F991FFC01EF5D7B
:10348000FC4F408251826282738280911E03816070
:1034900080931E038A89823080F08D819E81AF8166
:1034A000B885880E991EAA1EBB1E80921A039092A0
:1034B0001B03A0921C03B0921D0381E0DF91CF910A
:1034C0001F910F91FF90EF90DF90CF90BF90AF9042
:1034D0009F908F907F906F905F904F9008952F9264
:1034E0003F924F925F926F927F929F92AF92BF9264
:1034F000CF92DF92EF92FF920F931F93CF93DF93C0
:10350000CDB7DEB760970FB6F894DEBF0FBECDBF64
:103510005C0149875A876B877C871901D901CD9057
:10352000DD90ED90FC90C114D104E104F10431F080
:10353000BFEFCB1ADB0AEB0AFB0A10C0FC01C0800C
:10354000D180E280F3809924939409851A852B8594
:103550003C85013011052105310509F0912CF5015B
:1035600081859285A385B4858C019D010F5F1F4FD6
:103570002F4F3F4F0D871E872F87388B260137012E
:103580001D821E821F821886F50181859285A38582
:10359000B4850D811E812F813885081719072A07E8
:1035A0003B0708F056C02D853E854F855889241568
:1035B00035054605570550F482E0482E512C612C04
:1035C000712C92E0C92ED12CE12CF12C9E012F5FA1
:1035D0003F4FB301A201C5010E94E2188823C9F13F
:1035E00049815A816B817C81D301C2010196A11D61
:1035F000B11D452B462B472B19F06C017D010FC0E7
:10360000AC01BD014C195D096E097F0909851A8558
:103610002B853C85401751076207730779F02D8190
:103620003E814F8158852F5F3F4F4F4F5F4F2D8316
:103630003E834F8358872C013D01A6CF0FEF1FEF2C
:103640002FEF3FE0B301A201C5010E94CF19811104
:1036500018C080E041C0D301C2010197A109B1099E
:103660008D839E83AF83B88793018201AC01BD0136
:10367000C5010E94CF19882361F34D805E806F8061
:103680007884C414D504E604F70428F3D1014D91DD
:103690005D916D917C91411551056105710599F41C
:1036A000F101C082D182E282F3829920A1F0FFEF82
:1036B000CF1ADF0AEF0AFF0AD501CD92DD92ED9213
:1036C000FC92139708C097018601C5010E94CF198B
:1036D0008111E6CFBECF81E060960FB6F894DEBFD1
:1036E0000FBECDBFDF91CF911F910F91FF90EF9053
:1036F000DF90CF90BF90AF909F907F906F905F9042
:103700004F903F902F900895AF92BF92CF92DF924B
:10371000EF92FF920F931F93CF93DF9300D000D0CF
:10372000CDB7DEB75C016A017B0182E090E0A0E0EA
:10373000B0E0F50180839183A283B3839E012F5F64
:103740003F4FB701A601C5010E94E218882311F17D
:1037500000E010E09801B701A601C5010E94CF1951
:103760008823C1F0C980DA80EB80FC80F50187896D
:10377000803129F088EF9FEFAFEFBFE004C088EF02
:103780009FEFA0E0B0E0C816D906EA06FB06B0F24B
:1037900081E001C080E00F900F900F900F90DF91BB
:1037A000CF911F910F91FF90EF90DF90CF90BF903E
:1037B000AF9008958F929F92AF92BF92CF92DF9277
:1037C000EF92FF920F931F93CF93DF93EC01142F8F
:1037D0007093200360931F03442369F1453010F078
:1037E00080E0F2C040E060E070E0CB010E9483180E
:1037F0008823B1F320E1129FA00111244F5E5C4F9A
:10380000FA01E254FE4F80818F7751F73C96808118
:103810009181A281B38184369105A105B10500F3A0
:103820003497C080D180E280F380C114D104E104D8
:10383000F10421F4D5CFC12CD12C760140E0C70191
:10384000B6010E948318882359F280912C0390912D
:103850002D038115924021F690913103992309F4AB
:10386000BFCF20912F0330913003232B09F4B8CF21
:1038700080912E03882309F4B3CF9A8B8C831D8605
:1038800090E061E070E02D85E22FAB01022E02C0D6
:10389000440F551F0A94E2F78417950731F031E081
:1038A000320F3D87283078F39BCF2091370330913A
:1038B00038032115310519F040E050E008C020918F
:1038C00045033091460340914703509148032D83AF
:1038D0003E834F83588780912F0390913003460198
:1038E0005701880E991EA11CB11C8B8A9C8AAD8A37
:1038F000BE8A0091320310913303198F088FA09173
:103900003103B0E00E946C1F860E971EA81EB91EE0
:103910008A8E9B8EAC8EBD8E85E0000F111F8A951E
:10392000E1F701501E4F012F11270695800E911EC1
:10393000A11CB11C8E869F86A88AB98A2091340367
:10394000309135032115310521F0A90160E070E0C7
:1039500008C040914103509142036091430370912C
:103960004403D701C60188199909AA09BB09840F24
:10397000951FA61FB71F04C0B695A7959795879565
:10398000EA95D2F789879A87AB87BC87853F2FE076
:103990009207A105B10510F48CE014C0853F9F4F3C
:1039A000A105B10510F480E10DC080914D03909107
:1039B0004E03A0914F03B09150038A8F9B8FAC8F21
:1039C000BD8F80E28F8B81E0DF91CF911F910F91AE
:1039D000FF90EF90DF90CF90BF90AF909F908F902F
:1039E00008956F927F928F929F92AF92BF92CF92E3
:1039F000DF92EF92FF920F931F93CF93DF93EC012F
:103A0000009789F4CB01DF91CF911F910F91FF9027
:103A1000EF90DF90CF90BF90AF909F908F907F906E
:103A20006F900C94DA1DFC01E60FF71F9C012250E9
:103A30003109E217F30708F4ACC0D9010D911C91CC
:103A4000119706171707B0F00530110508F49FC04D
:103A5000C80104978617970708F499C00250110906
:103A6000061B170B019311936D937C93CF010E945A
:103A70006F1E8DC05B01A01AB10A4C01800E911E11
:103A8000A0912305B091240540E050E0E12CF12CF9
:103A9000109709F44AC0A815B905D1F56D907C902E
:103AA0001197630182E0C80ED11CCA14DB0480F1B7
:103AB000A3014A195B096A0182E0C80ED11C129663
:103AC000BC9012971396AC91B5E0CB16D10440F0A0
:103AD000B282A38351834083D9016D937C930AC042
:103AE0000E5F1F4FC301800F911FF90191838083E7
:103AF000EB2DFA2FE114F10431F0D7011396FC936A
:103B0000EE93129744C0F0932405E09323053FC041
:103B10008D919C9111974817590708F4AC017D01CC
:103B200012960D90BC91A02DB3CF8091210590915C
:103B3000220588159905E1F446175707C8F48091C6
:103B4000060190910701009741F48DB79EB740910F
:103B50000A0150910B01841B950BE817F907C8F473
:103B6000F0932205E0932105F901718360830FC072
:103B7000CB010E94DA1D7C01009759F0A801BE011B
:103B80000E94171FCE010E946F1EC70104C0CE0104
:103B900002C080E090E0DF91CF911F910F91FF90E4
:103BA000EF90DF90CF90BF90AF909F908F907F90DD
:103BB0006F900895CF93DF938230910510F482E0E7
:103BC00090E0E0912305F091240520E030E0C0E092
:103BD000D0E0309711F14081518148175907C0F06A
:103BE0004817590761F482819381209719F09B83CC
:103BF0008A832BC0909324058093230526C021152A
:103C0000310519F04217530718F49A01BE01DF017C
:103C1000EF010280F381E02DDCCF2115310509F1A0
:103C2000281B390B2430310590F412968D919C910C
:103C300013976115710521F0FB019383828304C002
:103C40009093240580932305FD01329644C0FD0125
:103C5000E20FF31F81939193225031092D933C93EE
:103C60003AC02091210530912205232B41F4209167
:103C700008013091090130932205209321052091FC
:103C80000601309107012115310541F42DB73EB7EA
:103C900040910A0150910B01241B350BE091210545
:103CA000F0912205E217F307A0F42E1B3F0B281713
:103CB000390778F0AC014E5F5F4F2417350748F0A5
:103CC0004E0F5F1F509322054093210581939193DE
:103CD00002C0E0E0F0E0CF01DF91CF9108950F93B3
:103CE0001F93CF93DF93009709F48CC0FC013297A8
:103CF00013821282009123051091240501151105EC
:103D000081F420813181820F931F20912105309110
:103D100022052817390779F5F0932205E09321054C
:103D200071C0D80140E050E0AE17BF0750F41296C2
:103D30002D913C911397AD012115310509F1D90160
:103D4000F3CF9D01DA013383228360817181860F75
:103D5000971F8217930769F4EC0128813981260F98
:103D6000371F2E5F3F4F318320838A819B8193834E
:103D70008283452B29F4F0932405E093230542C068
:103D80001396FC93EE931297ED01499159919E0180
:103D9000240F351FE217F30771F480819181840F9E
:103DA000951F029611969C938E9382819381139610
:103DB0009C938E931297E0E0F0E0D80112968D91DB
:103DC0009C911397009719F0F8018C01F6CF8D9113
:103DD0009C9198012E5F3F4F820F931F20912105E8
:103DE000309122052817390769F4309729F4109289
:103DF00024051092230502C013821282109322051B
:103E000000932105DF91CF911F910F910895F894B0
:103E10000C948C1FFB01DC0104C08D910190801972
:103E200021F441505040C8F7881B990B0895FB01BD
:103E3000DC0102C001900D9241505040D8F7089526
:103E4000FC018191861721F08823D9F799270895DD
:103E50003197CF010895FB01DC018D91019080190C
:103E60000110D9F3990B0895FB01DC0101900D922B
:103E70000020E1F70895FB01DC014150504048F07B
:103E800001900D920020C9F701C01D924150504091
:103E9000E0F70895A1E21A2EAA1BBB1BFD010DC07D
:103EA000AA1FBB1FEE1FFF1FA217B307E407F507EA
:103EB00020F0A21BB30BE40BF50B661F771F881FC6
:103EC000991F1A9469F760957095809590959B015C
:103ED000AC01BD01CF0108950E947D1FA59F900DEB
:103EE000B49F900DA49F800D911D11240895EE0F95
:103EF000FF1F0590F491E02D0994A29FB001B39F9C
:103F0000C001A39F700D811D1124911DB29F700DE2
:103F1000811D1124911D089510E0C7E6D0E004C072
:103F2000FE010E94771F2196C836D107C9F7F89481
:023F3000FFCFC1
:103F32000A00FFFFFFFF000025058000000040008F
:103F420014005400746573742E7478740053442002
:103F52006661696C00696E697469616C697A617421
:103F6200696F6E206661696C656421005344206448
:103F72006F6E6500696E697469616C697A617469F2
:103F82006F6E20646F6E652E0057726974696E677A
:103F92000074657374696E67006572726F720045B2
:103FA20072726F72207768696C65206F70656E69D6
:103FB2006E672053440046696C65206F70656E65BC
:103FC200640052656164696E672066696C652E2EB5
:103FD2002E0073656E6464617461000000000091DC
:103FE2000630053A0666064A06860600000000E02C
:103FF2000930052F0000000000A80CBE0C960DF938
:0E4002000C030DDA0C000000003F1530050025
:00000001FF
