:100000000C9468000C9490000C9490000C94900058
:100010000C9490000C9490000C9490000C94900020
:100020000C9490000C9490000C9490000C94900010
:100030000C9490000C9490000C9490000C94900000
:100040000C94F8190C9490000C9434050C947705DA
:100050000C9490000C9490000C9490000C949000E0
:100060000C9490000C949000000000070002010026
:100070000003040600000000000000000102040864
:100080001020408001020408102001020408102002
:10009000040404040404040402020202020203032E
:1000A0000303030300000000250028002B000000CC
:1000B0000000240027002A007C3C3E5E2B3D3F2FA1
:1000C0005B5D3B2C2A225C00D9003706DB09FC0073
:1000D00011241FBECFEFD8E0DEBFCDBF11E0A0E0FE
:1000E000B1E0E8E7FAE302C005900D92A43BB10746
:1000F000D9F724E0A4EBB1E001C01D92AB3FB207F9
:10010000E1F710E0C7E6D0E004C02197FE010E94AD
:100110001A1DC436D107C9F70E948D040C94AA1C7D
:100120000C94000062E081E10E94180262E080E12C
:100130000E94180262E08FE00E94180260E08EE0E8
:100140000E94180261E0809100010E94180220E0E4
:1001500042E068E084EB91E00E94660740E855E2E7
:1001600060E070E082EF91E00E94B20540E060E064
:1001700084EB91E00E943007609100018CE992E0ED
:100180000E944608811109C064E171E084EB91E0AE
:100190000E9402046CE171E008C063E371E084EB4B
:1001A00091E00E9402046BE371E082EF91E00C9415
:1001B0003104CF92EF920F9387ED91E00E94AC0A49
:1001C00060E571E080ED91E00E94F20263E671E08B
:1001D00089EC91E00E94F20289E0C82E98E0E92EB5
:1001E00007E026E045E064E084EB91E00E941A0815
:1001F0000F91EF90CF90089589EC91E00E948402D6
:1002000080ED91E00E94840287ED91E00C94BF0A9A
:10021000CF93DF93CDB7DEB76B970FB6F894DEBF01
:100220000FBECDBF82EF91E00E949A04892B09F4A2
:10023000CDC062EF71E0CE0101960E947304BE0151
:100240006F5F7F4F89EC91E00E940803CE01019619
:100250000E94840269E571E089EC91E00E946003EC
:10026000882309F468C021E040E551E06CE972E0C0
:10027000CE0101960E9459098B819C819093DA01ED
:100280008093D9018D819E81AF81B8858093DB01F8
:100290009093DC01A093DD01B093DE0189859A85FE
:1002A000AB85BC858093DF019093E001A093E101D1
:1002B000B093E2018DE0FE013D96A3EEB1E0019026
:1002C0000D928A95E1F78A8D9B8D9093F101809331
:1002D000F001CE0101960E94BF0A87ED91E00E94D5
:1002E000210B8823D9F087ED91E00E94E00A892B49
:1002F00051F087ED91E00E94430A682F82EF91E070
:100300000E940404F0CF87ED91E00E940F0B62E69B
:1003100071E082EF91E00E94310458C064E671E020
:1003200084EB91E00E9431046AE671E082EF91E093
:100330000E9402044BC023E140E551E06CE972E009
:10034000CE0101960E9459098B819C819093DA011C
:100350008093D9018D819E81AF81B8858093DB0127
:100360009093DC01A093DD01B093DE0189859A852D
:10037000AB85BC858093DF019093E001A093E10100
:10038000B093E2018DE0FE013D96A3EEB1E0019055
:100390000D928A95E1F78A8D9B8D9093F101809360
:1003A000F001CE0101960E94BF0A87ED91E00E9404
:1003B000210B882309F4B2CF69EC71E087ED91E05D
:1003C0000E941F0487ED91E00E940F0B6B960FB601
:1003D000F894DEBF0FBECDBFDF91CF91089583307B
:1003E00081F028F4813099F08230A1F008958630B0
:1003F000A9F08730B9F08430D1F4809180008F7DEE
:1004000003C0809180008F7780938000089584B529
:100410008F7702C084B58F7D84BD08958091B00030
:100420008F7703C08091B0008F7D8093B0000895D6
:10043000CF93DF9390E0FC01E458FF4F2491FC013F
:10044000E057FF4F8491882361F190E0880F991F56
:10045000FC01E255FF4FC591D491FC01EC55FF4FD3
:10046000A591B491611109C09FB7F8948881209536
:1004700082238883EC912E230BC0623061F49FB7F6
:10048000F8943881822F809583238883EC912E2BDA
:100490002C939FBF06C08FB7F894E8812E2B28833A
:1004A0008FBFDF91CF9108951F93CF93DF93282FB4
:1004B00030E0F901E859FF4F8491F901E458FF4F0A
:1004C000D491F901E057FF4FC491CC23C9F0162F06
:1004D00081110E94EF01EC2FF0E0EE0FFF1FEC55B1
:1004E000FF4FA591B4918FB7F894111105C09C915D
:1004F000ED2FE095E92302C0EC91ED2BEC938FBF3B
:10050000DF91CF911F910895FC01808191810C941E
:10051000121CCF93DF93EC0188819981009711F031
:100520000E94121C198218821D821C821B821A8250
:10053000DF91CF9108950F931F93CF93DF93EC0139
:100540008B016F5F7F4F888199810E94941A009779
:1005500031F0998388831B830A8381E001C080E0A6
:10056000DF91CF911F910F910895CF93DF93EC010D
:1005700088819981892B29F08A819B818617970729
:1005800060F4CE010E949B02882341F08C819D8102
:10059000892B19F4E881F981108281E0DF91CF91F4
:1005A0000895EF92FF920F931F93CF93DF93EC0187
:1005B0007B018A01BA010E94B502811104C0CE01FB
:1005C0000E94890207C01D830C83B701888199812D
:1005D0000E94D71CCE01DF91CF911F910F91FF9008
:1005E000EF900895FC01118210821382128215820D
:1005F000148216826115710551F0FB0101900020F3
:10060000E9F73197AF01461B570B0C94D1020895BF
:10061000CF93DF93EC01FB018617970761F06081B0
:1006200071816115710529F0448155810E94D102C3
:1006300002C00E948902CE01DF91CF910895EF920E
:10064000FF920F931F93CF93DF93FC012481358199
:100650006115710511F480E019C041155105A9F02B
:100660007B01EC018A01020F131FB8010E94B50241
:10067000882389F3288139818C819D81B701820F7C
:10068000931F0E94D71C1D830C8381E0DF91CF91C3
:100690001F910F91FF90EF900895CF93DF9300D0BB
:1006A000CDB7DEB769831A8241E050E0BE016F5FCB
:1006B0007F4F0E941F030F900F90DF91CF910895FD
:1006C000FC0124813581232B31F421E06115710572
:1006D000A1F0FB0108C0FC018081918161157105C9
:1006E00031F421E0FC018081882339F005C00E94AB
:1006F000CE1C21E0892B09F020E0822F0895FC0117
:10070000248135816217730748F4808191810097B5
:1007100029F0FC01E60FF71F8081089580E008951D
:10072000CF92DF92EF92FF920F931F93CF93DF93BD
:100730006C01EB017B01E40EF51E00E010E0CE152C
:10074000DF0561F06991D601ED91FC910190F08196
:10075000E02DC6010995080F191FF1CFC801DF91DF
:10076000CF911F910F91FF90EF90DF90CF90089560
:100770006115710579F0FB0101900020E9F73197CF
:10078000AF01461B570BDC01ED91FC910280F38118
:10079000E02D099480E090E00895AF92BF92CF924F
:1007A000DF92EF92FF920F931F93CF93DF936C0131
:1007B0007B01C0E0D0E000E010E0D70114968D91FD
:1007C0009C911597C817D90788F4D601ED91FC9133
:1007D000A080B180BE01C7010E947F03682FC601BF
:1007E000F5010995080F191F2196E7CFC801DF9180
:1007F000CF911F910F91FF90EF90DF90CF90BF901E
:10080000AF9008950C94B803DC01ED91FC91019038
:10081000F081E02D09940F931F93CF93DF93EC01A8
:100820006DE00E9404048C016AE0CE010E94040481
:10083000800F911FDF91CF911F910F9108950F931A
:100840001F93CF93DF93EC010E94CD038C01CE0167
:100850000E940B04800F911FDF91CF911F910F9188
:1008600008950F931F93CF93DF93EC010E94B80379
:100870008C01CE010E940B04800F911FDF91CF915C
:100880001F910F9108950F931F93CF93DF93EC0166
:100890000E94421A688779878A879B87E881F98155
:1008A0000680F781E02DCE01099597FF17C00E94C1
:1008B000421A088519852A853B85DC01CB01801BFE
:1008C000910BA20BB30B0C811D812E813F818017F0
:1008D0009107A207B30710F38FEF9FEFDF91CF913E
:1008E0001F910F9108950F931F93CF93DF93EC0106
:1008F0008B0163E671E00E94F202C8010E9443048A
:1009000097FD05C0682FCE010E944D03F6CFCE01A2
:10091000DF91CF911F910F9108950E94591A0E9463
:100920009200CEE6D5E00E9408012097E1F30E94F4
:100930006E05F9CFFC0124853585F901E05CFF4F98
:1009400080819181329620813181821B930B8F733C
:1009500099270895DC011C96ED91FC911D97DF010C
:10096000A05CBF4F2D913C91119712968D919C9157
:1009700011972817390739F08D919C91E80FF91FCD
:10098000808190E008958FEF9FEF0895FC01A4858A
:10099000B585FD01E05CFF4F208131813296808179
:1009A00091812817390779F080819181A80FB91FAB
:1009B0008C91208131812F5F3F4F2F7333273183FB
:1009C000208390E008958FEF9FEF0895FC0181A1AF
:1009D000882329F0A489B5898C9186FFFBCF11A2C9
:1009E00008950F931F93CF93DF93FC01A685B785DE
:1009F0008D01005C1F4FE8018881998101968F73FA
:100A00009927AD014E5B5F4FEA012881398182173A
:100A10009307D1F3E80128813981A20FB31F6C93AA
:100A2000A685B785A05CBF4F11969C938E93A6892F
:100A3000B7892C9181E090E0078C02C0880F991F44
:100A40000A94E2F7822B8C9381E081A30488F589D4
:100A5000E02D80818064808381E090E0DF91CF9100
:100A60001F910F91089508951F920F920FB60F9244
:100A700011242F934F935F938F939F93EF93FF9343
:100A80008091C00082FD1CC02091C6008091980218
:100A90009091990201968F73992740919A025091F3
:100AA0009B028417950771F0E0919802F0919902EA
:100AB000E85AFD4F2083909399028093980202C0D8
:100AC0008091C600FF91EF919F918F915F914F911F
:100AD0002F910F900FBE0F901F90189582EF91E00D
:100AE0000E949A04892B11F00C94330508951F92EB
:100AF0000F920FB60F9211242F933F938F939F93D2
:100B0000EF93FF9320915402309155028091560249
:100B1000909157022817390731F48091C1008F7DD9
:100B20008093C10014C0E0915602F0915702EC5E30
:100B3000FD4F2081809156029091570201968F734C
:100B4000992790935702809356022093C600FF91F5
:100B5000EF919F918F913F912F910F900FBE0F902A
:100B60001F901895CF92DF92EF92FF920F931F93F1
:100B7000CF93DF93EC016A017B01EC89FD8981E071
:100B800090E008A002C0880F991F0A94E2F78083C2
:100B900060E874E88EE190E0A70196010E94ED1CE8
:100BA00089019A01015011092109310936952795CA
:100BB0001795079598010115104108F042C0E88982
:100BC000F9893083EA89FB89208319A2EE89FF899C
:100BD000408181E090E09C010C8C02C0220F331F09
:100BE0000A94E2F7242B2083EE89FF8940819C013F
:100BF0000D8C02C0220F331F0A94E2F7242B2083AE
:100C0000EE89FF8940819C010E8C02C0220F331FA8
:100C10000A94E2F7242B2083EE89FF8920810F8C30
:100C200002C0880F991F0A94E2F78095822380837F
:100C3000DF91CF911F910F91FF90EF90DF90CF90B8
:100C40000895EC89FD89108260E472E48FE090E001
:100C5000A70196010E94ED1CDA01C9010197A109C3
:100C6000B109B695A795979587959C01A8CFE2EF16
:100C7000F1E01382128288EE93E0A0E0B0E084837A
:100C80009583A683B78385E891E09183808388E587
:100C900092E09587848784E192E09787868785EC48
:100CA00090E0918B808B84EC90E0938B828B80EC36
:100CB00090E0958B848B81EC90E0978B868B82EC17
:100CC00090E0918F808F86EC90E0938F828F84E00C
:100CD000848F83E0858F87E0868F85E0878F81E032
:100CE00080A30895CF93DF93EC0160E08E810E9492
:100CF000540281E090E00E944E1A61E08E810E94D1
:100D0000540281E090E00E944E1A60E08E810E94C1
:100D1000540284E690E0DF91CF910C944E1AAF928A
:100D2000BF92CF92DF92EF92FF920F931F93CF93D8
:100D3000DF935C017C0187E0E80EF11CC0E0D0E0AD
:100D4000062F10E0670161E0F70181917F010E94A9
:100D50001802B8010C2E02C0759567950A94E2F747
:100D60006170F60180810E9454022196C430D10541
:100D700049F7C501DF91CF911F910F91FF90EF903F
:100D8000DF90CF90BF90AF900C947206AF92BF925D
:100D9000CF92DF92EF92FF920F931F93CF93DF9347
:100DA0005C017C0187E0E80EF11CC0E0D0E0062F7A
:100DB00010E0670161E0F70181917F010E94180254
:100DC000B8010C2E02C0759567950A94E2F7617020
:100DD000F60180810E9454022196C830D10549F75E
:100DE000C501DF91CF911F910F91FF90EF90DF90A0
:100DF000CF90BF90AF900C9472061F93CF93DF9368
:100E0000EC01162F642F8C810E9454028D818F3F3C
:100E100019F060E00E9454028F85612F84FF06C0A4
:100E2000CE01DF91CF911F910C94C60670E084E053
:100E3000759567958A95E1F7CE010E948F06612F1F
:100E4000CE01DF91CF911F910C948F0640E00C945E
:100E5000FD0661E00E94260780ED97E00C944E1A93
:100E6000CF93DF93CDB7DEB728970FB6F894DEBFE8
:100E70000FBECDBF9C0188E0ECE0F1E0DE011196F1
:100E800001900D928A95E1F7F9018389481710F0D6
:100E90004FEF480FFE013196E40FF11DE40FF11DF5
:100EA0009081690F6068C90128960FB6F894DEBF7B
:100EB0000FBECDBFDF91CF910C942607FC01608956
:100EC000262F2460208B6C600C942607CF93DF9331
:100ED000EC01423018F08F8588608F874B8B1C8A1D
:100EE000222329F0413019F48F8584608F8780E5B3
:100EF00093EC0E944E1A60E08C810E94540260E0E4
:100F00008E810E9454028D818F3F19F060E00E9413
:100F100054026F8564FD1DC063E0CE010E948F0600
:100F200084E991E10E944E1A63E0CE010E948F068F
:100F300084E991E10E944E1A63E0CE010E948F067F
:100F400086E990E00E944E1A62E0CE010E948F0670
:100F500016C06062CE010E94260784E991E10E94DA
:100F60004E1A6F856062CE010E94260786E990E0E6
:100F70000E944E1A6F856062CE010E9426076F851F
:100F80006062CE010E94260784E0888BCE010E9419
:100F90005E07CE010E94290782E0898B66E0CE01C0
:100FA000DF91CF910C9426076F927F928F92AF9230
:100FB000CF92EF920F931F93CF93DF93CDB7DEB70E
:100FC0003C01162F842F5D854E853F859889F3015E
:100FD000848325830683E782C086A1868286538721
:100FE00044873587968761E00E941802F301858166
:100FF0008F3F19F061E00E94180261E0F3018681E1
:101000000E941802112319F0F301178603C080E132
:10101000F301878720E041E060E1C301DF91CF91D8
:101020001F910F91EF90CF90AF908F907F906F9026
:101030000C9466078F92AF92CF92EF920F93DC01E0
:1010400013961C921E921297E5E9F1E0ED93FC9342
:101050001F921F921F921F928C2CAE2CC02EE22E3C
:10106000042F2FEF462F61E00E94D4070F900F90BE
:101070000F900F900F91EF90CF90AF908F900895B9
:1010800041E00E94FD0681E090E008950F931F93D8
:10109000CF93DF93EC01462F61E00E942B1388234E
:1010A00091F08E01045F1F4F41E0BE01C8010E9414
:1010B000E118882351F0B801CE018A960E94070CEE
:1010C00091E081110AC090E008C040E0BE01C80173
:1010D0000E94E1188823B9F3EECF892FDF91CF91D9
:1010E0001F910F910895FC01DB0112968D919C9147
:1010F0001397938382838FEA91E091838083149680
:101100008C911497848315968C91159785831696E8
:101110004D915D916D917C911997468357836087BE
:1011200071871A964D915D916D917C911D974287C3
:101130005387648775871E964D915D916D917C9163
:10114000519746875787608B718B52968C91529737
:10115000828B53964D915D916D917C915697438B07
:10116000548B658B768B57964D915D916D917C91EB
:101170005A97478B508F618F728F5B968D919C91A0
:101180005C97948F838F08954F925F926F927F92B6
:101190008F929F92AF92BF92CF92DF92EF92FF9287
:1011A0000F931F93CF93DF93CDB7DEB7C754D10909
:1011B0000FB6F894DEBF0FBECDBF6C015A014901D6
:1011C000665D7F4F7E018EE1E80EF11CC7010E9433
:1011D00073081C821B828FEA91E09A8389831E82A6
:1011E0008501FE0131963F0127016FE270E0C801E1
:1011F0000E94C31C0097D9F1F80120812F3219F405
:101200000F5F1F4FF2CF801B8D3008F08CE0E82E6F
:10121000F12CA701B801CE01CB960E94DE1CEBE3B6
:10122000F0E0EC0FFD1FEE0DFF1D1082C3010E94C8
:10123000830E21E0AE01455C5F4FB201C3010E9405
:10124000B70F811109C0F601138212828FEA91E073
:1012500091838083158214C00E0D1F1DC2010E9450
:10126000830E942D852D2301692E782EBECF0A1969
:101270001B09F40111830083B201C6010E947308A7
:10128000C601C95BDF4F0FB6F894DEBF0FBECDBFFE
:10129000DF91CF911F910F91FF90EF90DF90CF9052
:1012A000BF90AF909F908F907F906F905F904F9086
:1012B0000895CF92DF92FF920F931F93CF93DF9306
:1012C000CDB7DEB7C955D1090FB6F894DEBF0FBE52
:1012D000CDBF6C018A01F22E9E01285A3F4FCE01EC
:1012E000CB960E94C4086A968EAD9FAD6A97080F90
:1012F000191FF801808181110AC0BE01655C7F4F12
:10130000CE0101960E94730849E951E03EC019A23E
:1013100018A28FEA91E09F8F8E8F1BA221968FAD2E
:101320002197811104C0C6010E94AC0A34C08250CA
:101330002F2DA801823048F466EC72E0CE014E9663
:101340000E94B70F81110EC0EECFBE01655C7F4FCA
:10135000CE014E960E94B70F882329F3CE01CB967B
:101360000E94830E9F2D967041F049A95AA96BA93E
:101370007CA9CE014E960E94A60DBE01625E7F4FF3
:10138000CE0101960E947308A801BE016F5F7F4FD6
:10139000C6010E94770AC601C75ADF4F0FB6F894FC
:1013A000DEBF0FBECDBFDF91CF911F910F91FF9098
:1013B000DF90CF900895ECE9F2E015821682118655
:1013C000138682E090E0A0E0B0E084879587A6874E
:1013D000B78713A215A614A68FEA91E093A782A758
:1013E00017A60895CF93DF931F92CDB7DEB7698319
:1013F000DC01ED91FC910280F381E02D41E050E0B1
:10140000BE016F5F7F4F09950F90DF91CF910895D7
:10141000CF93DF93EC01898D9A8D009739F481E0A9
:1014200090E09B838A8380E090E00BC0FC011382F4
:1014300012820E94A510E98DFA8D22813381232B1F
:1014400071F7DF91CF910895FC01818D928D009706
:1014500011F00C943C0E0895CF93DF931F92CDB7FB
:10146000DEB741E050E0BE016F5F7F4F0E94580C35
:10147000019719F4898190E002C08FEF9FEF0F90E0
:10148000DF91CF910895FC01818D928D009711F02D
:101490000C942C0A8FEF9FEF08950F931F93CF9317
:1014A000DF93FC01818D928D0097B9F0EF010E94CE
:1014B0002C0A8C010F3F8FEF180791F0898D9A8DC0
:1014C000FC01428553856485758541505109610948
:1014D00071090E94A60DC80105C080E090E002C01D
:1014E0008FEF9FEFDF91CF911F910F910895EF92B2
:1014F000FF920F931F93CF93DF93EC017B018A013F
:101500001B821A8288EE93E0A0E0B0E08C839D837A
:10151000AE83BF838FE991E0998388838DE190E06A
:101520000E947D1B9A8F898F009779F02DE1F7013A
:10153000DC0101900D922A95E1F74CE050E0B801F2
:10154000CE010C960E94DE1C188EDF91CF911F9168
:101550000F91FF90EF900895FC011382128288EEA4
:1015600093E0A0E0B0E084839583A683B7838FE9FE
:1015700091E091838083128E118E148608950895D0
:10158000DC015996ED91FC915A97309729F06285CC
:1015900073858485958508956FEF7FEFCB0108955E
:1015A000DC015996ED91FC915A97309729F06389A7
:1015B000748985899689089560E070E0CB0108956B
:1015C000CF92DF92EF92FF92CF93DF93FC01218DB8
:1015D000328D232BD9F0EC010E94D00A6B017C01E3
:1015E000CE010E94C00AA7019601261B370B480BAB
:1015F000590BDA01C901811530E89307A105B1053E
:1016000038F08FEF9FE7A0E0B0E002C080E090E00C
:10161000DF91CF91FF90EF90DF90CF900895CF931F
:10162000DF93EC01898D9A8D009741F00E94830E23
:10163000898D9A8D0E94121C1A8E198EDF91CF917E
:101640000895DC015996ED91FC915A97309721F05D
:1016500081E09581911101C080E00895CF93DF93DF
:10166000EC019C012A5F3F4F41E050E060E070E0F8
:101670008B8D9C8D0E9476178823A1F08F89988D81
:10168000A98DBA8D892B8A2B8B2B59F48E819F8142
:10169000A885B9858F8B988FA98FBA8F8C81806828
:1016A0008C8381E0DF91CF910895CF92DF92EF920A
:1016B000FF921F93CF93DF93EC010E942E0B8111B9
:1016C00002C080E04AC0EB8DFC8DCE80DF80E884D4
:1016D000F98482E0C81AD108E108F108058404C041
:1016E000CC0CDD1CEE1CFF1C0A94D2F78685978576
:1016F000A089B189C80ED91EEA1EFB1E148181E0A3
:10170000C81AD108E108F108112361F0C701B60138
:10171000610F711D811D911D0E94C515882389F2DD
:101720001150F2CFEB8DFC8D80E092E0A0E0B0E0B4
:10173000058404C0880F991FAA1FBB1F0A94D2F703
:101740004B895C896D897E89840F951FA61FB71F01
:101750008B8B9C8BAD8BBE8B81E0DF91CF911F91EA
:10176000FF90EF90DF90CF900895CF93DF93EC013F
:10177000462F6E857F85888999890E948A158823DE
:1017800041F08A8920E2829FC001112482519D4F3D
:1017900002C080E090E0DF91CF910895FB019B01B2
:1017A000255F3F4F40E24193E217F307E1F7DC0189
:1017B00090E027E08D91882319F18E3219F0E8EB43
:1017C000F0E008C02A3009F198E02AE0F3CF319622
:1017D0003817D9F034913111FACF2917B0F03FED15
:1017E000380F3E3590F431E0390FFB01E90FF11D60
:1017F0009FE9980F9A3108F480528083932FDACFB3
:1018000081E0FB019081903209F480E008950F930C
:101810001F93CF93DF93FC012581222311F080E0F9
:1018200042C08B01EC01FB0187898031B1F482E079
:101830008D831F8A188E198E1A8E808D918DA0E04F
:10184000B0E025E0880F991FAA1FBB1F2A95D1F78A
:101850008B8B9C8BAD8BBE8B15C0803201F783E0E8
:101860008D83FB01428D538D648D758D4F8B588F09
:10187000698F7A8F9E012D5E3F4FC8010E946D16C1
:10188000882369F21C8F0B8F81E08C831E821F825C
:10189000188619861A861B861C861D861E861F863C
:1018A000188A198A1A8ADF91CF911F910F91089592
:1018B0002F923F924F925F926F927F928F929F9260
:1018C000AF92BF92CF92DF92EF92FF920F931F934E
:1018D000CF93DF93EC015B014A018D81811103C03D
:1018E0008FEF9FEFD7C08C8180FFFACF4B885C8849
:1018F0006D887E884A855B856C857D85C401A0E006
:10190000B0E093018201041B150B260B370B08175F
:1019100019072A073B0718F44201841A950A240183
:101920001E0126E0220E311C4114510409F47EC030
:101930004A855B856C857D856A0181E0D822ED81D1
:101940008A019B0189E036952795179507958A9519
:10195000D1F78B8D9C8DE23061F4FC01828D938DEB
:10196000A48DB58DBC01CD01600F711F821F931F27
:101970003FC0FC0174807A947022C114D104C9F470
:10198000711017C0452B462B472B49F48F89988D32
:10199000A98DBA8D8E839F83A887B9870AC04E818F
:1019A0005F816885798591010E94E915882309F492
:1019B00097CFEB8DFC8D8E819F81A885B98502978D
:1019C000A109B109058404C0880F991FAA1FBB1F74
:1019D0000A94D2F74685578560897189840F951FCF
:1019E000A61FB71FBC01CD01670D711D811D911D83
:1019F00020E032E02C193D0932012415350508F4A8
:101A000039012C8126FD04C06114F2E07F0679F5CE
:101A10000091020110910301209104013091050110
:101A2000601771078207930719F421C0C40132C0FF
:101A3000750183019601AB01BC018091EC0290918C
:101A4000ED020E94AD14882309F44ACFA60CB71CFE
:101A50008A859B85AC85BD85860D971DA11DB11D11
:101A60008A879B87AC87BD87461857085DCF40E0C3
:101A70000E948A15882309F433CFF601E251FD4F05
:101A8000D501CF01860D971DE817F907F9F22191CD
:101A90002D93FACFDF91CF911F910F91FF90EF908F
:101AA000DF90CF90BF90AF909F908F907F906F907E
:101AB0005F904F903F902F900895FF920F931F9348
:101AC000CF93DF931F92CDB7DEB7FC012581223083
:101AD00018F480E090E033C08C01FC01428553850E
:101AE0006485758585E076956795579547958A95C0
:101AF000D1F7F42FFF70FF2E41E050E0BE016F5F81
:101B00007F4FC8010E94580C019719F4898190E019
:101B100002C08FEF9FEF0196E1F2F8018285938575
:101B2000A485B5854F96A11DB11D82879387A48793
:101B3000B587F0E2FF9EC001112482519D4F0F90A6
:101B4000DF91CF911F910F91FF9008958F929F92F7
:101B5000AF92BF92CF92DF92EF92FF920F931F93BB
:101B6000CF93DF93EC018D81811102C080E077C0BB
:101B70000B891C892D893E8904171507260737070D
:101B8000A8F36A017B01823029F4CA86DB86EC86E1
:101B9000FD860DC0C114D104E104F10451F41E828C
:101BA0001F82188619861A861B861C861D8681E070
:101BB00056C08A849B84AC84BD84EB8DFC8D2585C6
:101BC00030E0275F3F4FB501A40141505109610941
:101BD0007109022E04C076956795579547950A942A
:101BE000D2F7D701C6010197A109B10904C0B69582
:101BF000A795979587952A95D2F784179507A607F5
:101C0000B70720F089288A288B2849F44F89588DF6
:101C1000698D7A8D4E835F836887798704C0841BC2
:101C2000950BA60BB70B4C015D018E010A5F1F4F90
:101C300081149104A104B10409F4A7CF4E815F81FE
:101C40006885798598018B8D9C8D0E94E91591E0BE
:101C5000891A9108A108B1088111EACF87CFDF91D5
:101C6000CF911F910F91FF90EF90DF90CF90BF9099
:101C7000AF909F908F9008950F931F93CF93DF9312
:101C8000EC018D818823C9F18C8187FF30C061E030
:101C9000CE010E94B50B8C01892B79F18D818230A8
:101CA00048F48B899C89AD89BE89F801848F958F12
:101CB000A68FB78F8F89988DA98DBA8DF801938FD4
:101CC000828FB58BA48BE091E502F091E60230970C
:101CD00059F0B8016A5E7F4FC80148960995F8012E
:101CE000808D918D938B828B8C818F778C83DF910C
:101CF000CF911F910F910C944F1580E0DF91CF9100
:101D00001F910F910895CF93DF93EC010E943C0E39
:101D1000882311F01D8281E0DF91CF9108954F92C9
:101D20005F926F927F928F929F92AF92BF92EF924B
:101D3000FF920F931F93CF93DF9300D000D0CDB7C6
:101D4000DEB7FC0185818130E9F4848181FF1AC00E
:101D500083899489A589B68984179507A607B7074B
:101D600088F0892B8A2B8B2B09F479C04A015B01FF
:101D70007F014284538464847584CF010E94A60D40
:101D8000811102C080E06CC0F701838D948D8114B5
:101D90009104A104B10471F44789508D618D728D55
:101DA0000E948B18882371F3F701178A108E118E09
:101DB000128E3AC0F70146815781608571859E0178
:101DC0002F5F3F4F0E94E9158823E1F249815A8134
:101DD0006B817C81F701838D948DFC0127892031F3
:101DE00029F008EF1FEF2FEF3FE004C008EF1FEFCF
:101DF00020E030E04017510762077307A8F40E9403
:101E00008B18882309F4BECFF7014681578160857E
:101E100071850FEF1FEF2FEF3FE0838D948D0E94B0
:101E2000D616882309F4AECFF701838A948AA58A4F
:101E3000B68A848180688483C7010E943C0E88230F
:101E400009F4A0CFB501A401481459046A047B0425
:101E500010F4B301A201C7010E94A60D01C081E0E8
:101E60000F900F900F900F90DF91CF911F910F91D6
:101E7000FF90EF90BF90AF909F908F907F906F906A
:101E80005F904F9008951F93CF93DF93EC0180E212
:101E9000689FF00111249F0122513D4FD9011B96EB
:101EA0009C91917129F0842F827411F080E05BC0C5
:101EB000142F6A8B8091020190910301A09104017B
:101EC000B09105018E879F87A88BB98BE251FD4F9A
:101ED0004489558960E070E0BA01552744274F8B4B
:101EE000588F698F7A8F828D938DA0E0B0E0482B58
:101EF000592B6A2B7B2B4F8B588F698F7A8FD90187
:101F00001B968C91887151F4848D958DA68DB78D1B
:101F10008B8B9C8BAD8BBE8B81E00DC0803131F6FD
:101F20009E012D5E3F4F8B8D9C8D0E946D168823E8
:101F300009F4BCCF84E08D83812F8F708C831E8247
:101F40001F82188619861A861B861C861D8616FF18
:101F500009C040E050E0BA01CE01DF91CF911F915E
:101F60000C948F0E81E0DF91CF911F910895CF9255
:101F7000DF92EF92FF920F931F93CF93DF93CDB732
:101F8000DEB72C970FB6F894DEBF0FBECDBFFC01B5
:101F900035813111C2C0D22E8B017C01BE016F5F31
:101FA0007F4FCA010E94CE0B882309F4B6C0F80106
:101FB000838D948DF701948F838FF8011682178299
:101FC00010861186128613861486158630E0F80175
:101FD00082859385A485B5854389548965897689E9
:101FE00084179507A607B70708F041C025E0B69506
:101FF000A795979587952A95D1F7F82FFF70CF2E43
:10200000C8013C870E945D0D3C85009709F485C09E
:10201000FC012081222309F484C0253E99F04BE085
:1020200050E0BC01CE0101963C870E94AD1C3C856E
:10203000892B69F68D2D8073803309F46EC04D2D88
:102040006C2D67C031116BC0F701C28A409102014B
:1020500050910301609104017091050146875787F3
:10206000608B718BFC01808131E08111B0CF8D2DAF
:102070008271823109F051C0332341F061E0C70120
:102080000E94B50B8C01892B79F447C0F80185813A
:10209000823009F442C0C8010E94550B8823E9F13F
:1020A000F701128A0EEE12E080E2F80111928A9591
:1020B000E9F78BE0FE013196D80101900D928A95E7
:1020C000E1F7E091E502F091E602309739F0B801CE
:1020D000625F7F4FC8014096099509C081E298E28E
:1020E000F801918B808B80E098E097878687F801D4
:1020F00080899189938B828B918F808F868597853C
:10210000978B868B0E944F15882339F04D2DF70150
:102110006289C7010E94430F09C080E007C031E017
:1021200056CF332309F490CF31E0A1CF2C960FB6D0
:10213000F894DEBF0FBECDBFDF91CF911F910F91FD
:10214000FF90EF90DF90CF9008952F923F924F92A3
:102150005F926F927F928F929F92AF92BF92CF9237
:10216000DF92EF92FF920F931F93CF93DF9300D0F4
:1021700000D0CDB7DEB78C016B013A01DC011596BA
:102180008C9115978130C9F414968C9181FF15C0FC
:1021900082FF1DC0F801438954896589768982854B
:1021A0009385A485B58584179507A607B70779F0A9
:1021B000C8010E94A60D81110AC081E090E0D801FB
:1021C00013969C938E93129780E090E048C1430150
:1021D00084C0D8015B968D919C915C97FC015480E2
:1021E0002FEF250D1A012B0139E0569447943794AF
:1021F00027943A95D1F7522E52207A01F1E0FF222E
:10220000552009F476C080E092E08E199F095401B0
:102210008815990508F45C01D8015B962D913C91D5
:102220005C9716968D919D910D90BC91A02D029773
:10223000A109B109F901058404C0880F991FAA1FDB
:10224000BB1F0A94D2F74685578560897189840F30
:10225000951FA61FB71F9C01AD01250D311D411D06
:10226000511D19012A01A11432E0B30609F088C0FA
:102270008091020190910301A0910401B0910501A8
:1022800082159305A405B50559F48FEF9FEFDC0186
:102290008093020190930301A0930401B093050180
:1022A0009601B201A1018091EC029091ED020E9491
:1022B0000115882309F481CF9EEFD91A8A189B084B
:1022C000F80182859385A485B5858A0D9B1DA11D86
:1022D000B11D82879387A487B587D8011A964D913F
:1022E0005D916D917C911D978114910409F071CFDE
:1022F00087C0E114F10409F086CF16964D915D91E7
:102300006D917C911997411551056105710559F43D
:1023100057968D919D910D90BC91A02D0097A10590
:10232000B10541F521C09E012F5F3F4F0E94E91585
:10233000882309F44ACF89819A81AB81BC81F80155
:10234000238D348DF9012789203129F048EF5FEF83
:102350006FEF7FE004C048EF5FEF60E070E084174C
:102360009507A607B70730F0C8010E942E0B811110
:102370004ACF23CFF80186839783A087B18743CFC5
:10238000E114F10429F5D8011A964D915D916D91F2
:102390007C911D9753968D919D910D90BC91A02D90
:1023A000481759076A077B0798F00E944F15882342
:1023B00009F403CF209202013092030140920401FC
:1023C000509205018091EB0281608093EB0208C07E
:1023D00041E0C201B1010E948A15882309F4EDCEC3
:1023E000D601F701E251FD4FCF018A0D9B1DE81781
:1023F000F90719F02D912193FACFCA0CDB1C5ECF9F
:102400005396CD90DD90ED90FC90569714968C915C
:10241000C416D506E606F70640F4F801438B548B44
:10242000658B768B806884830DC02091E5023091A6
:10243000E602232B39F06114710421F08068D80181
:1024400014968C93F801848183FD02C0C30107C0F8
:10245000C8010E943C0E882309F4AFCEF7CF0F903D
:102460000F900F900F90DF91CF911F910F91FF90E0
:10247000EF90DF90CF90BF90AF909F908F907F9024
:102480006F905F904F903F902F900895CF93DF9380
:102490001F92CDB7DEB7698341E050E0BE016F5FA8
:1024A0007F4F0E94A5100F90DF91CF9108958EBDB0
:1024B0000DB407FEFDCF08958FEF0E9457128EB521
:1024C000089561E0FC0184810C94540260E0FC01F9
:1024D00084810C945402CF93DF93FC01868188237E
:1024E000D1F08FEF8EBD4FEF878190859C012F5FDC
:1024F0003F4F308727838130924028F40DB407FE88
:10250000FDCF4EBDF1CF0DB407FEFDCFEF01CF01E2
:102510000E9461121E82DF91CF910895673028F0EA
:1025200026E1FC01258380E008958DB560FD02C0A1
:10253000663011F48E7F01C081608DBD8CB58C7FBB
:102540008CBD9CB562FD02C080E001C082E0669552
:102550006170692B862B8CBD81E008950F931F93CA
:10256000CF93DF93EB010E94421A8B010E945C1211
:102570008F3F49F00E94421A601B710B6C177D0758
:10258000A8F380E001C081E0DF91CF911F910F910E
:102590000895CF92DF92FF920F931F93CF93DF9313
:1025A00000D000D0CDB7DEB76C01F62E29833A8378
:1025B0004B835C830E946B12C6010E9466126CE220
:1025C00071E0C6010E94AE128F2D80640E945712E6
:1025D00008E110E05C814B813A812981DA01C9016F
:1025E000002E04C0B695A795979587950A94D2F7C3
:1025F00029833A834B835C830E9457120850110948
:1026000029813A814B815C81083F8FEF180731F7B0
:10261000FF2029F0E8E0FE1204C087E803C085E946
:1026200001C08FEF0E94571210E00E945C12F60169
:10263000828787FF04C01F3F11F01F5FF6CF0F9006
:102640000F900F900F90DF91CF911F910F91FF90FE
:10265000DF90CF9008958F929F92AF92BF92EF92AA
:10266000FF920F931F93CF93DF93EC01E62E1B860F
:1026700019861E821D824C830E94421A8B0161E0E2
:102680008C810E941802CE010E94611260E08CE0F1
:102690000E94180261E08BE00E94180261E08DE068
:1026A0000E94180261E08AE00E94180261E08AE05C
:1026B0000E94540283E58CBD8DB58E7F8DBD2AE0CE
:1026C000F22E8FEF0E945712FA94F110FACFCE013A
:1026D0000E94661220E030E0A90160E0CE010E9475
:1026E000C912F82E8A8781E0F81649F00E94421A32
:1026F000601B710B613D774068F381E04CC02AEAB2
:1027000031E040E050E068E0CE010E94C91282FF53
:1027100002C0FB860EC094E0F92E0E945C128A87EC
:10272000FA94F110FACF8A3A11F082E034C082E0D4
:102730008B878B85823021F0812C912C540105C030
:10274000812C912CA12C80E4B82E20E030E0A9014E
:1027500067E3CE010E94C912A501940169E2CE018E
:102760000E94C9128A87882349F00E94421A601B7E
:10277000710B613D774048F388E00DC08B85823056
:1027800039F520E030E0A9016AE3CE010E94C912C8
:10279000882389F086E08D83CE010E94611280E05B
:1027A000DF91CF911F910F91FF90EF90BF90AF906D
:1027B0009F908F9008950E945C12807C803C11F461
:1027C00083E08B870E945C120E945C120E945C1264
:1027D000CE010E9461126E2DCE01DF91CF911F912B
:1027E0000F91FF90EF90BF90AF909F908F900C94BF
:1027F0008E120F931F93CF93DF93EC010E94421A26
:102800008B010E945C128A878F3F49F40E94421A12
:10281000601B710B6D327140A0F38FE003C08E3FDF
:1028200039F08DE08D83CE010E94611280E001C0FD
:1028300081E0DF91CF911F910F910895CF92DF92A8
:10284000EF92FF920F931F93CF93DF93EC016901F7
:10285000C801820F931F8130924008F06FC08E81B3
:10286000882371F088819981AA81BB814817590713
:102870006A077B0729F48F819885C816D90618F551
:10288000488359836A837B838B85833039F089E061
:10289000440F551F661F771F8A95D1F79A01AB0128
:1028A00061E1CE010E94C912882319F083E08D8373
:1028B00045C0CE010E94F913882309F43FC0188651
:1028C0001F8281E08E838FEF8EBD2FEF8F819885E1
:1028D0008C159D0550F40DB407FEFDCF2EBD8F81E4
:1028E0009885019698878F83F1CFC8010197F701EA
:1028F0004FEF9F012E193F092817390738F40DB4FF
:1029000007FEFDCF2EB521934EBDF3CF0DB407FECC
:10291000FDCF2EB5F701E80FF91F20838F81988531
:10292000080F191F18870F838985882319F001154F
:10293000124048F0CE010E946B1205C0CE010E94E9
:10294000611280E001C081E0DF91CF911F910F9172
:10295000FF90EF90DF90CF900895EF92FF920F934A
:102960001F930115110519F00E941E1401C081E08A
:102970001F910F91FF90EF900895EF92FF920F93A8
:102980001F93790100E012E020E030E00E941E1465
:102990001F910F91FF90EF900895CF93DF93EC017B
:1029A0006EBD20E030E00DB407FEFDCFFA01E20F6E
:1029B000F31F80818EBD0DB407FEFDCF81818EBDDA
:1029C0002E5F3F4F211582E0380769F70DB407FEEF
:1029D000FDCF8FEF0E9457128FEF0E9457120E9477
:1029E0005C128A87982F9F71953039F081E18D8331
:1029F000CE010E94611280E001C081E0DF91CF91A1
:102A000008950F931F93CF93DF93EC018901411534
:102A100051056105710511F482E132C08B85833067
:102A200039F089E0440F551F661F771F8A95D1F74B
:102A30009A01AB0168E1CE010E94C912882311F00E
:102A400084E01EC0A8016EEFCE010E94CD14882341
:102A5000C1F068E572E0CE010E94AE12811102C0A1
:102A600085E10EC020E030E0A9016DE0CE010E94BA
:102A7000C912811104C00E945C12882339F084E1DC
:102A80008D83CE010E94611280E004C0CE010E94BD
:102A9000611281E0DF91CF911F910F910895809194
:102AA000EB028823A9F1409102015091030160914A
:102AB0000401709105012EEE32E08091EC029091BC
:102AC000ED020E940115811102C080E0089540913D
:102AD000E7025091E8026091E9027091EA02411523
:102AE00051056105710591F02EEE32E08091EC0206
:102AF0009091ED020E940115882339F31092E702AC
:102B00001092E8021092E9021092EA021092EB028F
:102B100081E00895CF92DF92EF92FF92CF936B0105
:102B20007C01C42F8091020190910301A0910401C6
:102B3000B09105018C159D05AE05BF05D1F00E9431
:102B40004F15811102C080E01AC02EEE32E0B701AD
:102B5000A6018091EC029091ED020E94BD148823A1
:102B600091F3C0920201D0920301E0920401F0922D
:102B700005018091EB02C82BC093EB0281E0CF915D
:102B8000FF90EF90DF90CF900895CF92DF92EF9279
:102B9000FF926B017C010E944F158823A9F0EEEE95
:102BA000F2E0119284E0EE3EF807D9F7C0920201FC
:102BB000D0920301E0920401F09205018091EB02B2
:102BC00081608093EB0281E0FF90EF90DF90CF90E7
:102BD00008958F929F92AF92BF92CF92DF92EF9221
:102BE000FF920F931F93CF93DF93FC018185928512
:102BF000A385B4850196A11DB11D84179507A6076D
:102C0000B70710F480E05CC083899489A589B689F0
:102C1000C789C03129F4852E962EA72EBB2409C062
:102C20004A015B01C7E0B694A79497948794CA952C
:102C3000D1F7E9016A017B018F01BC01CD01680D6B
:102C4000791D8A1D9B1D8090020190900301A09028
:102C50000401B0900501681579058A059B0599F472
:102C6000F80187898031A9F4B701A60155276627A5
:102C70007727440F551FFA01E251FD4F8081918162
:102C8000A0E0B0E018C040E00E948A158111E8CFB2
:102C9000B9CFB701A6014F77552766277727440F8D
:102CA000551F440F551FFA01E251FD4F808191815C
:102CB000A281B381BF7088839983AA83BB8381E09B
:102CC000DF91CF911F910F91FF90EF90DF90CF9008
:102CD000BF90AF909F908F9008954F925F926F92A8
:102CE0007F92AF92BF92CF92DF92EF92FF920F93BB
:102CF0001F93CF93DF9300D000D0CDB7DEB78C0108
:102D000049835A836B837C835901C12CD12C760172
:102D1000412C82E0582E612C712C49815A816B81A3
:102D20007C819E012F5F3F4FC8010E94E9158823D7
:102D300051F1D301C201F801058404C0880F991F25
:102D4000AA1FBB1F0A94D2F7C80ED91EEA1EFB1E8B
:102D500049815A816B817C818789803129F088EF94
:102D60009FEFAFEFBFE004C088EF9FEFA0E0B0E0BF
:102D7000481759076A077B0780F2F501C082D182A4
:102D8000E282F38281E00F900F900F900F90DF911D
:102D9000CF911F910F91FF90EF90DF90CF90BF9058
:102DA000AF907F906F905F904F9008954F925F9299
:102DB0006F927F928F929F92AF92BF92CF92DF924B
:102DC000EF92FF920F931F93CF93DF93EC016A0171
:102DD0007B0128013901423051056105710510F46C
:102DE00080E073C089859A85AB85BC850196A11D5D
:102DF000B11D84179507A607B70790F38B889C88A9
:102E0000AD88BE888F89803129F4BB27AF2D9E2DD8
:102E10008D2D09C0DB01CA0147E0B695A7959795AE
:102E200087954A95D1F7880E991EAA1EBB1E8091E0
:102E3000020190910301A0910401B091050188164F
:102E40009906AA06BB0679F48F898031A1F4DD24A6
:102E5000EE24FF24C601880F991FFC01E251FD4FAB
:102E60005182408219C040E0C501B4010E948A1518
:102E70008111EACFB5CFE894C7F8DD24EE24FF2412
:102E8000C601880F991F880F991FFC01E251FD4F61
:102E900040825182628273828091EB0281608093D2
:102EA000EB028A89823080F08D819E81AF81B88566
:102EB000880E991EAA1EBB1E8092E7029092E8021D
:102EC000A092E902B092EA0281E0DF91CF911F91D6
:102ED0000F91FF90EF90DF90CF90BF90AF909F90B9
:102EE0008F907F906F905F904F9008952F923F92B8
:102EF0004F925F926F927F929F92AF92BF92CF92CA
:102F0000DF92EF92FF920F931F93CF93DF93CDB792
:102F1000DEB760970FB6F894DEBF0FBECDBF5C0181
:102F200049875A876B877C871901D901CD90DD903D
:102F3000ED90FC90C114D104E104F10431F0BFEF35
:102F4000CB1ADB0AEB0AFB0A10C0FC01C080D1805F
:102F5000E280F3809924939409851A852B853C851A
:102F6000013011052105310509F0912CF50181850C
:102F70009285A385B4858C019D010F5F1F4F2F4F54
:102F80003F4F0D871E872F87388B260137011D8203
:102F90001E821F821886F50181859285A385B485DE
:102FA0000D811E812F813885081719072A073B07D5
:102FB00008F056C02D853E854F8558892415350566
:102FC0004605570550F482E0482E512C612C712C97
:102FD00092E0C92ED12CE12CF12C9E012F5F3F4FA6
:102FE000B301A201C5010E94E9158823C9F14981F5
:102FF0005A816B817C81D301C2010196A11DB11D53
:10300000452B462B472B19F06C017D010FC0AC01FD
:10301000BD014C195D096E097F0909851A852B854B
:103020003C85401751076207730779F02D813E8177
:103030004F8158852F5F3F4F4F4F5F4F2D833E830A
:103040004F8358872C013D01A6CF0FEF1FEF2FEFC5
:103050003FE0B301A201C5010E94D616811118C03C
:1030600080E041C0D301C2010197A109B1098D835C
:103070009E83AF83B88793018201AC01BD01C50176
:103080000E94D616882361F34D805E806F8078841D
:10309000C414D504E604F70428F3D1014D915D91E1
:1030A0006D917C91411551056105710599F4F1010E
:1030B000C082D182E282F3829920A1F0FFEFCF1A81
:1030C000DF0AEF0AFF0AD501CD92DD92ED92FC9264
:1030D000139708C097018601C5010E94D616811179
:1030E000E6CFBECF81E060960FB6F894DEBF0FBE8C
:1030F000CDBFDF91CF911F910F91FF90EF90DF90A7
:10310000CF90BF90AF909F907F906F905F904F90C7
:103110003F902F900895AF92BF92CF92DF92EF929F
:10312000FF920F931F93CF93DF9300D000D0CDB7C2
:10313000DEB75C016A017B0182E090E0A0E0B0E0D4
:10314000F50180839183A283B3839E012F5F3F4F5C
:10315000B701A601C5010E94E915882311F100E01D
:1031600010E09801B701A601C5010E94D616882378
:10317000C1F0C980DA80EB80FC80F501878980315D
:1031800029F088EF9FEFAFEFBFE004C088EF9FEF1B
:10319000A0E0B0E0C816D906EA06FB06B0F281E06E
:1031A00001C080E00F900F900F900F90DF91CF91B2
:1031B0001F910F91FF90EF90DF90CF90BF90AF9055
:1031C00008958F929F92AF92BF92CF92DF92EF922B
:1031D000FF920F931F93CF93DF93EC01142F709303
:1031E000ED026093EC02442369F1453010F080E079
:1031F000F2C040E060E070E0CB010E948A158823B5
:10320000B1F320E1129FA001112442525D4FFA0157
:10321000E254FE4F80818F7751F73C9680819181F7
:10322000A281B38184369105A105B10500F33497DD
:10323000C080D180E280F380C114D104E104F104A4
:1032400021F4D5CFC12CD12C760140E0C701B601C5
:103250000E948A15882359F28091F9029091FA020E
:103260008115924021F69091FE02992309F4BFCF77
:103270002091FC023091FD02232B09F4B8CF8091FC
:10328000FB02882309F4B3CF9A8B8C831D8690E0D0
:1032900061E070E02D85E22FAB01022E02C0440FE9
:1032A000551F0A94E2F78417950731F031E0320F89
:1032B0003D87283078F39BCF20910403309105039C
:1032C0002115310519F040E050E008C020911203AB
:1032D0003091130340911403509115032D833E83C5
:1032E0004F8358878091FC029091FD02460157015F
:1032F000880E991EA11CB11C8B8A9C8AAD8ABE8A3D
:103300000091FF0210910003198F088FA091FE0217
:10331000B0E00E940F1D860E971EA81EB91E8A8E51
:103320009B8EAC8EBD8E85E0000F111F8A95E1F754
:1033300001501E4F012F11270695800E911EA11CD2
:10334000B11C8E869F86A88AB98A2091010330918C
:1033500002032115310521F0A90160E070E008C0E9
:1033600040910E0350910F0360911003709111036F
:10337000D701C60188199909AA09BB09840F951FAD
:10338000A61FB71F04C0B695A79597958795EA9590
:10339000D2F789879A87AB87BC87853F2FE0920752
:1033A000A105B10510F48CE014C0853F9F4FA10525
:1033B000B10510F480E10DC080911A0390911B03B8
:1033C000A0911C03B0911D038A8F9B8FAC8FBD8F82
:1033D00080E28F8B81E0DF91CF911F910F91FF9061
:1033E000EF90DF90CF90BF90AF909F908F90089517
:1033F0001F920F920FB60F9211242F933F938F932A
:103400009F93AF93BF938091EF049091F004A091AC
:10341000F104B091F2043091EE0426E0230F2D3731
:1034200020F40296A11DB11D05C029E8230F0396C3
:10343000A11DB11D2093EE048093EF049093F0043E
:10344000A093F104B093F2048091F3049091F404FA
:10345000A091F504B091F6040196A11DB11D8093D1
:10346000F3049093F404A093F504B093F604BF9191
:10347000AF919F918F913F912F910F900FBE0F9021
:103480001F9018952FB7F8946091EF047091F00495
:103490008091F1049091F2042FBF0895813091053D
:1034A00039F0029729F0880F991F01970197F1F7DA
:1034B0000895789484B5826084BD84B5816084BDAC
:1034C00085B5826085BD85B5816085BDEEE6F0E09D
:1034D000808181608083E1E8F0E0108280818260F9
:1034E0008083808181608083E0E8F0E0808181607A
:1034F0008083E1EBF0E0808184608083E0EBF0E0AA
:10350000808181608083EAE7F0E08081846080834D
:1035100080818260808380818160808380818068F7
:1035200080831092C10008956F927F928F929F9234
:10353000AF92BF92CF92DF92EF92FF920F931F93C1
:10354000CF93DF93EC01009789F4CB01DF91CF910A
:103550001F910F91FF90EF90DF90CF90BF90AF90B1
:103560009F908F907F906F900C947D1BFC01E60FD5
:10357000F71F9C0122503109E217F30708F4ACC091
:10358000D9010D911C91119706171707B0F005305E
:10359000110508F49FC0C80104978617970708F41F
:1035A00099C002501109061B170B019311936D93DB
:1035B0007C93CF010E94121C8DC05B01A01AB10A3E
:1035C0004C01800E911EA091F904B091FA0440E0E4
:1035D00050E0E12CF12C109709F44AC0A815B90568
:1035E000D1F56D907C901197630182E0C80ED11CDB
:1035F000CA14DB0480F1A3014A195B096A0182E065
:10360000C80ED11C1296BC9012971396AC91B5E0DF
:10361000CB16D10440F0B282A38351834083D901F9
:103620006D937C930AC00E5F1F4FC301800F911FE3
:10363000F90191838083EB2DFA2FE114F10431F02D
:10364000D7011396FC93EE93129744C0F093FA04BB
:10365000E093F9043FC08D919C9111974817590749
:1036600008F4AC017D0112960D90BC91A02DB3CF52
:103670008091F7049091F80488159905E1F44617B4
:103680005707C8F48091060190910701009741F413
:103690008DB79EB740910A0150910B01841B950B89
:1036A000E817F907C8F4F093F804E093F704F90178
:1036B000718360830FC0CB010E947D1B7C0100974A
:1036C00059F0A801BE010E94BA1CCE010E94121C32
:1036D000C70104C0CE0102C080E090E0DF91CF912D
:1036E0001F910F91FF90EF90DF90CF90BF90AF9020
:1036F0009F908F907F906F900895CF93DF9382304B
:10370000910510F482E090E0E091F904F091FA0460
:1037100020E030E0C0E0D0E0309711F140815181ED
:1037200048175907C0F04817590761F482819381FF
:10373000209719F09B838A832BC09093FA0480937F
:10374000F90426C02115310519F04217530718F462
:103750009A01BE01DF01EF010280F381E02DDCCF91
:103760002115310509F1281B390B2430310590F45E
:1037700012968D919C9113976115710521F0FB01B3
:103780009383828304C09093FA048093F904FD012B
:10379000329644C0FD01E20FF31F819391932250B2
:1037A00031092D933C933AC02091F7043091F804ED
:1037B000232B41F420910801309109013093F80442
:1037C0002093F7042091060130910701211531055E
:1037D00041F42DB73EB740910A0150910B01241BD3
:1037E000350BE091F704F091F804E217F307A0F429
:1037F0002E1B3F0B2817390778F0AC014E5F5F4F47
:103800002417350748F04E0F5F1F5093F80440937C
:10381000F7048193919302C0E0E0F0E0CF01DF91E3
:10382000CF9108950F931F93CF93DF93009709F4DF
:103830008CC0FC013297138212820091F90410911E
:10384000FA040115110581F420813181820F931F43
:103850002091F7043091F8042817390779F5F0938F
:10386000F804E093F70471C0D80140E050E0AE17CF
:10387000BF0750F412962D913C911397AD0121157D
:10388000310509F1D901F3CF9D01DA013383228398
:1038900060817181860F971F8217930769F4EC018D
:1038A00028813981260F371F2E5F3F4F31832083B8
:1038B0008A819B8193838283452B29F4F093FA04B8
:1038C000E093F90442C01396FC93EE931297ED0136
:1038D000499159919E01240F351FE217F30771F4A6
:1038E00080819181840F951F029611969C938E93EF
:1038F0008281938113969C938E931297E0E0F0E07F
:10390000D80112968D919C911397009719F0F801A8
:103910008C01F6CF8D919C9198012E5F3F4F820FC5
:10392000931F2091F7043091F8042817390769F4A0
:10393000309729F41092FA041092F90402C013820D
:1039400012821093F8040093F704DF91CF911F9136
:103950000F910895F8940C942F1DFB01DC0104C015
:103960008D910190801921F441505040C8F7881B77
:10397000990B0895FB01DC0102C001900D924150AA
:103980005040D8F70895FC018191861721F08823D3
:10399000D9F7992708953197CF010895FB01DC01EC
:1039A0008D91019080190110D9F3990B0895FB01B5
:1039B000DC0101900D920020E1F70895FB01DC018C
:1039C0004150504048F001900D920020C9F701C0CD
:1039D0001D9241505040E0F70895A1E21A2EAA1B13
:1039E000BB1BFD010DC0AA1FBB1FEE1FFF1FA217AF
:1039F000B307E407F50720F0A21BB30BE40BF50BAC
:103A0000661F771F881F991F1A9469F76095709534
:103A1000809590959B01AC01BD01CF0108950E9456
:103A2000201DA59F900DB49F900DA49F800D911D0A
:103A300011240895EE0FFF1F0590F491E02D0994D5
:103A4000A29FB001B39FC001A39F700D811D1124DF
:103A5000911DB29F700D811D1124911D089510E0DC
:103A6000C7E6D0E004C0FE010E941A1D2196C836A8
:083A7000D107C9F7F894FFCF5C
:103A78000A00FFFFFFFF0000FB0480000000400079
:103A8800140054005344206661696C00696E6974BF
:103A980069616C697A6174696F6E206661696C65C9
:103AA800642100534420646F6E6500696E6974690F
:103AB800616C697A6174696F6E20646F6E652E003F
:103AC800746573742E7478740073656E64646174BD
:103AD80061000A006572726F72004572726F72201F
:103AE8007768696C65206F70656E696E67205344EE
:103AF8000000000000F10490039A04C604AA04E63A
:103B08000400000000400890032F0000000000F2AD
:103B180009080AE00A430A4D0A240A000000004680
:043B280012900300F4
:00000001FF
