:100000000C9463000C948B000C948B000C948B006C
:100010000C948B000C948B000C948B000C948B0034
:100020000C948B000C948B000C948B000C948B0024
:100030000C948B000C948B000C948B000C948B0014
:100040000C94EB010C948B000C9488040C94CB045E
:100050000C948B000C948B000C948B000C948B00F4
:100060000C948B000C948B00000000070002010030
:100070000003040600000000000000000102040864
:100080001020408001020408102001020408102002
:10009000040404040404040402020202020203032E
:1000A00003030303000000002300260029000000D2
:1000B0000000250028002B0000000000240027007D
:1000C0002A002401810511241FBECFEFD8E0DEBF36
:1000D000CDBF11E0A0E0B1E0E2E8F2E102C005909E
:1000E0000D92A435B107D9F722E0A4E5B1E001C033
:1000F0001D92AF33B207E1F710E0C6ECD0E004C0C8
:100100002297FE010E943B09C23CD107C9F70E9419
:10011000E9030C9414090C9400000F931F93CF93E0
:10012000DF9300D000D01F92CDB7DEB78C012A83B9
:100130003B834C835D8369830E94D705698170E0AE
:10014000C8010E94E3052A813B81B901C8010F90D3
:100150000F900F900F900F90DF91CF911F910F9103
:100160000C94F8058FE691E00E94FC0587E691E08B
:100170000E94FC058FE591E00E94FC058FE691E06E
:100180000E944C06882391F18FE591E00E94480679
:100190008823B1F087E691E00E944806882341F069
:1001A00084E090E0909329018093280183E50895ED
:1001B00083E090E0909329018093280182E40895E0
:1001C00087E691E00E944806882341F082E090E0B3
:1001D000909329018093280185E5089581E090E0BE
:1001E000909329018093280184E4089508951F9332
:1001F000CF93DF930E94B20080935E01682F85E960
:1002000091E00E942C0387E791E00E94FD06C0E682
:10021000D1E016E040E0612F87E791E00E940407FB
:100220007A916A914AE050E087E791E00E94E10309
:100230001150113079F764E670E080E090E0DF91D2
:10024000CF911F910C946402CF92EF920F9389E0AB
:10025000C82E98E0E92E07E026E045E064E087E755
:1002600091E00E94ED0725E030E040E050E061E1E0
:100270008FE691E00E948D0025E030E040E050E004
:1002800060E187E691E00E948D0025E030E040E0EB
:1002900050E06FE08FE591E00F91EF90CF900C94DC
:1002A0008D00109255011092540110925701109236
:1002B0005601109259011092580110925B01109250
:1002C0005A0110925D0110925C0120E042E068E06A
:1002D00087E791E00E94390740E052EC61E070E06E
:1002E00085E991E00E94060548E151E060E087E77A
:1002F00091E00E94130840E151E061E087E791E05E
:100300000E94130848E051E062E087E791E00E9414
:10031000130840E051E063E087E791E00E94130892
:1003200040E251E064E087E791E00E94130840E07A
:1003300062E087E791E00E94040762E371E087E7EB
:1003400091E00E940F0341E063E087E791E00E94A3
:10035000040768E371E087E791E00E940F0368EE0D
:1003600073E080E090E00E94640287E791E00E94E1
:10037000FD0641E060E087E791E00E94040760E04D
:1003800087E791E00E944D0841E062E087E791E055
:100390000E94040761E087E791E00E944D0841E078
:1003A00065E087E791E00E94040762E087E791E05B
:1003B0000E944D0841E067E087E791E00E94040752
:1003C00063E087E791E00E944D0868EE73E080E00B
:1003D00090E00C9464021F920F920FB60F921124BA
:1003E0002F933F938F939F93AF93BF9380918D01F2
:1003F00090918E01A0918F01B091900130918C016C
:1004000026E0230F2D3720F40296A11DB11D05C053
:1004100029E8230F0396A11DB11D20938C01809321
:100420008D0190938E01A0938F01B09390018091E4
:10043000910190919201A0919301B0919401019644
:10044000A11DB11D8093910190939201A0939301FE
:10045000B0939401BF91AF919F918F913F912F9154
:100460000F900FBE0F901F9018952FB7F8946091C2
:100470008D0170918E0180918F01909190012FBF1D
:1004800008953FB7F8948091910190919201A091C5
:100490009301B091940126B5A89B05C02F3F19F098
:1004A0000196A11DB11D3FBF6627782F892F9A2F76
:1004B000620F711D811D911D43E0660F771F881F1C
:1004C000991F4A95D1F70895CF92DF92EF92FF924C
:1004D000CF93DF936B017C010E944102EB01C114B9
:1004E000D104E104F10479F00E9441026C1B7D0B00
:1004F000683E7340A0F381E0C81AD108E108F10812
:10050000C851DC4FECCFDF91CF91FF90EF90DF909F
:10051000CF9008958130910541F00297009729F01E
:10052000880F991F01970197F1F70895789484B582
:10053000826084BD84B5816084BD85B5826085BDDF
:1005400085B5816085BDEEE6F0E0808181608083C5
:10055000E1E8F0E0108280818260808380818160A8
:100560008083E0E8F0E0808181608083E1EBF0E06F
:10057000808184608083E0EBF0E080818160808313
:10058000EAE7F0E0808184608083808182608083FC
:100590008081816080838081806880831092C10027
:1005A0000895CF92DF92EF92FF920F931F93CF9314
:1005B000DF936C017A01EB01E60EF71E00E010E01C
:1005C000CE15DF0561F06991D601ED91FC910190A6
:1005D000F081E02DC6010995080F191FF1CFC80160
:1005E000DF91CF911F910F91FF90EF90DF90CF900F
:1005F00008956115710581F0DB010D900020E9F788
:10060000AD0141505109461B570BDC01ED91FC91A6
:100610000280F381E02D099480E090E008950C942D
:10062000F902DC01ED91FC910190F081E02D09943B
:100630000F931F93CF93DF93EC016DE00E941103A2
:100640008C016AE0CE010E941103800F911FDF919F
:10065000CF911F910F9108950F931F93CF93DF9325
:10066000EC010E9411038C01CE010E941803800F3F
:10067000911FDF91CF911F910F9108958F929F92BB
:10068000AF92BF92CF92DF92EF92FF920F931F93A0
:10069000CF93DF93CDB7DEB7A1970FB6F894DEBF47
:1006A0000FBECDBF7C01C42EE52FCB01D22E19A2E7
:1006B00021E02D1510F02AE0D22E8E010F5D1F4F84
:1006C0008D2C912CA12CB12C6C2D7E2FA501940189
:1006D0000E9417098C2DD29E8019112401501109F6
:1006E0008A3014F4805D01C0895CF8018083211593
:1006F00031054105510521F0C22EE32FCA01E4CF97
:10070000B801C7010E94F902A1960FB6F894DEBFA6
:100710000FBECDBFDF91CF911F910F91FF90EF9052
:10072000DF90CF90BF90AF909F908F900895CF9221
:10073000DF92EF92FF920F931F93CF93DF93EC0121
:100740006A017B012115310579F4E881F981019075
:10075000F081E02D642FDF91CF911F910F91FF90D9
:10076000EF90DF90CF9009942A303105E9F477FFBC
:100770001AC06DE20E9411038C0144275527BA016B
:100780004C195D096E097F092AE0CE010E943E03E3
:10079000800F911FDF91CF911F910F91FF90EF90EC
:1007A000DF90CF9008952AE0B701A601CE01DF9136
:1007B000CF911F910F91FF90EF90DF90CF900C940D
:1007C0003E039A01AB01662757FD6095762F0C9486
:1007D00097030E9496020E945101C2ECD4E00E944D
:1007E000F7002097E1F30E94C204F9CFFC012485B1
:1007F0003585F901E05CFF4F80819181329620813F
:100800003181821B930B8F7399270895FC01848596
:100810009585FC01E05CFF4F40815181329620813B
:1008200031814217530741F00190F081E02DE80F2C
:10083000F91F808190E008958FEF9FEF0895FC01EC
:1008400084859585FC01E05CFF4F408151813296A3
:10085000208131814217530779F0A081B181A80F1F
:10086000B91F8C91208131812F5F3F4F2F73332728
:100870003183208390E008958FEF9FEF0895FC016E
:1008800081A1882329F0A489B5898C9186FFFBCFAB
:1008900011A20895CF93DF93FC0126853785D901F6
:1008A000A05CBF4F8D919C91119701968F739927F2
:1008B000E901CE5BDF4F4881598184179507D9F351
:1008C0000D90BC91A02DA20FB31F6C93A685B78588
:1008D000A05CBF4F11969C938E93A689B7892C91EB
:1008E00081E090E0078C02C0880F991F0A94E2F71C
:1008F000282B2C9381E081A30488F589E02D808149
:100900008064808381E090E0DF91CF910895089525
:100910001F920F920FB60F9211242F933F934F9374
:100920008F939F93EF93FF938091C00082FD1CC033
:100930004091C60080913B0290913C0201968F73DA
:10094000992720913D0230913E028217930771F062
:10095000E0913B02F0913C02E550FE4F40839093C2
:100960003C0280933B0202C08091C600FF91EF9150
:100970009F918F914F913F912F910F900FBE0F90AC
:100980001F90189585E991E00E94F603892B11F0DC
:100990000C94870408951F920F920FB60F921124A2
:1009A0002F933F938F939F93EF93FF932091F701A2
:1009B0003091F8018091F9019091FA0128173907D7
:1009C00031F48091C1008F7D8093C10014C0E0910B
:1009D000F901F091FA01E954FE4F20818091F9016B
:1009E0009091FA0101968F7399279093FA01809361
:1009F000F9012093C600FF91EF919F918F913F9154
:100A00002F910F900FBE0F901F901895CF92DF92ED
:100A1000EF92FF92CF93DF93EC016A017B01EC89A7
:100A2000FD8981E090E008A002C0880F991F0A9418
:100A3000E2F7808360E874E88EE190E0A701960118
:100A40000E941709215031094109510956954795CE
:100A500037952795211580E1380798F0EC89FD89B5
:100A6000108260E472E48FE090E0A70196010E949A
:100A70001709215031094109510956954795379574
:100A80002795E889F9893083EA89FB89208319A2AF
:100A9000EE89FF89408181E090E09C010C8C02C0CE
:100AA000220F331F0A94E2F7422B4083EE89FF891D
:100AB00040819C010D8C02C0220F331F0A94E2F783
:100AC000422B4083EE89FF8940819C010E8C02C03D
:100AD000220F331F0A94E2F7422B4083EE89FF89ED
:100AE00020810F8C02C0880F991F0A94E2F780952D
:100AF00082238083DF91CF91FF90EF90DF90CF90A2
:100B00000895109298011092970188EE93E0A0E06A
:100B1000B0E08093990190939A01A0939B01B093C8
:100B20009C0180E491E090939601809395018BEF76
:100B300091E09093A2018093A10187EB91E09093C3
:100B4000A4018093A30185EC90E09093A60180938B
:100B5000A50184EC90E09093A8018093A70180EC1C
:100B600090E09093AA018093A90181EC90E090938A
:100B7000AC018093AB0182EC90E09093AE01809346
:100B8000AD0186EC90E09093B0018093AF0184E0DA
:100B90008093B10183E08093B20187E08093B30139
:100BA00085E08093B40181E08093B5010895FC0154
:100BB00010821182128213828AE090E095838483EE
:100BC000168217820895CF93DF93EC01862F6F83EF
:100BD0001E820E94EB08892B11F083E08E830E9415
:100BE0003502688379838A839B83DF91CF9108954F
:100BF000FC01758364830895FF920F931F93CF9335
:100C0000DF93EC018F810E94EB08FF24F394892B82
:100C100009F4F12C8E81982F977F9E8386958170A1
:100C2000F81651F00E943502688379838A839B838A
:100C30008E8192E0892721C00E94350208811981A6
:100C40002A813B81601B710B820B930B0C811D81F0
:100C500020E030E0601771078207930778F08E81FB
:100C600081708F1559F00E943502688379838A83D9
:100C70009B838E8191E0892788608E838E8183FBA0
:100C8000882780F9DF91CF911F910F91FF900895F0
:100C9000FC01868181700895FC019681997081E044
:100CA000993009F080E00895CF93DF93EC0160E084
:100CB0008E810E94B50881E090E00E948A0261E086
:100CC0008E810E94B50881E090E00E948A0260E077
:100CD0008E810E94B50884E690E0DF91CF910C945C
:100CE0008A02CF92DF92EF92FF920F931F93CF93DE
:100CF000DF937C01C0E0D0E0C62ED12C87010C0F21
:100D00001D1F61E0F80187810E947C08B6010C2E4E
:100D100002C0759567950A94E2F76170F8018781C2
:100D20000E94B5082196C430D10541F7C701DF9173
:100D3000CF911F910F91FF90EF90DF90CF900C9487
:100D40005406CF92DF92EF92FF920F931F93CF93AF
:100D5000DF937C01C0E0D0E0C62ED12C87010C0FC0
:100D60001D1F61E0F80187810E947C08B6010C2EEE
:100D700002C0759567950A94E2F76170F801878162
:100D80000E94B5082196C830D10541F7C701DF910F
:100D9000CF911F910F91FF90EF90DF90CF900C9427
:100DA00054061F93CF93DF93EC01162F642F8C8191
:100DB0000E94B5088D818F3F19F060E00E94B50850
:100DC0008F85612F84FF06C0CE01DF91CF911F91E7
:100DD0000C94A10670E084E0759567958A95E1F71B
:100DE000CE010E947106612FCE01DF91CF911F913C
:100DF0000C94710640E00C94D10661E00E94FA0662
:100E000080ED97E00C948A02CF93DF93CDB7DEB7E5
:100E100028970FB6F894DEBF0FBECDBF28E0EAE2F8
:100E2000F1E0DE01119601900D922A95E1F7FC01A7
:100E30002389421710F04FEF420FFE013196E40F65
:100E4000F11DE40FF11D2081260F2068622F2896E6
:100E50000FB6F894DEBF0FBECDBFDF91CF910C94DB
:100E6000FA06FC016089262F2460208B6C600C94AC
:100E7000FA06CF93DF93EC01423018F08F8588603B
:100E80008F874B8B1C8A222329F0413019F48F85E0
:100E900084608F8780E593EC0E948A0260E08C81F9
:100EA0000E94B50860E08E810E94B5088D818F3F59
:100EB00019F060E00E94B5086F8564FD1DC063E015
:100EC000CE010E94710684E991E10E948A0263E0EA
:100ED000CE010E94710684E991E10E948A0263E0DA
:100EE000CE010E94710686E990E00E948A0262E0CB
:100EF000CE010E94710616C06062CE010E94FA0601
:100F000084E991E10E948A026F856062CE010E94AD
:100F1000FA0686E990E00E948A026F856062CE013F
:100F20000E94FA066F856062CE010E94FA0684E094
:100F3000888BCE010E943107CE010E94FD0682E01F
:100F4000898B66E0CE01DF91CF910C94FA066F9207
:100F50007F928F92AF92CF92EF920F931F93CF9386
:100F6000DF93CDB7DEB73C01162F842F5D854E850C
:100F70003F859889F301848325830683E782C086B1
:100F8000A1868286538744873587968761E00E94D1
:100F90007C08F30185818F3F19F061E00E947C0895
:100FA00061E0F30186810E947C08112319F0F301AE
:100FB000178603C080E1F301878720E041E060E10C
:100FC000C301DF91CF911F910F91EF90CF90AF9020
:100FD0008F907F906F900C9439078F92AF92CF9241
:100FE000EF920F93DC0113961C921E921297E0E58C
:100FF000F1E0ED93FC931F921F921F921F928C2C95
:10100000AE2CC02EE22E042F2FEF462F61E00E945F
:10101000A7070F900F900F900F900F91EF90CF9028
:10102000AF908F900895CF92DF92EF92FF920F933F
:101030001F93CF93DF9300D0CDB7DEB78C016770DD
:1010400088E0689FB00111246064C80149835A8315
:101050000E94FA064981C42E5A81D52EE12CF12C2A
:10106000D6016D916D01D801ED91FC910190F08157
:10107000E02DC8010995BFEFEB1AFB0AE8E0EE1678
:10108000F10471F70F900F90DF91CF911F910F91A5
:10109000FF90EF90DF90CF90089541E00E94D1063D
:1010A00081E090E00895833081F028F4813099F058
:1010B0008230A1F008958630A9F08730B9F08430ED
:1010C000D1F4809180008F7D03C0809180008F7764
:1010D00080938000089584B58F7702C084B58F7D9A
:1010E00084BD08958091B0008F7703C08091B000D7
:1010F0008F7D8093B0000895CF93DF9390E0FC0143
:10110000E458FF4F2491FC01E057FF4F849188235E
:1011100049F190E0880F991FFC01E854FF4FA59119
:10112000B49182559F4FFC01C591D4919FB7611135
:1011300008C0F8948C91209582238C938881822317
:101140000AC0623051F4F8948C91322F3095832389
:101150008C938881822B888304C0F8948C91822B95
:101160008C939FBFDF91CF9108950F931F93CF93DF
:10117000DF931F92CDB7DEB7282F30E0F901E85991
:10118000FF4F8491F901E458FF4F1491F901E057A2
:10119000FF4F04910023C9F0882321F069830E9446
:1011A00053086981E02FF0E0EE0FFF1FE255FF4F7B
:1011B000A591B4919FB7F8948C91611103C01095DB
:1011C000812301C0812B8C939FBF0F90DF91CF9122
:1011D0001F910F910895CF93DF93282F30E0F901ED
:1011E000E859FF4F8491F901E458FF4FD491F90178
:1011F000E057FF4FC491CC2391F081110E94530816
:10120000EC2FF0E0EE0FFF1FEC55FF4FA591B491CE
:101210002C912D2381E090E021F480E002C080E059
:1012200090E0DF91CF910895F8940C943F09A1E2EA
:101230001A2EAA1BBB1BFD010DC0AA1FBB1FEE1F50
:10124000FF1FA217B307E407F50720F0A21BB30B9B
:10125000E40BF50B661F771F881F991F1A9469F717
:1012600060957095809590959B01AC01BD01CF0173
:101270000895EE0FFF1F0590F491E02D0994F89466
:02128000FFCF9E
:10128200000001050D1F0C0400000103161C0800DC
:101292000000001F1F0E0400000000040E1F1F00AC
:1012A2000000181C1E1C180004000000400014005E
:1012B200540048656C6C6F004750530000000000FA
:1012C2004A04D102F6031F0406043F040000000092
:0412D2004D08D102F0
:00000001FF
