:100000000C9437000C945F000C945F000C945F001C
:100010000C945F000C945F000C945F000C945F00E4
:100020000C945F000C945F000C945F000C945F00D4
:100030000C945F000C945F000C945F000C945F00C4
:100040000C9449040C945F000C940B030C944E0325
:100050000C945F000C945F000C945F000C945F00A4
:100060000C945F000C945F0069000E046F00112473
:100070001FBECFEFD8E0DEBFCDBF11E0A0E0B1E002
:10008000E0E7FEE002C005900D92A831B107D9F774
:1000900021E0A8E1B1E001C01D92A63DB207E1F761
:1000A00010E0C6E3D0E004C02197FE010E942507BE
:1000B000C433D107C9F70E9464020C94F0060C9473
:1000C000000040E855E260E070E08FE191E00C94C0
:1000D000890366E071E088E191E00C94110188E108
:1000E00091E00C94A300CF93DF93CDB7DEB72797B1
:1000F0000FB6F894DEBF0FBECDBF8FE191E00E9436
:100100007102892BB9F06FE171E0CE0101960E9476
:100110004A02BE016F5F7F4F88E191E00E94270194
:10012000CE0101960E94A30068E171E08FE191E0A9
:100130000E94080227960FB6F894DEBF0FBECDBF0F
:10014000DF91CF910895FC01808191810C94580634
:10015000CF93DF93EC0188819981009711F00E9481
:100160005806198218821D821C821B821A82DF9116
:10017000CF9108950F931F93CF93DF93EC018B01E1
:100180006F5F7F4F888199810E94DA04009731F078
:10019000998388831B830A8381E001C080E0DF911B
:1001A000CF911F910F910895CF93DF93EC01888138
:1001B0009981892B29F08A819B818617970760F4A2
:1001C000CE010E94BA00882341F08C819D81892B49
:1001D00019F4E881F981108281E0DF91CF910895CF
:1001E000EF92FF920F931F93CF93DF93EC017B016C
:1001F0008A01BA010E94D400811104C0CE010E947C
:10020000A80007C01D830C83B701888199810E94D3
:10021000FC06CE01DF91CF911F910F91FF90EF90DF
:100220000895FC01118210821382128215821482B9
:1002300016826115710551F0FB0101900020E9F76C
:100240003197AF01461B570B0C94F0000895CF93E4
:10025000DF93EC01FB018617970761F060817181E4
:100260006115710529F0448155810E94F00002C09A
:100270000E94A800CE01DF91CF910895EF92FF92E6
:100280000F931F93CF93DF93FC0124813581611578
:10029000710511F480E019C041155105A9F07B01E9
:1002A000EC018A01020F131FB8010E94D4008823B9
:1002B00089F3288139818C819D81B701820F931F39
:1002C0000E94FC061D830C8381E0DF91CF911F917A
:1002D0000F91FF90EF900895CF93DF9300D0CDB7AB
:1002E000DEB769831A8241E050E0BE016F5F7F4F45
:1002F0000E943E010F900F90DF91CF910895FC0175
:10030000248135816217730748F4808191810097B9
:1003100029F0FC01E60FF71F8081089580E0089521
:10032000CF92DF92EF92FF920F931F93CF93DF93C1
:100330006C01EB017B01E40EF51E00E010E0CE1530
:10034000DF0561F06991D601ED91FC910190F0819A
:10035000E02DC6010995080F191FF1CFC801DF91E3
:10036000CF911F910F91FF90EF90DF90CF90089564
:10037000AF92BF92CF92DF92EF92FF920F931F93B3
:10038000CF93DF936C017B01C0E0D0E000E010E090
:10039000D70114968D919C911597C817D90788F4A9
:1003A000D601ED91FC91A080B180BE01C7010E94F1
:1003B0007F01682FC601F5010995080F191F2196C5
:1003C000E7CFC801DF91CF911F910F91FF90EF9080
:1003D000DF90CF90BF90AF900895DC01ED91FC913C
:1003E0000190F081E02D09940F931F93CF93DF9339
:1003F000EC016DE00E94ED018C016AE0CE010E94EB
:10040000ED01800F911FDF91CF911F910F91089502
:100410000F931F93CF93DF93EC010E94B8018C01DF
:10042000CE010E94F401800F911FDF91CF911F91A7
:100430000F9108950F931F93CF93DF93EC010E94C8
:100440009304688779878A879B87E881F98106808A
:10045000F781E02DCE01099597FF17C00E94930404
:10046000088519852A853B85DC01CB01801B910B12
:10047000A20BB30B0C811D812E813F818017910748
:10048000A207B30710F38FEF9FEFDF91CF911F917A
:100490000F9108950F931F93CF93DF93EC018B017E
:1004A00066E071E00E941101C8010E941A0297FDE6
:1004B00005C0682FCE010E946C01F6CFCE01DF91FE
:1004C000CF911F910F9108950E949F040E94610097
:1004D000C5E4D3E00E9473002097E1F30E94450336
:1004E000F9CFFC0124853585F901E05CFF4F80815F
:1004F0009181329620813181821B930B8F739927D2
:100500000895DC011C96ED91FC911D97DF01A05C24
:10051000BF4F2D913C91119712968D919C911197FF
:100520002817390739F08D919C91E80FF91F8081C8
:1005300090E008958FEF9FEF0895FC01A485B585A5
:10054000FD01E05CFF4F20813181329680819181F5
:100550002817390779F080819181A80FB91F8C91F4
:10056000208131812F5F3F4F2F73332731832083C9
:1005700090E008958FEF9FEF0895FC0181A18823FB
:1005800029F0A489B5898C9186FFFBCF11A208952B
:100590000F931F93CF93DF93FC01A685B7858D0141
:1005A000005C1F4FE8018881998101968F7399271C
:1005B000AD014E5B5F4FEA012881398182179307B5
:1005C000D1F3E80128813981A20FB31F6C93A6856E
:1005D000B785A05CBF4F11969C938E93A689B7896F
:1005E0002C9181E090E0078C02C0880F991F0A943B
:1005F000E2F7822B8C9381E081A30488F589E02DBA
:1006000080818064808381E090E0DF91CF911F91B1
:100610000F91089508951F920F920FB60F92112413
:100620002F934F935F938F939F93EF93FF938091BB
:10063000C00082FD1CC02091C6008091C501909130
:10064000C60101968F7399274091C7015091C80147
:100650008417950771F0E091C501F091C601EB5741
:10066000FE4F20839093C6018093C50102C0809104
:10067000C600FF91EF919F918F915F914F912F91C4
:100680000F900FBE0F901F9018958FE191E00E9480
:100690007102892B11F00C940A0308951F920F9296
:1006A0000FB60F9211242F933F938F939F93EF9345
:1006B000FF9320918101309182018091830190917B
:1006C00084012817390731F48091C1008F7D809310
:1006D000C10014C0E0918301F0918401EF5BFE4FF3
:1006E0002081809183019091840101968F739927D5
:1006F00090938401809383012093C600FF91EF9132
:100700009F918F913F912F910F900FBE0F901F904F
:100710001895CF92DF92EF92FF920F931F93CF9392
:10072000DF93EC016A017B01EC89FD8981E090E0B7
:1007300008A002C0880F991F0A94E2F7808360E83E
:1007400074E88EE190E0A70196010E9403078901F9
:100750009A010150110921093109369527951795FC
:10076000079598010115104108F042C0E889F98900
:100770003083EA89FB89208319A2EE89FF894081B1
:1007800081E090E09C010C8C02C0220F331F0A9480
:10079000E2F7242B2083EE89FF8940819C010D8C98
:1007A00002C0220F331F0A94E2F7242B2083EE8924
:1007B000FF8940819C010E8C02C0220F331F0A94D6
:1007C000E2F7242B2083EE89FF8920810F8C02C061
:1007D000880F991F0A94E2F7809582238083DF9126
:1007E000CF911F910F91FF90EF90DF90CF900895E0
:1007F000EC89FD89108260E472E48FE090E0A7014B
:1008000096010E940307DA01C9010197A109B10904
:10081000B695A795979587959C01A8CFEFE1F1E054
:100820001382128288EE93E0A0E0B0E08483958387
:10083000A683B7838BE091E09183808385E891E084
:100840009587848781E491E09787868785EC90E09F
:10085000918B808B84EC90E0938B828B80EC90E08A
:10086000958B848B81EC90E0978B868B82EC90E06B
:10087000918F808F86EC90E0938F828F84E0848FBD
:1008800083E0858F87E0868F85E0878F81E080A376
:1008900008951F920F920FB60F9211242F933F933A
:1008A0008F939F93AF93BF938091CA019091CB0197
:1008B000A091CC01B091CD013091C90126E0230F68
:1008C0002D3720F40296A11DB11D05C029E8230F84
:1008D0000396A11DB11D2093C9018093CA01909375
:1008E000CB01A093CC01B093CD018091CE0190912A
:1008F000CF01A091D001B091D1010196A11DB11DF0
:100900008093CE019093CF01A093D001B093D101F9
:10091000BF91AF919F918F913F912F910F900FBEFB
:100920000F901F9018952FB7F8946091CA0170919D
:10093000CB018091CC019091CD012FBF0895789487
:1009400084B5826084BD84B5816084BD85B58260D4
:1009500085BD85B5816085BDEEE6F0E08081816072
:100960008083E1E8F0E01082808182608083808172
:1009700081608083E0E8F0E0808181608083E1EB4A
:10098000F0E0808184608083E0EBF0E08081816032
:100990008083EAE7F0E080818460808380818260E8
:1009A00080838081816080838081806880831092D1
:1009B000C10008956F927F928F929F92AF92BF92E3
:1009C000CF92DF92EF92FF920F931F93CF93DF931B
:1009D000EC01009789F4CB01DF91CF911F910F912A
:1009E000FF90EF90DF90CF90BF90AF909F908F904F
:1009F0007F906F900C94C305FC01E60FF71F9C01DC
:100A000022503109E217F30708F4ACC0D9010D9167
:100A10001C91119706171707B0F00530110508F45F
:100A20009FC0C80104978617970708F499C0025021
:100A30001109061B170B019311936D937C93CF0142
:100A40000E9458068DC05B01A01AB10A4C01800EAD
:100A5000911EA091D401B091D50140E050E0E12C6D
:100A6000F12C109709F44AC0A815B905D1F56D907D
:100A70007C901197630182E0C80ED11CCA14DB047C
:100A800080F1A3014A195B096A0182E0C80ED11CFA
:100A90001296BC9012971396AC91B5E0CB16D10488
:100AA00040F0B282A38351834083D9016D937C933C
:100AB0000AC00E5F1F4FC301800F911FF901918380
:100AC0008083EB2DFA2FE114F10431F0D701139656
:100AD000FC93EE93129744C0F093D501E093D401B8
:100AE0003FC08D919C9111974817590708F4AC01AC
:100AF0007D0112960D90BC91A02DB3CF8091D201B3
:100B00009091D30188159905E1F446175707C8F469
:100B10008091000190910101009741F48DB79EB73B
:100B20004091040150910501841B950BE817F907CA
:100B3000C8F4F093D301E093D201F901718360838B
:100B40000FC0CB010E94C3057C01009759F0A8019A
:100B5000BE010E94F306CE010E945806C70104C0E0
:100B6000CE0102C080E090E0DF91CF911F910F9104
:100B7000FF90EF90DF90CF90BF90AF909F908F90BD
:100B80007F906F900895CF93DF938230910510F49A
:100B900082E090E0E091D401F091D50120E030E0D6
:100BA000C0E0D0E0309711F14081518148175907DA
:100BB000C0F04817590761F482819381209719F09A
:100BC0009B838A832BC09093D5018093D40126C048
:100BD0002115310519F04217530718F49A01BE0187
:100BE000DF01EF010280F381E02DDCCF211531051B
:100BF00009F1281B390B2430310590F412968D91A0
:100C00009C9113976115710521F0FB0193838283F9
:100C100004C09093D5018093D401FD01329644C065
:100C2000FD01E20FF31F81939193225031092D931F
:100C30003C933AC02091D2013091D301232B41F44F
:100C400020910201309103013093D3012093D2010E
:100C500020910001309101012115310541F42DB79A
:100C60003EB74091040150910501241B350BE091E2
:100C7000D201F091D301E217F307A0F42E1B3F0B32
:100C80002817390778F0AC014E5F5F4F24173507FE
:100C900048F04E0F5F1F5093D3014093D2018193D0
:100CA000919302C0E0E0F0E0CF01DF91CF91089591
:100CB0000F931F93CF93DF93009709F48CC0FC012F
:100CC0003297138212820091D4011091D50101153F
:100CD000110581F420813181820F931F2091D2016F
:100CE0003091D3012817390779F5F093D301E093B8
:100CF000D20171C0D80140E050E0AE17BF0750F4F8
:100D000012962D913C911397AD012115310509F1F2
:100D1000D901F3CF9D01DA01338322836081718190
:100D2000860F971F8217930769F4EC012881398198
:100D3000260F371F2E5F3F4F318320838A819B818F
:100D400093838283452B29F4F093D501E093D4015A
:100D500042C01396FC93EE931297ED01499159917D
:100D60009E01240F351FE217F30771F480819181F2
:100D7000840F951F029611969C938E938281938186
:100D800013969C938E931297E0E0F0E0D8011296B0
:100D90008D919C911397009719F0F8018C01F6CF73
:100DA0008D919C9198012E5F3F4F820F931F209150
:100DB000D2013091D3012817390769F4309729F40B
:100DC0001092D5011092D40102C0138212821093A6
:100DD000D3010093D201DF91CF911F910F9108951C
:100DE000F8940C942B07FB01DC0102C001900D92DA
:100DF00041505040D8F70895FB01DC0101900D925D
:100E00000020E1F70895A1E21A2EAA1BBB1BFD01E9
:100E10000DC0AA1FBB1FEE1FFF1FA217B307E407D9
:100E2000F50720F0A21BB30BE40BF50B661F771F31
:100E3000881F991F1A9469F7609570958095909511
:100E40009B01AC01BD01CF010895EE0FFF1F05907E
:100E5000F491E02D099410E0C6E3D0E004C0FE0157
:100E60000E9425072196C733D107C9F7F894FFCF11
:100E70000000D60180000000000000C8029001714F
:080E8000029D028102BD020087
:00000001FF
